{
  "contractName": "Buy",
  "abi": [
    {
      "inputs": [],
      "name": "amount",
      "outputs": [
        {
          "internalType": "uint256",
          "name": "",
          "type": "uint256"
        }
      ],
      "stateMutability": "view",
      "type": "function"
    },
    {
      "inputs": [
        {
          "internalType": "address payable",
          "name": "_recAddr",
          "type": "address"
        }
      ],
      "name": "send",
      "outputs": [],
      "stateMutability": "payable",
      "type": "function"
    }
  ],
  "bytecode": "0x6080604052670de0b6b3a764000060005534801561001c57600080fd5b506101ce8061002c6000396000f3fe6080604052600436106100295760003560e01c80633e58c58c1461002e578063aa8c217c1461004a575b600080fd5b61004860048036038101906100439190610137565b610075565b005b34801561005657600080fd5b5061005f6100ce565b60405161006c919061017d565b60405180910390f35b60005434101561008457600080fd5b8073ffffffffffffffffffffffffffffffffffffffff166108fc349081150290604051600060405180830381858888f193505050501580156100ca573d6000803e3d6000fd5b5050565b60005481565b600080fd5b600073ffffffffffffffffffffffffffffffffffffffff82169050919050565b6000610104826100d9565b9050919050565b610114816100f9565b811461011f57600080fd5b50565b6000813590506101318161010b565b92915050565b60006020828403121561014d5761014c6100d4565b5b600061015b84828501610122565b91505092915050565b6000819050919050565b61017781610164565b82525050565b6000602082019050610192600083018461016e565b9291505056fea2646970667358221220234ea3b2bf9cb8c12bf2c548f1e7a0925a3c68c131b678018738c6743cc790ec64736f6c634300080d0033",
  "immutableReferences": {},
  "source": "// SPDX-License-Identifier: MIT\npragma solidity >=0.4.22 <0.9.0;\n\ncontract Buy {\n    uint public amount = 1 ether;\n\n    function send(address payable _recAddr) payable public {\n        require(msg.value >= amount);\n        _recAddr.transfer(msg.value);\n    }\n}",
  "sourcePath": "/home/inlab/Desktop/wotjr/health-care-DApp/contract/contracts/Buy.sol",
  "compiler": {
    "name": "solc",
    "version": "0.8.13+commit.abaa5c0e.Emscripten.clang"
  },
  "schemaVersion": "3.4.7",
  "updatedAt": "2022-05-11T04:48:26.416Z",
  "devdoc": {
    "kind": "dev",
    "methods": {},
    "version": 1
  },
  "userdoc": {
    "kind": "user",
    "methods": {},
    "version": 1
  }
}