{
  "contractName": "Buy",
  "abi": [
    {
      "inputs": [],
      "stateMutability": "nonpayable",
      "type": "constructor"
    },
    {
      "inputs": [],
      "name": "getOwner",
      "outputs": [
        {
          "internalType": "address",
          "name": "",
          "type": "address"
        }
      ],
      "stateMutability": "view",
      "type": "function",
      "constant": true
    },
    {
      "inputs": [
        {
          "internalType": "address payable",
          "name": "receiver",
          "type": "address"
        },
        {
          "internalType": "uint256",
          "name": "amount",
          "type": "uint256"
        }
      ],
      "name": "sendMoney",
      "outputs": [
        {
          "internalType": "bool",
          "name": "success",
          "type": "bool"
        }
      ],
      "stateMutability": "payable",
      "type": "function",
      "payable": true
    },
    {
      "inputs": [
        {
          "internalType": "address",
          "name": "addr",
          "type": "address"
        }
      ],
      "name": "getBalance",
      "outputs": [
        {
          "internalType": "uint256",
          "name": "",
          "type": "uint256"
        }
      ],
      "stateMutability": "view",
      "type": "function",
      "constant": true
    },
    {
      "inputs": [],
      "name": "getMyBal",
      "outputs": [
        {
          "internalType": "uint256",
          "name": "",
          "type": "uint256"
        }
      ],
      "stateMutability": "view",
      "type": "function",
      "constant": true
    }
  ],
  "bytecode": "0x608060405234801561001057600080fd5b50336000806101000a81548173ffffffffffffffffffffffffffffffffffffffff021916908373ffffffffffffffffffffffffffffffffffffffff1602179055503373ffffffffffffffffffffffffffffffffffffffff1631600160003273ffffffffffffffffffffffffffffffffffffffff1673ffffffffffffffffffffffffffffffffffffffff168152602001908152602001600020819055506105e7806100bb6000396000f3fe60806040526004361061003f5760003560e01c8063893d20e814610044578063d0831cb11461006f578063ee4ae2c91461009a578063f8b2cb4f146100ca575b600080fd5b34801561005057600080fd5b50610059610107565b604051610066919061036b565b60405180910390f35b34801561007b57600080fd5b50610084610130565b604051610091919061039f565b60405180910390f35b6100b460048036038101906100af9190610429565b61014f565b6040516100c19190610484565b60405180910390f35b3480156100d657600080fd5b506100f160048036038101906100ec91906104cb565b6102e1565b6040516100fe919061039f565b60405180910390f35b60008060009054906101000a900473ffffffffffffffffffffffffffffffffffffffff16905090565b60003373ffffffffffffffffffffffffffffffffffffffff1631905090565b600081600160008060009054906101000a900473ffffffffffffffffffffffffffffffffffffffff1673ffffffffffffffffffffffffffffffffffffffff1673ffffffffffffffffffffffffffffffffffffffff1681526020019081526020016000205410156101c257600090506102db565b81600160008060009054906101000a900473ffffffffffffffffffffffffffffffffffffffff1673ffffffffffffffffffffffffffffffffffffffff1673ffffffffffffffffffffffffffffffffffffffff16815260200190815260200160002060008282546102329190610527565b9250508190555081600160008573ffffffffffffffffffffffffffffffffffffffff1673ffffffffffffffffffffffffffffffffffffffff1681526020019081526020016000206000828254610288919061055b565b925050819055508273ffffffffffffffffffffffffffffffffffffffff166108fc349081150290604051600060405180830381858888f193505050501580156102d5573d6000803e3d6000fd5b50600190505b92915050565b6000600160008373ffffffffffffffffffffffffffffffffffffffff1673ffffffffffffffffffffffffffffffffffffffff168152602001908152602001600020549050919050565b600073ffffffffffffffffffffffffffffffffffffffff82169050919050565b60006103558261032a565b9050919050565b6103658161034a565b82525050565b6000602082019050610380600083018461035c565b92915050565b6000819050919050565b61039981610386565b82525050565b60006020820190506103b46000830184610390565b92915050565b600080fd5b60006103ca8261032a565b9050919050565b6103da816103bf565b81146103e557600080fd5b50565b6000813590506103f7816103d1565b92915050565b61040681610386565b811461041157600080fd5b50565b600081359050610423816103fd565b92915050565b600080604083850312156104405761043f6103ba565b5b600061044e858286016103e8565b925050602061045f85828601610414565b9150509250929050565b60008115159050919050565b61047e81610469565b82525050565b60006020820190506104996000830184610475565b92915050565b6104a88161034a565b81146104b357600080fd5b50565b6000813590506104c58161049f565b92915050565b6000602082840312156104e1576104e06103ba565b5b60006104ef848285016104b6565b91505092915050565b7f4e487b7100000000000000000000000000000000000000000000000000000000600052601160045260246000fd5b600061053282610386565b915061053d83610386565b9250828210156105505761054f6104f8565b5b828203905092915050565b600061056682610386565b915061057183610386565b9250827fffffffffffffffffffffffffffffffffffffffffffffffffffffffffffffffff038211156105a6576105a56104f8565b5b82820190509291505056fea26469706673582212203ccc3725eb4de1c1b1dd59e853461d3686280b062f00948f70e1271e3f96cfb064736f6c634300080d0033",
  "immutableReferences": {},
  "source": "// SPDX-License-Identifier: MIT\npragma solidity >=0.4.22 <0.9.0;\n\ncontract Buy {\n    address private owner;\n    mapping (address => uint) accountBalance;\n\n    struct transferStruct {\n        address sender;\n        address receiver;\n        uint amount;\n    }\n\n    constructor() {\n        owner = msg.sender;\n        accountBalance[tx.origin] = msg.sender.balance;\n    }\n\n    function getOwner() public view returns (address) {\n        return owner;\n    }\n\n    function sendMoney(address payable receiver, uint amount) payable public returns(bool success) {\n        if(accountBalance[owner] < amount ) {\n            return false;\n        }\n        accountBalance[owner] -= amount;\n        accountBalance[receiver] += amount;\n        receiver.transfer(msg.value);\n        return true;\n    }\n\n    function getBalance(address addr) public view returns(uint) {\n        return accountBalance[addr];\n    }\n\n    function getMyBal() public view returns(uint) {\n        return msg.sender.balance;\n    }\n\n}\n\n// pragma solidity >=0.4.22 <0.9.0;\n\n// contract Buy {\n//     uint public amount = 1 ether;\n\n//     function send(address payable _recAddr) payable public {\n//         require(msg.value >= amount);\n//         _recAddr.transfer(amount);\n//     }\n// }",
  "sourcePath": "/home/inlab/Desktop/wotjr/health-care-DApp/contract/contracts/Buy.sol",
  "compiler": {
    "name": "solc",
    "version": "0.8.13+commit.abaa5c0e.Emscripten.clang"
  },
  "schemaVersion": "3.4.7",
  "updatedAt": "2022-05-11T09:34:37.871Z",
  "networkType": "ethereum",
  "devdoc": {
    "kind": "dev",
    "methods": {},
    "version": 1
  },
  "userdoc": {
    "kind": "user",
    "methods": {},
    "version": 1
  }
}