{
  "contractName": "Buy",
  "abi": [
    {
      "inputs": [],
      "stateMutability": "nonpayable",
      "type": "constructor"
    },
    {
      "inputs": [],
      "name": "getOwner",
      "outputs": [
        {
          "internalType": "address",
          "name": "",
          "type": "address"
        }
      ],
      "stateMutability": "view",
      "type": "function",
      "constant": true
    },
    {
      "inputs": [
        {
          "internalType": "address payable",
          "name": "receiver",
          "type": "address"
        }
      ],
      "name": "sendMoney",
      "outputs": [
        {
          "internalType": "bool",
          "name": "success",
          "type": "bool"
        }
      ],
      "stateMutability": "payable",
      "type": "function",
      "payable": true
    },
    {
      "inputs": [
        {
          "internalType": "address",
          "name": "addr",
          "type": "address"
        }
      ],
      "name": "getBalance",
      "outputs": [
        {
          "internalType": "uint256",
          "name": "",
          "type": "uint256"
        }
      ],
      "stateMutability": "view",
      "type": "function",
      "constant": true
    },
    {
      "inputs": [],
      "name": "getMyBal",
      "outputs": [
        {
          "internalType": "uint256",
          "name": "",
          "type": "uint256"
        }
      ],
      "stateMutability": "view",
      "type": "function",
      "constant": true
    }
  ],
  "bytecode": "0x608060405234801561001057600080fd5b50336000806101000a81548173ffffffffffffffffffffffffffffffffffffffff021916908373ffffffffffffffffffffffffffffffffffffffff1602179055503373ffffffffffffffffffffffffffffffffffffffff1631600160003273ffffffffffffffffffffffffffffffffffffffff1673ffffffffffffffffffffffffffffffffffffffff16815260200190815260200160002081905550610421806100bb6000396000f3fe60806040526004361061003f5760003560e01c8063338ccd7814610044578063893d20e814610074578063d0831cb11461009f578063f8b2cb4f146100ca575b600080fd5b61005e600480360381019061005991906102bf565b610107565b60405161006b9190610307565b60405180910390f35b34801561008057600080fd5b506100896101cb565b6040516100969190610343565b60405180910390f35b3480156100ab57600080fd5b506100b46101f4565b6040516100c19190610377565b60405180910390f35b3480156100d657600080fd5b506100f160048036038101906100ec91906103be565b610213565b6040516100fe9190610377565b60405180910390f35b600034600160008060009054906101000a900473ffffffffffffffffffffffffffffffffffffffff1673ffffffffffffffffffffffffffffffffffffffff1673ffffffffffffffffffffffffffffffffffffffff16815260200190815260200160002054101561017a57600090506101c6565b8173ffffffffffffffffffffffffffffffffffffffff166108fc349081150290604051600060405180830381858888f193505050501580156101c0573d6000803e3d6000fd5b50600190505b919050565b60008060009054906101000a900473ffffffffffffffffffffffffffffffffffffffff16905090565b60003373ffffffffffffffffffffffffffffffffffffffff1631905090565b6000600160008373ffffffffffffffffffffffffffffffffffffffff1673ffffffffffffffffffffffffffffffffffffffff168152602001908152602001600020549050919050565b600080fd5b600073ffffffffffffffffffffffffffffffffffffffff82169050919050565b600061028c82610261565b9050919050565b61029c81610281565b81146102a757600080fd5b50565b6000813590506102b981610293565b92915050565b6000602082840312156102d5576102d461025c565b5b60006102e3848285016102aa565b91505092915050565b60008115159050919050565b610301816102ec565b82525050565b600060208201905061031c60008301846102f8565b92915050565b600061032d82610261565b9050919050565b61033d81610322565b82525050565b60006020820190506103586000830184610334565b92915050565b6000819050919050565b6103718161035e565b82525050565b600060208201905061038c6000830184610368565b92915050565b61039b81610322565b81146103a657600080fd5b50565b6000813590506103b881610392565b92915050565b6000602082840312156103d4576103d361025c565b5b60006103e2848285016103a9565b9150509291505056fea264697066735822122075cd0938150f1acc8eac8063adc9b50e43c2076508e031683d12502c63fbc44064736f6c634300080d0033",
  "immutableReferences": {},
  "source": "// SPDX-License-Identifier: MIT\npragma solidity >=0.4.22 <0.9.0;\n\ncontract Buy {\n    address private owner;\n    mapping (address => uint) accountBalance;\n\n    struct transferStruct {\n        address sender;\n        address receiver;\n        uint amount;\n    }\n\n    constructor() {\n        owner = msg.sender;\n        accountBalance[tx.origin] = msg.sender.balance;\n    }\n\n    function getOwner() public view returns (address) {\n        return owner;\n    }\n\n    function sendMoney(address payable receiver) payable public returns(bool success) {\n        if(accountBalance[owner] < msg.value ) {\n            return false;\n        }\n        \n        receiver.transfer(msg.value);\n        return true;\n    }\n\n    function getBalance(address addr) public view returns(uint) {\n        return accountBalance[addr];\n    }\n\n    function getMyBal() public view returns(uint) {\n        return msg.sender.balance;\n    }\n\n}\n\n// pragma solidity >=0.4.22 <0.9.0;\n\n// contract Buy {\n//     uint public amount = 1 ether;\n\n//     function send(address payable _recAddr) payable public {\n//         require(msg.value >= amount);\n//         _recAddr.transfer(amount);\n//     }\n// }",
  "sourcePath": "/home/inlab/Desktop/wotjr/health-care-DApp/contract/contracts/Buy.sol",
  "compiler": {
    "name": "solc",
    "version": "0.8.13+commit.abaa5c0e.Emscripten.clang"
  },
  "schemaVersion": "3.4.7",
  "updatedAt": "2022-05-30T02:58:09.562Z",
  "networkType": "ethereum",
  "devdoc": {
    "kind": "dev",
    "methods": {},
    "version": 1
  },
  "userdoc": {
    "kind": "user",
    "methods": {},
    "version": 1
  }
}