{
  "contractName": "HealthCare",
  "abi": [
    {
      "inputs": [],
      "stateMutability": "nonpayable",
      "type": "constructor"
    },
    {
      "anonymous": false,
      "inputs": [
        {
          "indexed": false,
          "internalType": "address",
          "name": "doctorAddr",
          "type": "address"
        }
      ],
      "name": "DoctorAdd",
      "type": "event"
    },
    {
      "inputs": [
        {
          "internalType": "address",
          "name": "doctorAddr",
          "type": "address"
        },
        {
          "internalType": "string",
          "name": "_hospital",
          "type": "string"
        }
      ],
      "name": "addDoctor",
      "outputs": [
        {
          "internalType": "bool",
          "name": "",
          "type": "bool"
        }
      ],
      "stateMutability": "nonpayable",
      "type": "function"
    },
    {
      "inputs": [
        {
          "internalType": "address",
          "name": "_patientAddr",
          "type": "address"
        },
        {
          "internalType": "string",
          "name": "_patientName",
          "type": "string"
        },
        {
          "internalType": "string",
          "name": "_patientAge",
          "type": "string"
        },
        {
          "internalType": "string",
          "name": "_patientWeight",
          "type": "string"
        },
        {
          "internalType": "string",
          "name": "_patientHeight",
          "type": "string"
        },
        {
          "internalType": "string",
          "name": "_symptom",
          "type": "string"
        },
        {
          "internalType": "string",
          "name": "_description",
          "type": "string"
        }
      ],
      "name": "addPatientData",
      "outputs": [
        {
          "internalType": "string",
          "name": "",
          "type": "string"
        }
      ],
      "stateMutability": "nonpayable",
      "type": "function"
    },
    {
      "inputs": [
        {
          "internalType": "address",
          "name": "_patientAddr",
          "type": "address"
        }
      ],
      "name": "readPatientData",
      "outputs": [
        {
          "components": [
            {
              "internalType": "address",
              "name": "patientAddr",
              "type": "address"
            },
            {
              "internalType": "string",
              "name": "patientName",
              "type": "string"
            },
            {
              "internalType": "string",
              "name": "patientAge",
              "type": "string"
            },
            {
              "internalType": "string",
              "name": "patientWeight",
              "type": "string"
            },
            {
              "internalType": "string",
              "name": "patientHeight",
              "type": "string"
            },
            {
              "internalType": "string",
              "name": "symptom",
              "type": "string"
            },
            {
              "internalType": "string",
              "name": "description",
              "type": "string"
            },
            {
              "internalType": "uint256",
              "name": "state",
              "type": "uint256"
            }
          ],
          "internalType": "struct HealthCare.MedicalForm",
          "name": "",
          "type": "tuple"
        }
      ],
      "stateMutability": "view",
      "type": "function",
      "constant": true
    },
    {
      "inputs": [
        {
          "internalType": "address",
          "name": "_patientAddr",
          "type": "address"
        },
        {
          "internalType": "string",
          "name": "_patientName",
          "type": "string"
        },
        {
          "internalType": "string",
          "name": "_patientAge",
          "type": "string"
        },
        {
          "internalType": "string",
          "name": "_patientWeight",
          "type": "string"
        },
        {
          "internalType": "string",
          "name": "_patientHeight",
          "type": "string"
        },
        {
          "internalType": "string",
          "name": "_symptom",
          "type": "string"
        },
        {
          "internalType": "string",
          "name": "_description",
          "type": "string"
        }
      ],
      "name": "updatePatientData",
      "outputs": [
        {
          "internalType": "bool",
          "name": "",
          "type": "bool"
        }
      ],
      "stateMutability": "nonpayable",
      "type": "function"
    },
    {
      "inputs": [
        {
          "internalType": "address",
          "name": "_patientAddr",
          "type": "address"
        }
      ],
      "name": "deletePatientData",
      "outputs": [
        {
          "internalType": "bool",
          "name": "",
          "type": "bool"
        }
      ],
      "stateMutability": "nonpayable",
      "type": "function"
    },
    {
      "inputs": [
        {
          "internalType": "address",
          "name": "_patAddr",
          "type": "address"
        },
        {
          "internalType": "string",
          "name": "_name",
          "type": "string"
        },
        {
          "internalType": "string",
          "name": "_age",
          "type": "string"
        }
      ],
      "name": "addPatient",
      "outputs": [
        {
          "internalType": "bool",
          "name": "",
          "type": "bool"
        }
      ],
      "stateMutability": "nonpayable",
      "type": "function"
    },
    {
      "inputs": [
        {
          "internalType": "address",
          "name": "_doctorAddr",
          "type": "address"
        }
      ],
      "name": "getPatientList",
      "outputs": [
        {
          "components": [
            {
              "internalType": "address",
              "name": "patAddr",
              "type": "address"
            },
            {
              "internalType": "string",
              "name": "name",
              "type": "string"
            },
            {
              "internalType": "string",
              "name": "age",
              "type": "string"
            }
          ],
          "internalType": "struct HealthCare.Patient[]",
          "name": "",
          "type": "tuple[]"
        }
      ],
      "stateMutability": "view",
      "type": "function",
      "constant": true
    },
    {
      "inputs": [
        {
          "internalType": "address",
          "name": "userAddr",
          "type": "address"
        }
      ],
      "name": "getUser",
      "outputs": [
        {
          "internalType": "string",
          "name": "",
          "type": "string"
        }
      ],
      "stateMutability": "view",
      "type": "function",
      "constant": true
    }
  ],
  "bytecode": "0x608060405234801561001057600080fd5b5060016000803373ffffffffffffffffffffffffffffffffffffffff1673ffffffffffffffffffffffffffffffffffffffff168152602001908152602001600020819055506128dd806100646000396000f3fe608060405234801561001057600080fd5b50600436106100885760003560e01c80636f77926b1161005b5780636f77926b1461014d5780637cf1e4451461017d5780639c911309146101ad578063b7cca9e8146101dd57610088565b806330004a711461008d57806337b16b50146100bd5780633a25ab1d146100ed57806346a251891461011d575b600080fd5b6100a760048036038101906100a29190611f8c565b61020d565b6040516100b4919061215e565b60405180910390f35b6100d760048036038101906100d29190612180565b61076d565b6040516100e49190612226565b60405180910390f35b61010760048036038101906101029190612241565b6109c6565b60405161011491906123b3565b60405180910390f35b61013760048036038101906101329190612241565b610dec565b6040516101449190612226565b60405180910390f35b61016760048036038101906101629190612241565b611321565b604051610174919061215e565b60405180910390f35b610197600480360381019061019291906123d5565b6113f2565b6040516101a49190612226565b60405180910390f35b6101c760048036038101906101c29190612241565b61162a565b6040516101d4919061254a565b60405180910390f35b6101f760048036038101906101f29190611f8c565b6118d9565b6040516102049190612226565b60405180910390f35b606060405160200161021e906125c3565b60405160208183030381529060405280519060200120600160003373ffffffffffffffffffffffffffffffffffffffff1673ffffffffffffffffffffffffffffffffffffffff16815260200190815260200160002060405160200161028391906126cc565b60405160208183030381529060405280519060200120146102a357600080fd5b87600360008a73ffffffffffffffffffffffffffffffffffffffff1673ffffffffffffffffffffffffffffffffffffffff16815260200190815260200160002060000160006101000a81548173ffffffffffffffffffffffffffffffffffffffff021916908373ffffffffffffffffffffffffffffffffffffffff16021790555086600360008a73ffffffffffffffffffffffffffffffffffffffff1673ffffffffffffffffffffffffffffffffffffffff168152602001908152602001600020600101908051906020019061037a929190611c09565b5085600360008a73ffffffffffffffffffffffffffffffffffffffff1673ffffffffffffffffffffffffffffffffffffffff16815260200190815260200160002060020190805190602001906103d1929190611c09565b5084600360008a73ffffffffffffffffffffffffffffffffffffffff1673ffffffffffffffffffffffffffffffffffffffff1681526020019081526020016000206003019080519060200190610428929190611c09565b5083600360008a73ffffffffffffffffffffffffffffffffffffffff1673ffffffffffffffffffffffffffffffffffffffff168152602001908152602001600020600401908051906020019061047f929190611c09565b5082600360008a73ffffffffffffffffffffffffffffffffffffffff1673ffffffffffffffffffffffffffffffffffffffff16815260200190815260200160002060050190805190602001906104d6929190611c09565b5081600360008a73ffffffffffffffffffffffffffffffffffffffff1673ffffffffffffffffffffffffffffffffffffffff168152602001908152602001600020600601908051906020019061052d929190611c09565b506000600360008a73ffffffffffffffffffffffffffffffffffffffff1673ffffffffffffffffffffffffffffffffffffffff16815260200190815260200160002060070181905550600260003373ffffffffffffffffffffffffffffffffffffffff1673ffffffffffffffffffffffffffffffffffffffff16815260200190815260200160002060020160405180606001604052808a73ffffffffffffffffffffffffffffffffffffffff16815260200189815260200188815250908060018154018082558091505060019003906000526020600020906003020160009091909190915060008201518160000160006101000a81548173ffffffffffffffffffffffffffffffffffffffff021916908373ffffffffffffffffffffffffffffffffffffffff1602179055506020820151816001019080519060200190610675929190611c09565b506040820151816002019080519060200190610692929190611c09565b505050600360008973ffffffffffffffffffffffffffffffffffffffff1673ffffffffffffffffffffffffffffffffffffffff16815260200190815260200160002060010180546106e290612607565b80601f016020809104026020016040519081016040528092919081815260200182805461070e90612607565b801561075b5780601f106107305761010080835404028352916020019161075b565b820191906000526020600020905b81548152906001019060200180831161073e57829003601f168201915b50505050509050979650505050505050565b600060405160200161077e90612709565b60405160208183030381529060405280519060200120600160003373ffffffffffffffffffffffffffffffffffffffff1673ffffffffffffffffffffffffffffffffffffffff1681526020019081526020016000206040516020016107e391906126cc565b604051602081830303815290604052805190602001201461080357600080fd5b6040518060400160405280600781526020017f70617469656e7400000000000000000000000000000000000000000000000000815250600160003373ffffffffffffffffffffffffffffffffffffffff1673ffffffffffffffffffffffffffffffffffffffff168152602001908152602001600020908051906020019061088b929190611c09565b5083600460003373ffffffffffffffffffffffffffffffffffffffff1673ffffffffffffffffffffffffffffffffffffffff16815260200190815260200160002060000160006101000a81548173ffffffffffffffffffffffffffffffffffffffff021916908373ffffffffffffffffffffffffffffffffffffffff16021790555082600460003373ffffffffffffffffffffffffffffffffffffffff1673ffffffffffffffffffffffffffffffffffffffff1681526020019081526020016000206001019080519060200190610963929190611c09565b5081600460003373ffffffffffffffffffffffffffffffffffffffff1673ffffffffffffffffffffffffffffffffffffffff16815260200190815260200160002060020190805190602001906109ba929190611c09565b50600190509392505050565b6109ce611c8f565b600360008373ffffffffffffffffffffffffffffffffffffffff1673ffffffffffffffffffffffffffffffffffffffff168152602001908152602001600020604051806101000160405290816000820160009054906101000a900473ffffffffffffffffffffffffffffffffffffffff1673ffffffffffffffffffffffffffffffffffffffff1673ffffffffffffffffffffffffffffffffffffffff168152602001600182018054610a7f90612607565b80601f0160208091040260200160405190810160405280929190818152602001828054610aab90612607565b8015610af85780601f10610acd57610100808354040283529160200191610af8565b820191906000526020600020905b815481529060010190602001808311610adb57829003601f168201915b50505050508152602001600282018054610b1190612607565b80601f0160208091040260200160405190810160405280929190818152602001828054610b3d90612607565b8015610b8a5780601f10610b5f57610100808354040283529160200191610b8a565b820191906000526020600020905b815481529060010190602001808311610b6d57829003601f168201915b50505050508152602001600382018054610ba390612607565b80601f0160208091040260200160405190810160405280929190818152602001828054610bcf90612607565b8015610c1c5780601f10610bf157610100808354040283529160200191610c1c565b820191906000526020600020905b815481529060010190602001808311610bff57829003601f168201915b50505050508152602001600482018054610c3590612607565b80601f0160208091040260200160405190810160405280929190818152602001828054610c6190612607565b8015610cae5780601f10610c8357610100808354040283529160200191610cae565b820191906000526020600020905b815481529060010190602001808311610c9157829003601f168201915b50505050508152602001600582018054610cc790612607565b80601f0160208091040260200160405190810160405280929190818152602001828054610cf390612607565b8015610d405780601f10610d1557610100808354040283529160200191610d40565b820191906000526020600020905b815481529060010190602001808311610d2357829003601f168201915b50505050508152602001600682018054610d5990612607565b80601f0160208091040260200160405190810160405280929190818152602001828054610d8590612607565b8015610dd25780601f10610da757610100808354040283529160200191610dd2565b820191906000526020600020905b815481529060010190602001808311610db557829003601f168201915b505050505081526020016007820154815250509050919050565b6000604051602001610dfd906125c3565b60405160208183030381529060405280519060200120600160003373ffffffffffffffffffffffffffffffffffffffff1673ffffffffffffffffffffffffffffffffffffffff168152602001908152602001600020604051602001610e6291906126cc565b6040516020818303038152906040528051906020012014610e8257600080fd5b600080600090505b600260003373ffffffffffffffffffffffffffffffffffffffff1673ffffffffffffffffffffffffffffffffffffffff16815260200190815260200160002060020180549050811015610fa6578373ffffffffffffffffffffffffffffffffffffffff16600260003373ffffffffffffffffffffffffffffffffffffffff1673ffffffffffffffffffffffffffffffffffffffff1681526020019081526020016000206002018281548110610f4257610f4161271e565b5b906000526020600020906003020160000160009054906101000a900473ffffffffffffffffffffffffffffffffffffffff1673ffffffffffffffffffffffffffffffffffffffff1603610f93578091505b8080610f9e9061277c565b915050610e8a565b5060008190505b6001600260003373ffffffffffffffffffffffffffffffffffffffff1673ffffffffffffffffffffffffffffffffffffffff16815260200190815260200160002060020180549050610fff91906127c4565b81101561119357600260003373ffffffffffffffffffffffffffffffffffffffff1673ffffffffffffffffffffffffffffffffffffffff16815260200190815260200160002060020160018261105591906127f8565b815481106110665761106561271e565b5b9060005260206000209060030201600260003373ffffffffffffffffffffffffffffffffffffffff1673ffffffffffffffffffffffffffffffffffffffff16815260200190815260200160002060020182815481106110c8576110c761271e565b5b90600052602060002090600302016000820160009054906101000a900473ffffffffffffffffffffffffffffffffffffffff168160000160006101000a81548173ffffffffffffffffffffffffffffffffffffffff021916908373ffffffffffffffffffffffffffffffffffffffff160217905550600182018160010190805461115190612607565b61115c929190611cea565b50600282018160020190805461117190612607565b61117c929190611cea565b50905050808061118b9061277c565b915050610fad565b50600260003373ffffffffffffffffffffffffffffffffffffffff1673ffffffffffffffffffffffffffffffffffffffff1681526020019081526020016000206002018054806111e6576111e561284e565b5b6001900381819060005260206000209060030201600080820160006101000a81549073ffffffffffffffffffffffffffffffffffffffff02191690556001820160006112329190611d77565b6002820160006112429190611d77565b50509055600360008473ffffffffffffffffffffffffffffffffffffffff1673ffffffffffffffffffffffffffffffffffffffff168152602001908152602001600020600080820160006101000a81549073ffffffffffffffffffffffffffffffffffffffff02191690556001820160006112bd9190611d77565b6002820160006112cd9190611d77565b6003820160006112dd9190611d77565b6004820160006112ed9190611d77565b6005820160006112fd9190611d77565b60068201600061130d9190611d77565b600782016000905550506001915050919050565b6060600160008373ffffffffffffffffffffffffffffffffffffffff1673ffffffffffffffffffffffffffffffffffffffff168152602001908152602001600020805461136d90612607565b80601f016020809104026020016040519081016040528092919081815260200182805461139990612607565b80156113e65780601f106113bb576101008083540402835291602001916113e6565b820191906000526020600020905b8154815290600101906020018083116113c957829003601f168201915b50505050509050919050565b600060405160200161140390612709565b60405160208183030381529060405280519060200120600160003373ffffffffffffffffffffffffffffffffffffffff1673ffffffffffffffffffffffffffffffffffffffff16815260200190815260200160002060405160200161146891906126cc565b604051602081830303815290604052805190602001201461148857600080fd5b6040518060400160405280600681526020017f646f63746f720000000000000000000000000000000000000000000000000000815250600160003373ffffffffffffffffffffffffffffffffffffffff1673ffffffffffffffffffffffffffffffffffffffff1681526020019081526020016000209080519060200190611510929190611c09565b5082600260003373ffffffffffffffffffffffffffffffffffffffff1673ffffffffffffffffffffffffffffffffffffffff16815260200190815260200160002060000160006101000a81548173ffffffffffffffffffffffffffffffffffffffff021916908373ffffffffffffffffffffffffffffffffffffffff16021790555081600260003373ffffffffffffffffffffffffffffffffffffffff1673ffffffffffffffffffffffffffffffffffffffff16815260200190815260200160002060010190805190602001906115e8929190611c09565b507fe7251797390b3bf67da13c0ee0dd7d9ef534eee527bb92b1c849c4ea152ef55033604051611618919061288c565b60405180910390a16001905092915050565b606060405160200161163b906125c3565b60405160208183030381529060405280519060200120600160003373ffffffffffffffffffffffffffffffffffffffff1673ffffffffffffffffffffffffffffffffffffffff1681526020019081526020016000206040516020016116a091906126cc565b60405160208183030381529060405280519060200120146116c057600080fd5b600260008373ffffffffffffffffffffffffffffffffffffffff1673ffffffffffffffffffffffffffffffffffffffff168152602001908152602001600020600201805480602002602001604051908101604052809291908181526020016000905b828210156118ce57838290600052602060002090600302016040518060600160405290816000820160009054906101000a900473ffffffffffffffffffffffffffffffffffffffff1673ffffffffffffffffffffffffffffffffffffffff1673ffffffffffffffffffffffffffffffffffffffff1681526020016001820180546117ab90612607565b80601f01602080910402602001604051908101604052809291908181526020018280546117d790612607565b80156118245780601f106117f957610100808354040283529160200191611824565b820191906000526020600020905b81548152906001019060200180831161180757829003601f168201915b5050505050815260200160028201805461183d90612607565b80601f016020809104026020016040519081016040528092919081815260200182805461186990612607565b80156118b65780601f1061188b576101008083540402835291602001916118b6565b820191906000526020600020905b81548152906001019060200180831161189957829003601f168201915b50505050508152505081526020019060010190611722565b505050509050919050565b60006040516020016118ea906125c3565b60405160208183030381529060405280519060200120600160003373ffffffffffffffffffffffffffffffffffffffff1673ffffffffffffffffffffffffffffffffffffffff16815260200190815260200160002060405160200161194f91906126cc565b604051602081830303815290604052805190602001201461196f57600080fd5b87600360008a73ffffffffffffffffffffffffffffffffffffffff1673ffffffffffffffffffffffffffffffffffffffff16815260200190815260200160002060000160006101000a81548173ffffffffffffffffffffffffffffffffffffffff021916908373ffffffffffffffffffffffffffffffffffffffff16021790555086600360008a73ffffffffffffffffffffffffffffffffffffffff1673ffffffffffffffffffffffffffffffffffffffff1681526020019081526020016000206001019080519060200190611a46929190611c09565b5085600360008a73ffffffffffffffffffffffffffffffffffffffff1673ffffffffffffffffffffffffffffffffffffffff1681526020019081526020016000206002019080519060200190611a9d929190611c09565b5084600360008a73ffffffffffffffffffffffffffffffffffffffff1673ffffffffffffffffffffffffffffffffffffffff1681526020019081526020016000206003019080519060200190611af4929190611c09565b5083600360008a73ffffffffffffffffffffffffffffffffffffffff1673ffffffffffffffffffffffffffffffffffffffff1681526020019081526020016000206004019080519060200190611b4b929190611c09565b5082600360008a73ffffffffffffffffffffffffffffffffffffffff1673ffffffffffffffffffffffffffffffffffffffff1681526020019081526020016000206005019080519060200190611ba2929190611c09565b5081600360008a73ffffffffffffffffffffffffffffffffffffffff1673ffffffffffffffffffffffffffffffffffffffff1681526020019081526020016000206006019080519060200190611bf9929190611c09565b5060019050979650505050505050565b828054611c1590612607565b90600052602060002090601f016020900481019282611c375760008555611c7e565b82601f10611c5057805160ff1916838001178555611c7e565b82800160010185558215611c7e579182015b82811115611c7d578251825591602001919060010190611c62565b5b509050611c8b9190611db7565b5090565b604051806101000160405280600073ffffffffffffffffffffffffffffffffffffffff168152602001606081526020016060815260200160608152602001606081526020016060815260200160608152602001600081525090565b828054611cf690612607565b90600052602060002090601f016020900481019282611d185760008555611d66565b82601f10611d295780548555611d66565b82800160010185558215611d6657600052602060002091601f016020900482015b82811115611d65578254825591600101919060010190611d4a565b5b509050611d739190611db7565b5090565b508054611d8390612607565b6000825580601f10611d955750611db4565b601f016020900490600052602060002090810190611db39190611db7565b5b50565b5b80821115611dd0576000816000905550600101611db8565b5090565b6000604051905090565b600080fd5b600080fd5b600073ffffffffffffffffffffffffffffffffffffffff82169050919050565b6000611e1382611de8565b9050919050565b611e2381611e08565b8114611e2e57600080fd5b50565b600081359050611e4081611e1a565b92915050565b600080fd5b600080fd5b6000601f19601f8301169050919050565b7f4e487b7100000000000000000000000000000000000000000000000000000000600052604160045260246000fd5b611e9982611e50565b810181811067ffffffffffffffff82111715611eb857611eb7611e61565b5b80604052505050565b6000611ecb611dd4565b9050611ed78282611e90565b919050565b600067ffffffffffffffff821115611ef757611ef6611e61565b5b611f0082611e50565b9050602081019050919050565b82818337600083830152505050565b6000611f2f611f2a84611edc565b611ec1565b905082815260208101848484011115611f4b57611f4a611e4b565b5b611f56848285611f0d565b509392505050565b600082601f830112611f7357611f72611e46565b5b8135611f83848260208601611f1c565b91505092915050565b600080600080600080600060e0888a031215611fab57611faa611dde565b5b6000611fb98a828b01611e31565b975050602088013567ffffffffffffffff811115611fda57611fd9611de3565b5b611fe68a828b01611f5e565b965050604088013567ffffffffffffffff81111561200757612006611de3565b5b6120138a828b01611f5e565b955050606088013567ffffffffffffffff81111561203457612033611de3565b5b6120408a828b01611f5e565b945050608088013567ffffffffffffffff81111561206157612060611de3565b5b61206d8a828b01611f5e565b93505060a088013567ffffffffffffffff81111561208e5761208d611de3565b5b61209a8a828b01611f5e565b92505060c088013567ffffffffffffffff8111156120bb576120ba611de3565b5b6120c78a828b01611f5e565b91505092959891949750929550565b600081519050919050565b600082825260208201905092915050565b60005b838110156121105780820151818401526020810190506120f5565b8381111561211f576000848401525b50505050565b6000612130826120d6565b61213a81856120e1565b935061214a8185602086016120f2565b61215381611e50565b840191505092915050565b600060208201905081810360008301526121788184612125565b905092915050565b60008060006060848603121561219957612198611dde565b5b60006121a786828701611e31565b935050602084013567ffffffffffffffff8111156121c8576121c7611de3565b5b6121d486828701611f5e565b925050604084013567ffffffffffffffff8111156121f5576121f4611de3565b5b61220186828701611f5e565b9150509250925092565b60008115159050919050565b6122208161220b565b82525050565b600060208201905061223b6000830184612217565b92915050565b60006020828403121561225757612256611dde565b5b600061226584828501611e31565b91505092915050565b61227781611e08565b82525050565b600082825260208201905092915050565b6000612299826120d6565b6122a3818561227d565b93506122b38185602086016120f2565b6122bc81611e50565b840191505092915050565b6000819050919050565b6122da816122c7565b82525050565b6000610100830160008301516122f9600086018261226e565b5060208301518482036020860152612311828261228e565b9150506040830151848203604086015261232b828261228e565b91505060608301518482036060860152612345828261228e565b9150506080830151848203608086015261235f828261228e565b91505060a083015184820360a0860152612379828261228e565b91505060c083015184820360c0860152612393828261228e565b91505060e08301516123a860e08601826122d1565b508091505092915050565b600060208201905081810360008301526123cd81846122e0565b905092915050565b600080604083850312156123ec576123eb611dde565b5b60006123fa85828601611e31565b925050602083013567ffffffffffffffff81111561241b5761241a611de3565b5b61242785828601611f5e565b9150509250929050565b600081519050919050565b600082825260208201905092915050565b6000819050602082019050919050565b6000606083016000830151612475600086018261226e565b506020830151848203602086015261248d828261228e565b915050604083015184820360408601526124a7828261228e565b9150508091505092915050565b60006124c0838361245d565b905092915050565b6000602082019050919050565b60006124e082612431565b6124ea818561243c565b9350836020820285016124fc8561244d565b8060005b85811015612538578484038952815161251985826124b4565b9450612524836124c8565b925060208a01995050600181019050612500565b50829750879550505050505092915050565b6000602082019050818103600083015261256481846124d5565b905092915050565b600081905092915050565b7f646f63746f720000000000000000000000000000000000000000000000000000600082015250565b60006125ad60068361256c565b91506125b882612577565b600682019050919050565b60006125ce826125a0565b9150819050919050565b7f4e487b7100000000000000000000000000000000000000000000000000000000600052602260045260246000fd5b6000600282049050600182168061261f57607f821691505b602082108103612632576126316125d8565b5b50919050565b60008190508160005260206000209050919050565b6000815461265a81612607565b612664818661256c565b9450600182166000811461267f5760018114612690576126c3565b60ff198316865281860193506126c3565b61269985612638565b60005b838110156126bb5781548189015260018201915060208101905061269c565b838801955050505b50505092915050565b60006126d8828461264d565b915081905092915050565b50565b60006126f360008361256c565b91506126fe826126e3565b600082019050919050565b6000612714826126e6565b9150819050919050565b7f4e487b7100000000000000000000000000000000000000000000000000000000600052603260045260246000fd5b7f4e487b7100000000000000000000000000000000000000000000000000000000600052601160045260246000fd5b6000612787826122c7565b91507fffffffffffffffffffffffffffffffffffffffffffffffffffffffffffffffff82036127b9576127b861274d565b5b600182019050919050565b60006127cf826122c7565b91506127da836122c7565b9250828210156127ed576127ec61274d565b5b828203905092915050565b6000612803826122c7565b915061280e836122c7565b9250827fffffffffffffffffffffffffffffffffffffffffffffffffffffffffffffffff038211156128435761284261274d565b5b828201905092915050565b7f4e487b7100000000000000000000000000000000000000000000000000000000600052603160045260246000fd5b61288681611e08565b82525050565b60006020820190506128a1600083018461287d565b9291505056fea26469706673582212207e06931a0048d44b6b771a8748ae365921f5c0c1a85e46747f0f6c426ed4e66864736f6c634300080d0033",
  "immutableReferences": {},
  "source": "// SPDX-License-Identifier: MIT\npragma solidity >=0.4.22 <0.9.0;\n\ncontract HealthCare {\n\n    mapping(address => uint) authCaller;\n    mapping(address => string) userType;\n    mapping(address => Doctor) docData;\n    mapping(address => MedicalForm) mediData;\n    mapping(address => Patient) patData;\n\n    constructor() public {\n        authCaller[msg.sender] = 1;\n    }\n\n    struct Doctor {\n        address docAddr;\n        string hospital;\n        Patient[] patients;\n    }\n\n    struct Patient {\n        address patAddr;\n        string name;\n        string age;\n    }\n\n    struct MedicalForm {\n        address patientAddr;\n        string patientName;\n        string patientAge;\n        string patientWeight;\n        string patientHeight;\n        string symptom;\n        string description;\n        uint state;\n    }\n\n    // event\n    event DoctorAdd(address doctorAddr);\n    \n    // * Doctor *\n    function addDoctor(address doctorAddr, string memory _hospital) public returns(bool) {\n        require(keccak256(abi.encodePacked(userType[msg.sender]))\n        == keccak256(abi.encodePacked(\"\")));\n\n        userType[msg.sender] = 'doctor';\n        docData[msg.sender].docAddr = doctorAddr;\n        docData[msg.sender].hospital = _hospital;\n        emit DoctorAdd(msg.sender);\n        return true;\n    }\n\n    // CRUD Patient Data\n\n    // Create\n    function addPatientData(address _patientAddr, string memory _patientName, string memory _patientAge,\n    string memory _patientWeight, string memory _patientHeight, string memory _symptom, string memory _description) \n    public returns(string memory) {\n        require(keccak256(abi.encodePacked(userType[msg.sender])) == keccak256(abi.encodePacked(\"doctor\")));\n\n        mediData[_patientAddr].patientAddr = _patientAddr;\n        mediData[_patientAddr].patientName = _patientName;\n        mediData[_patientAddr].patientAge = _patientAge;\n        mediData[_patientAddr].patientWeight = _patientWeight;\n        mediData[_patientAddr].patientHeight = _patientHeight;\n        mediData[_patientAddr].symptom = _symptom;\n        mediData[_patientAddr].description = _description;\n        // CRUD state\n        mediData[_patientAddr].state = 0; \n        \n        docData[msg.sender].patients.push(Patient(_patientAddr, _patientName, _patientAge));\n        return mediData[_patientAddr].patientName;\n    }\n\n    // Read\n    function readPatientData(address _patientAddr) public view returns(MedicalForm memory) {\n        return mediData[_patientAddr];\n    }\n\n    // Update\n    function updatePatientData(address _patientAddr, string memory _patientName, string memory _patientAge,\n    string memory _patientWeight, string memory _patientHeight, string memory _symptom, string memory _description)\n    public returns(bool) {\n        require(keccak256(abi.encodePacked(userType[msg.sender])) == keccak256(abi.encodePacked(\"doctor\")));\n\n        mediData[_patientAddr].patientAddr = _patientAddr;\n        mediData[_patientAddr].patientName = _patientName;\n        mediData[_patientAddr].patientAge = _patientAge;\n        mediData[_patientAddr].patientWeight = _patientWeight;\n        mediData[_patientAddr].patientHeight = _patientHeight;\n        mediData[_patientAddr].symptom = _symptom;\n        mediData[_patientAddr].description = _description;\n\n        return true;\n    }\n\n    // Delete\n    function deletePatientData(address _patientAddr) public returns(bool) {\n        require(keccak256(abi.encodePacked(userType[msg.sender])) == keccak256(abi.encodePacked(\"doctor\")));\n\n        uint index;\n\n        for(uint i = 0; i < docData[msg.sender].patients.length; i++) {\n            if(docData[msg.sender].patients[i].patAddr == _patientAddr) {\n                index = i;\n            }\n        }\n\n        for(uint i = index; i < docData[msg.sender].patients.length - 1; i++) {\n            docData[msg.sender].patients[i] = docData[msg.sender].patients[i + 1];\n        }\n\n        docData[msg.sender].patients.pop();\n        delete mediData[_patientAddr];\n\n        return true;\n    }\n\n    // paitent\n    function addPatient(address _patAddr, string memory _name, string memory _age) public returns (bool) {\n        require(keccak256(abi.encodePacked(userType[msg.sender])) == keccak256(abi.encodePacked(\"\")));\n\n        userType[msg.sender] = \"patient\";\n        patData[msg.sender].patAddr = _patAddr;\n        patData[msg.sender].name = _name;\n        patData[msg.sender].age = _age;\n\n        return true;\n    }\n\n    // get patient list\n    function getPatientList(address _doctorAddr) view public returns (Patient[] memory){\n        require(keccak256(abi.encodePacked(userType[msg.sender])) == keccak256(abi.encodePacked(\"doctor\")));\n        return docData[_doctorAddr].patients;\n    }\n\n    // get user\n    function getUser(address userAddr) view public returns(string memory) {\n        return userType[userAddr];\n    }\n}",
  "sourcePath": "/home/inlab/Desktop/wotjr/health-care-DApp/contract/contracts/HealthCare.sol",
  "compiler": {
    "name": "solc",
    "version": "0.8.13+commit.abaa5c0e.Emscripten.clang"
  },
  "schemaVersion": "3.4.7",
  "updatedAt": "2022-05-23T04:40:10.461Z",
  "networkType": "ethereum",
  "devdoc": {
    "kind": "dev",
    "methods": {},
    "version": 1
  },
  "userdoc": {
    "kind": "user",
    "methods": {},
    "version": 1
  }
}