{
  "contractName": "HealthCare",
  "abi": [
    {
      "inputs": [],
      "stateMutability": "nonpayable",
      "type": "constructor"
    },
    {
      "anonymous": false,
      "inputs": [
        {
          "indexed": false,
          "internalType": "address",
          "name": "doctorAddr",
          "type": "address"
        }
      ],
      "name": "DoctorAdd",
      "type": "event"
    },
    {
      "inputs": [
        {
          "internalType": "address",
          "name": "doctorAddr",
          "type": "address"
        },
        {
          "internalType": "string",
          "name": "_hospital",
          "type": "string"
        }
      ],
      "name": "addDoctor",
      "outputs": [
        {
          "internalType": "bool",
          "name": "",
          "type": "bool"
        }
      ],
      "stateMutability": "nonpayable",
      "type": "function"
    },
    {
      "inputs": [
        {
          "internalType": "address",
          "name": "_patientAddr",
          "type": "address"
        },
        {
          "internalType": "string",
          "name": "_patientName",
          "type": "string"
        },
        {
          "internalType": "string",
          "name": "_patientAge",
          "type": "string"
        },
        {
          "internalType": "string",
          "name": "_patientWeight",
          "type": "string"
        },
        {
          "internalType": "string",
          "name": "_patientHeight",
          "type": "string"
        },
        {
          "internalType": "string",
          "name": "_symptom",
          "type": "string"
        },
        {
          "internalType": "string",
          "name": "_description",
          "type": "string"
        }
      ],
      "name": "addPatientData",
      "outputs": [
        {
          "components": [
            {
              "internalType": "address",
              "name": "patAddr",
              "type": "address"
            },
            {
              "internalType": "string",
              "name": "name",
              "type": "string"
            },
            {
              "internalType": "string",
              "name": "age",
              "type": "string"
            }
          ],
          "internalType": "struct HealthCare.Patient[]",
          "name": "",
          "type": "tuple[]"
        }
      ],
      "stateMutability": "nonpayable",
      "type": "function"
    },
    {
      "inputs": [
        {
          "internalType": "address",
          "name": "_patientAddr",
          "type": "address"
        }
      ],
      "name": "readPatientData",
      "outputs": [
        {
          "components": [
            {
              "internalType": "address",
              "name": "patientAddr",
              "type": "address"
            },
            {
              "internalType": "string",
              "name": "patientName",
              "type": "string"
            },
            {
              "internalType": "string",
              "name": "patientAge",
              "type": "string"
            },
            {
              "internalType": "string",
              "name": "patientWeight",
              "type": "string"
            },
            {
              "internalType": "string",
              "name": "patientHeight",
              "type": "string"
            },
            {
              "internalType": "string",
              "name": "symptom",
              "type": "string"
            },
            {
              "internalType": "string",
              "name": "description",
              "type": "string"
            },
            {
              "internalType": "uint256",
              "name": "state",
              "type": "uint256"
            }
          ],
          "internalType": "struct HealthCare.MedicalForm",
          "name": "",
          "type": "tuple"
        }
      ],
      "stateMutability": "view",
      "type": "function",
      "constant": true
    },
    {
      "inputs": [
        {
          "internalType": "address",
          "name": "_patientAddr",
          "type": "address"
        },
        {
          "internalType": "string",
          "name": "_patientName",
          "type": "string"
        },
        {
          "internalType": "string",
          "name": "_patientAge",
          "type": "string"
        },
        {
          "internalType": "string",
          "name": "_patientWeight",
          "type": "string"
        },
        {
          "internalType": "string",
          "name": "_patientHeight",
          "type": "string"
        },
        {
          "internalType": "string",
          "name": "_symptom",
          "type": "string"
        },
        {
          "internalType": "string",
          "name": "_description",
          "type": "string"
        },
        {
          "internalType": "uint256",
          "name": "index",
          "type": "uint256"
        }
      ],
      "name": "updatePatientData",
      "outputs": [
        {
          "internalType": "bool",
          "name": "",
          "type": "bool"
        }
      ],
      "stateMutability": "nonpayable",
      "type": "function"
    },
    {
      "inputs": [
        {
          "internalType": "address",
          "name": "_patientAddr",
          "type": "address"
        },
        {
          "internalType": "uint256",
          "name": "index",
          "type": "uint256"
        }
      ],
      "name": "deletePatientData",
      "outputs": [
        {
          "internalType": "bool",
          "name": "",
          "type": "bool"
        }
      ],
      "stateMutability": "nonpayable",
      "type": "function"
    },
    {
      "inputs": [],
      "name": "getPatientList",
      "outputs": [
        {
          "components": [
            {
              "internalType": "address",
              "name": "patAddr",
              "type": "address"
            },
            {
              "internalType": "string",
              "name": "name",
              "type": "string"
            },
            {
              "internalType": "string",
              "name": "age",
              "type": "string"
            }
          ],
          "internalType": "struct HealthCare.Patient[]",
          "name": "",
          "type": "tuple[]"
        }
      ],
      "stateMutability": "view",
      "type": "function",
      "constant": true
    },
    {
      "inputs": [
        {
          "internalType": "address",
          "name": "_patAddr",
          "type": "address"
        },
        {
          "internalType": "string",
          "name": "_name",
          "type": "string"
        },
        {
          "internalType": "string",
          "name": "_age",
          "type": "string"
        }
      ],
      "name": "addPatient",
      "outputs": [
        {
          "internalType": "bool",
          "name": "",
          "type": "bool"
        }
      ],
      "stateMutability": "nonpayable",
      "type": "function"
    },
    {
      "inputs": [
        {
          "internalType": "address",
          "name": "_patientAddr",
          "type": "address"
        }
      ],
      "name": "readPatientTreats",
      "outputs": [
        {
          "components": [
            {
              "internalType": "address",
              "name": "patientAddr",
              "type": "address"
            },
            {
              "internalType": "string",
              "name": "patientName",
              "type": "string"
            },
            {
              "internalType": "string",
              "name": "patientAge",
              "type": "string"
            },
            {
              "internalType": "string",
              "name": "patientWeight",
              "type": "string"
            },
            {
              "internalType": "string",
              "name": "patientHeight",
              "type": "string"
            },
            {
              "internalType": "string",
              "name": "symptom",
              "type": "string"
            },
            {
              "internalType": "string",
              "name": "description",
              "type": "string"
            },
            {
              "internalType": "uint256",
              "name": "state",
              "type": "uint256"
            }
          ],
          "internalType": "struct HealthCare.MedicalForm[]",
          "name": "",
          "type": "tuple[]"
        }
      ],
      "stateMutability": "view",
      "type": "function",
      "constant": true
    },
    {
      "inputs": [
        {
          "internalType": "address",
          "name": "userAddr",
          "type": "address"
        }
      ],
      "name": "getUser",
      "outputs": [
        {
          "internalType": "string",
          "name": "",
          "type": "string"
        }
      ],
      "stateMutability": "view",
      "type": "function",
      "constant": true
    }
  ],
  "bytecode": "0x608060405234801561001057600080fd5b5060016000803373ffffffffffffffffffffffffffffffffffffffff1673ffffffffffffffffffffffffffffffffffffffff168152602001908152602001600020819055506136f8806100646000396000f3fe608060405234801561001057600080fd5b50600436106100935760003560e01c8063627376ed11610066578063627376ed146101465780636f77926b14610176578063738d5dec146101a65780637cf1e445146101d6578063f48f4ce51461020657610093565b806330004a711461009857806337b16b50146100c85780633a25ab1d146100f8578063503b135414610128575b600080fd5b6100b260048036038101906100ad9190612a26565b610236565b6040516100bf9190612d20565b60405180910390f35b6100e260048036038101906100dd9190612d42565b6107be565b6040516100ef9190612de8565b60405180910390f35b610112600480360381019061010d9190612e03565b610a17565b60405161011f9190612f1c565b60405180910390f35b610130610e5e565b60405161013d9190612d20565b60405180910390f35b610160600480360381019061015b9190612f6a565b611108565b60405161016d9190612de8565b60405180910390f35b610190600480360381019061018b9190612e03565b611519565b60405161019d9190613112565b60405180910390f35b6101c060048036038101906101bb9190613134565b6115ea565b6040516101cd9190612de8565b60405180910390f35b6101f060048036038101906101eb9190613174565b612000565b6040516101fd9190612de8565b60405180910390f35b610220600480360381019061021b9190612e03565b612238565b60405161022d9190613365565b60405180910390f35b6060604051602001610247906133de565b60405160208183030381529060405280519060200120600160003373ffffffffffffffffffffffffffffffffffffffff1673ffffffffffffffffffffffffffffffffffffffff1681526020019081526020016000206040516020016102ac91906134e7565b60405160208183030381529060405280519060200120146102cc57600080fd5b600560008973ffffffffffffffffffffffffffffffffffffffff1673ffffffffffffffffffffffffffffffffffffffff1681526020019081526020016000206040518061010001604052808a73ffffffffffffffffffffffffffffffffffffffff1681526020018981526020018881526020018781526020018681526020018581526020018481526020016000815250908060018154018082558091505060019003906000526020600020906008020160009091909190915060008201518160000160006101000a81548173ffffffffffffffffffffffffffffffffffffffff021916908373ffffffffffffffffffffffffffffffffffffffff16021790555060208201518160010190805190602001906103e89291906126a3565b5060408201518160020190805190602001906104059291906126a3565b5060608201518160030190805190602001906104229291906126a3565b50608082015181600401908051906020019061043f9291906126a3565b5060a082015181600501908051906020019061045c9291906126a3565b5060c08201518160060190805190602001906104799291906126a3565b5060e082015181600701555050600660003373ffffffffffffffffffffffffffffffffffffffff1673ffffffffffffffffffffffffffffffffffffffff16815260200190815260200160002060405180606001604052808a73ffffffffffffffffffffffffffffffffffffffff16815260200189815260200188815250908060018154018082558091505060019003906000526020600020906003020160009091909190915060008201518160000160006101000a81548173ffffffffffffffffffffffffffffffffffffffff021916908373ffffffffffffffffffffffffffffffffffffffff16021790555060208201518160010190805190602001906105829291906126a3565b50604082015181600201908051906020019061059f9291906126a3565b505050600660003373ffffffffffffffffffffffffffffffffffffffff1673ffffffffffffffffffffffffffffffffffffffff168152602001908152602001600020805480602002602001604051908101604052809291908181526020016000905b828210156107ad57838290600052602060002090600302016040518060600160405290816000820160009054906101000a900473ffffffffffffffffffffffffffffffffffffffff1673ffffffffffffffffffffffffffffffffffffffff1673ffffffffffffffffffffffffffffffffffffffff16815260200160018201805461068a90613422565b80601f01602080910402602001604051908101604052809291908181526020018280546106b690613422565b80156107035780601f106106d857610100808354040283529160200191610703565b820191906000526020600020905b8154815290600101906020018083116106e657829003601f168201915b5050505050815260200160028201805461071c90613422565b80601f016020809104026020016040519081016040528092919081815260200182805461074890613422565b80156107955780601f1061076a57610100808354040283529160200191610795565b820191906000526020600020905b81548152906001019060200180831161077857829003601f168201915b50505050508152505081526020019060010190610601565b505050509050979650505050505050565b60006040516020016107cf90613524565b60405160208183030381529060405280519060200120600160003373ffffffffffffffffffffffffffffffffffffffff1673ffffffffffffffffffffffffffffffffffffffff16815260200190815260200160002060405160200161083491906134e7565b604051602081830303815290604052805190602001201461085457600080fd5b6040518060400160405280600781526020017f70617469656e7400000000000000000000000000000000000000000000000000815250600160003373ffffffffffffffffffffffffffffffffffffffff1673ffffffffffffffffffffffffffffffffffffffff16815260200190815260200160002090805190602001906108dc9291906126a3565b5083600460003373ffffffffffffffffffffffffffffffffffffffff1673ffffffffffffffffffffffffffffffffffffffff16815260200190815260200160002060000160006101000a81548173ffffffffffffffffffffffffffffffffffffffff021916908373ffffffffffffffffffffffffffffffffffffffff16021790555082600460003373ffffffffffffffffffffffffffffffffffffffff1673ffffffffffffffffffffffffffffffffffffffff16815260200190815260200160002060010190805190602001906109b49291906126a3565b5081600460003373ffffffffffffffffffffffffffffffffffffffff1673ffffffffffffffffffffffffffffffffffffffff1681526020019081526020016000206002019080519060200190610a0b9291906126a3565b50600190509392505050565b610a1f612729565b600560008373ffffffffffffffffffffffffffffffffffffffff1673ffffffffffffffffffffffffffffffffffffffff168152602001908152602001600020600081548110610a7157610a70613539565b5b9060005260206000209060080201604051806101000160405290816000820160009054906101000a900473ffffffffffffffffffffffffffffffffffffffff1673ffffffffffffffffffffffffffffffffffffffff1673ffffffffffffffffffffffffffffffffffffffff168152602001600182018054610af190613422565b80601f0160208091040260200160405190810160405280929190818152602001828054610b1d90613422565b8015610b6a5780601f10610b3f57610100808354040283529160200191610b6a565b820191906000526020600020905b815481529060010190602001808311610b4d57829003601f168201915b50505050508152602001600282018054610b8390613422565b80601f0160208091040260200160405190810160405280929190818152602001828054610baf90613422565b8015610bfc5780601f10610bd157610100808354040283529160200191610bfc565b820191906000526020600020905b815481529060010190602001808311610bdf57829003601f168201915b50505050508152602001600382018054610c1590613422565b80601f0160208091040260200160405190810160405280929190818152602001828054610c4190613422565b8015610c8e5780601f10610c6357610100808354040283529160200191610c8e565b820191906000526020600020905b815481529060010190602001808311610c7157829003601f168201915b50505050508152602001600482018054610ca790613422565b80601f0160208091040260200160405190810160405280929190818152602001828054610cd390613422565b8015610d205780601f10610cf557610100808354040283529160200191610d20565b820191906000526020600020905b815481529060010190602001808311610d0357829003601f168201915b50505050508152602001600582018054610d3990613422565b80601f0160208091040260200160405190810160405280929190818152602001828054610d6590613422565b8015610db25780601f10610d8757610100808354040283529160200191610db2565b820191906000526020600020905b815481529060010190602001808311610d9557829003601f168201915b50505050508152602001600682018054610dcb90613422565b80601f0160208091040260200160405190810160405280929190818152602001828054610df790613422565b8015610e445780601f10610e1957610100808354040283529160200191610e44565b820191906000526020600020905b815481529060010190602001808311610e2757829003601f168201915b505050505081526020016007820154815250509050919050565b6060604051602001610e6f906133de565b60405160208183030381529060405280519060200120600160003373ffffffffffffffffffffffffffffffffffffffff1673ffffffffffffffffffffffffffffffffffffffff168152602001908152602001600020604051602001610ed491906134e7565b6040516020818303038152906040528051906020012014610ef457600080fd5b600660003373ffffffffffffffffffffffffffffffffffffffff1673ffffffffffffffffffffffffffffffffffffffff168152602001908152602001600020805480602002602001604051908101604052809291908181526020016000905b828210156110ff57838290600052602060002090600302016040518060600160405290816000820160009054906101000a900473ffffffffffffffffffffffffffffffffffffffff1673ffffffffffffffffffffffffffffffffffffffff1673ffffffffffffffffffffffffffffffffffffffff168152602001600182018054610fdc90613422565b80601f016020809104026020016040519081016040528092919081815260200182805461100890613422565b80156110555780601f1061102a57610100808354040283529160200191611055565b820191906000526020600020905b81548152906001019060200180831161103857829003601f168201915b5050505050815260200160028201805461106e90613422565b80601f016020809104026020016040519081016040528092919081815260200182805461109a90613422565b80156110e75780601f106110bc576101008083540402835291602001916110e7565b820191906000526020600020905b8154815290600101906020018083116110ca57829003601f168201915b50505050508152505081526020019060010190610f53565b50505050905090565b6000604051602001611119906133de565b60405160208183030381529060405280519060200120600160003373ffffffffffffffffffffffffffffffffffffffff1673ffffffffffffffffffffffffffffffffffffffff16815260200190815260200160002060405160200161117e91906134e7565b604051602081830303815290604052805190602001201461119e57600080fd5b88600560008b73ffffffffffffffffffffffffffffffffffffffff1673ffffffffffffffffffffffffffffffffffffffff16815260200190815260200160002083815481106111f0576111ef613539565b5b906000526020600020906008020160000160006101000a81548173ffffffffffffffffffffffffffffffffffffffff021916908373ffffffffffffffffffffffffffffffffffffffff16021790555087600560008b73ffffffffffffffffffffffffffffffffffffffff1673ffffffffffffffffffffffffffffffffffffffff168152602001908152602001600020838154811061129157611290613539565b5b906000526020600020906008020160010190805190602001906112b59291906126a3565b5086600560008b73ffffffffffffffffffffffffffffffffffffffff1673ffffffffffffffffffffffffffffffffffffffff168152602001908152602001600020838154811061130857611307613539565b5b9060005260206000209060080201600201908051906020019061132c9291906126a3565b5085600560008b73ffffffffffffffffffffffffffffffffffffffff1673ffffffffffffffffffffffffffffffffffffffff168152602001908152602001600020838154811061137f5761137e613539565b5b906000526020600020906008020160030190805190602001906113a39291906126a3565b5084600560008b73ffffffffffffffffffffffffffffffffffffffff1673ffffffffffffffffffffffffffffffffffffffff16815260200190815260200160002083815481106113f6576113f5613539565b5b9060005260206000209060080201600401908051906020019061141a9291906126a3565b5083600560008b73ffffffffffffffffffffffffffffffffffffffff1673ffffffffffffffffffffffffffffffffffffffff168152602001908152602001600020838154811061146d5761146c613539565b5b906000526020600020906008020160050190805190602001906114919291906126a3565b5082600560008b73ffffffffffffffffffffffffffffffffffffffff1673ffffffffffffffffffffffffffffffffffffffff16815260200190815260200160002083815481106114e4576114e3613539565b5b906000526020600020906008020160060190805190602001906115089291906126a3565b506001905098975050505050505050565b6060600160008373ffffffffffffffffffffffffffffffffffffffff1673ffffffffffffffffffffffffffffffffffffffff168152602001908152602001600020805461156590613422565b80601f016020809104026020016040519081016040528092919081815260200182805461159190613422565b80156115de5780601f106115b3576101008083540402835291602001916115de565b820191906000526020600020905b8154815290600101906020018083116115c157829003601f168201915b50505050509050919050565b60006040516020016115fb906133de565b60405160208183030381529060405280519060200120600160003373ffffffffffffffffffffffffffffffffffffffff1673ffffffffffffffffffffffffffffffffffffffff16815260200190815260200160002060405160200161166091906134e7565b604051602081830303815290604052805190602001201461168057600080fd5b6000600660003373ffffffffffffffffffffffffffffffffffffffff1673ffffffffffffffffffffffffffffffffffffffff168152602001908152602001600020805490509050600660003373ffffffffffffffffffffffffffffffffffffffff1673ffffffffffffffffffffffffffffffffffffffff1681526020019081526020016000206001826117139190613597565b8154811061172457611723613539565b5b9060005260206000209060030201600660003373ffffffffffffffffffffffffffffffffffffffff1673ffffffffffffffffffffffffffffffffffffffff168152602001908152602001600020848154811061178357611782613539565b5b90600052602060002090600302016000820160009054906101000a900473ffffffffffffffffffffffffffffffffffffffff168160000160006101000a81548173ffffffffffffffffffffffffffffffffffffffff021916908373ffffffffffffffffffffffffffffffffffffffff160217905550600182018160010190805461180c90613422565b611817929190612784565b50600282018160020190805461182c90613422565b611837929190612784565b5090505060008390505b60018261184e9190613597565b8110156119dc57600660003373ffffffffffffffffffffffffffffffffffffffff1673ffffffffffffffffffffffffffffffffffffffff1681526020019081526020016000206001826118a191906135cb565b815481106118b2576118b1613539565b5b9060005260206000209060030201600660003373ffffffffffffffffffffffffffffffffffffffff1673ffffffffffffffffffffffffffffffffffffffff168152602001908152602001600020828154811061191157611910613539565b5b90600052602060002090600302016000820160009054906101000a900473ffffffffffffffffffffffffffffffffffffffff168160000160006101000a81548173ffffffffffffffffffffffffffffffffffffffff021916908373ffffffffffffffffffffffffffffffffffffffff160217905550600182018160010190805461199a90613422565b6119a5929190612784565b5060028201816002019080546119ba90613422565b6119c5929190612784565b5090505080806119d490613621565b915050611841565b50600660003373ffffffffffffffffffffffffffffffffffffffff1673ffffffffffffffffffffffffffffffffffffffff168152602001908152602001600020805480611a2c57611a2b613669565b5b6001900381819060005260206000209060030201600080820160006101000a81549073ffffffffffffffffffffffffffffffffffffffff0219169055600182016000611a789190612811565b600282016000611a889190612811565b505090556000600560008673ffffffffffffffffffffffffffffffffffffffff1673ffffffffffffffffffffffffffffffffffffffff168152602001908152602001600020805490509050600560008673ffffffffffffffffffffffffffffffffffffffff1673ffffffffffffffffffffffffffffffffffffffff168152602001908152602001600020600182611b1f9190613597565b81548110611b3057611b2f613539565b5b9060005260206000209060080201600560008773ffffffffffffffffffffffffffffffffffffffff1673ffffffffffffffffffffffffffffffffffffffff1681526020019081526020016000208581548110611b8f57611b8e613539565b5b90600052602060002090600802016000820160009054906101000a900473ffffffffffffffffffffffffffffffffffffffff168160000160006101000a81548173ffffffffffffffffffffffffffffffffffffffff021916908373ffffffffffffffffffffffffffffffffffffffff1602179055506001820181600101908054611c1890613422565b611c23929190612784565b506002820181600201908054611c3890613422565b611c43929190612784565b506003820181600301908054611c5890613422565b611c63929190612784565b506004820181600401908054611c7890613422565b611c83929190612784565b506005820181600501908054611c9890613422565b611ca3929190612784565b506006820181600601908054611cb890613422565b611cc3929190612784565b506007820154816007015590505060008490505b600182611ce49190613597565b811015611efc57600560008773ffffffffffffffffffffffffffffffffffffffff1673ffffffffffffffffffffffffffffffffffffffff168152602001908152602001600020600182611d3791906135cb565b81548110611d4857611d47613539565b5b9060005260206000209060080201600560008873ffffffffffffffffffffffffffffffffffffffff1673ffffffffffffffffffffffffffffffffffffffff1681526020019081526020016000208281548110611da757611da6613539565b5b90600052602060002090600802016000820160009054906101000a900473ffffffffffffffffffffffffffffffffffffffff168160000160006101000a81548173ffffffffffffffffffffffffffffffffffffffff021916908373ffffffffffffffffffffffffffffffffffffffff1602179055506001820181600101908054611e3090613422565b611e3b929190612784565b506002820181600201908054611e5090613422565b611e5b929190612784565b506003820181600301908054611e7090613422565b611e7b929190612784565b506004820181600401908054611e9090613422565b611e9b929190612784565b506005820181600501908054611eb090613422565b611ebb929190612784565b506006820181600601908054611ed090613422565b611edb929190612784565b50600782015481600701559050508080611ef490613621565b915050611cd7565b50600560008673ffffffffffffffffffffffffffffffffffffffff1673ffffffffffffffffffffffffffffffffffffffff168152602001908152602001600020805480611f4c57611f4b613669565b5b6001900381819060005260206000209060080201600080820160006101000a81549073ffffffffffffffffffffffffffffffffffffffff0219169055600182016000611f989190612811565b600282016000611fa89190612811565b600382016000611fb89190612811565b600482016000611fc89190612811565b600582016000611fd89190612811565b600682016000611fe89190612811565b60078201600090555050905560019250505092915050565b600060405160200161201190613524565b60405160208183030381529060405280519060200120600160003373ffffffffffffffffffffffffffffffffffffffff1673ffffffffffffffffffffffffffffffffffffffff16815260200190815260200160002060405160200161207691906134e7565b604051602081830303815290604052805190602001201461209657600080fd5b6040518060400160405280600681526020017f646f63746f720000000000000000000000000000000000000000000000000000815250600160003373ffffffffffffffffffffffffffffffffffffffff1673ffffffffffffffffffffffffffffffffffffffff168152602001908152602001600020908051906020019061211e9291906126a3565b5082600260003373ffffffffffffffffffffffffffffffffffffffff1673ffffffffffffffffffffffffffffffffffffffff16815260200190815260200160002060000160006101000a81548173ffffffffffffffffffffffffffffffffffffffff021916908373ffffffffffffffffffffffffffffffffffffffff16021790555081600260003373ffffffffffffffffffffffffffffffffffffffff1673ffffffffffffffffffffffffffffffffffffffff16815260200190815260200160002060010190805190602001906121f69291906126a3565b507fe7251797390b3bf67da13c0ee0dd7d9ef534eee527bb92b1c849c4ea152ef5503360405161222691906136a7565b60405180910390a16001905092915050565b6060600560008373ffffffffffffffffffffffffffffffffffffffff1673ffffffffffffffffffffffffffffffffffffffff168152602001908152602001600020805480602002602001604051908101604052809291908181526020016000905b828210156126985783829060005260206000209060080201604051806101000160405290816000820160009054906101000a900473ffffffffffffffffffffffffffffffffffffffff1673ffffffffffffffffffffffffffffffffffffffff1673ffffffffffffffffffffffffffffffffffffffff16815260200160018201805461232390613422565b80601f016020809104026020016040519081016040528092919081815260200182805461234f90613422565b801561239c5780601f106123715761010080835404028352916020019161239c565b820191906000526020600020905b81548152906001019060200180831161237f57829003601f168201915b505050505081526020016002820180546123b590613422565b80601f01602080910402602001604051908101604052809291908181526020018280546123e190613422565b801561242e5780601f106124035761010080835404028352916020019161242e565b820191906000526020600020905b81548152906001019060200180831161241157829003601f168201915b5050505050815260200160038201805461244790613422565b80601f016020809104026020016040519081016040528092919081815260200182805461247390613422565b80156124c05780601f10612495576101008083540402835291602001916124c0565b820191906000526020600020905b8154815290600101906020018083116124a357829003601f168201915b505050505081526020016004820180546124d990613422565b80601f016020809104026020016040519081016040528092919081815260200182805461250590613422565b80156125525780601f1061252757610100808354040283529160200191612552565b820191906000526020600020905b81548152906001019060200180831161253557829003601f168201915b5050505050815260200160058201805461256b90613422565b80601f016020809104026020016040519081016040528092919081815260200182805461259790613422565b80156125e45780601f106125b9576101008083540402835291602001916125e4565b820191906000526020600020905b8154815290600101906020018083116125c757829003601f168201915b505050505081526020016006820180546125fd90613422565b80601f016020809104026020016040519081016040528092919081815260200182805461262990613422565b80156126765780601f1061264b57610100808354040283529160200191612676565b820191906000526020600020905b81548152906001019060200180831161265957829003601f168201915b5050505050815260200160078201548152505081526020019060010190612299565b505050509050919050565b8280546126af90613422565b90600052602060002090601f0160209004810192826126d15760008555612718565b82601f106126ea57805160ff1916838001178555612718565b82800160010185558215612718579182015b828111156127175782518255916020019190600101906126fc565b5b5090506127259190612851565b5090565b604051806101000160405280600073ffffffffffffffffffffffffffffffffffffffff168152602001606081526020016060815260200160608152602001606081526020016060815260200160608152602001600081525090565b82805461279090613422565b90600052602060002090601f0160209004810192826127b25760008555612800565b82601f106127c35780548555612800565b8280016001018555821561280057600052602060002091601f016020900482015b828111156127ff5782548255916001019190600101906127e4565b5b50905061280d9190612851565b5090565b50805461281d90613422565b6000825580601f1061282f575061284e565b601f01602090049060005260206000209081019061284d9190612851565b5b50565b5b8082111561286a576000816000905550600101612852565b5090565b6000604051905090565b600080fd5b600080fd5b600073ffffffffffffffffffffffffffffffffffffffff82169050919050565b60006128ad82612882565b9050919050565b6128bd816128a2565b81146128c857600080fd5b50565b6000813590506128da816128b4565b92915050565b600080fd5b600080fd5b6000601f19601f8301169050919050565b7f4e487b7100000000000000000000000000000000000000000000000000000000600052604160045260246000fd5b612933826128ea565b810181811067ffffffffffffffff82111715612952576129516128fb565b5b80604052505050565b600061296561286e565b9050612971828261292a565b919050565b600067ffffffffffffffff821115612991576129906128fb565b5b61299a826128ea565b9050602081019050919050565b82818337600083830152505050565b60006129c96129c484612976565b61295b565b9050828152602081018484840111156129e5576129e46128e5565b5b6129f08482856129a7565b509392505050565b600082601f830112612a0d57612a0c6128e0565b5b8135612a1d8482602086016129b6565b91505092915050565b600080600080600080600060e0888a031215612a4557612a44612878565b5b6000612a538a828b016128cb565b975050602088013567ffffffffffffffff811115612a7457612a7361287d565b5b612a808a828b016129f8565b965050604088013567ffffffffffffffff811115612aa157612aa061287d565b5b612aad8a828b016129f8565b955050606088013567ffffffffffffffff811115612ace57612acd61287d565b5b612ada8a828b016129f8565b945050608088013567ffffffffffffffff811115612afb57612afa61287d565b5b612b078a828b016129f8565b93505060a088013567ffffffffffffffff811115612b2857612b2761287d565b5b612b348a828b016129f8565b92505060c088013567ffffffffffffffff811115612b5557612b5461287d565b5b612b618a828b016129f8565b91505092959891949750929550565b600081519050919050565b600082825260208201905092915050565b6000819050602082019050919050565b612ba5816128a2565b82525050565b600081519050919050565b600082825260208201905092915050565b60005b83811015612be5578082015181840152602081019050612bca565b83811115612bf4576000848401525b50505050565b6000612c0582612bab565b612c0f8185612bb6565b9350612c1f818560208601612bc7565b612c28816128ea565b840191505092915050565b6000606083016000830151612c4b6000860182612b9c565b5060208301518482036020860152612c638282612bfa565b91505060408301518482036040860152612c7d8282612bfa565b9150508091505092915050565b6000612c968383612c33565b905092915050565b6000602082019050919050565b6000612cb682612b70565b612cc08185612b7b565b935083602082028501612cd285612b8c565b8060005b85811015612d0e5784840389528151612cef8582612c8a565b9450612cfa83612c9e565b925060208a01995050600181019050612cd6565b50829750879550505050505092915050565b60006020820190508181036000830152612d3a8184612cab565b905092915050565b600080600060608486031215612d5b57612d5a612878565b5b6000612d69868287016128cb565b935050602084013567ffffffffffffffff811115612d8a57612d8961287d565b5b612d96868287016129f8565b925050604084013567ffffffffffffffff811115612db757612db661287d565b5b612dc3868287016129f8565b9150509250925092565b60008115159050919050565b612de281612dcd565b82525050565b6000602082019050612dfd6000830184612dd9565b92915050565b600060208284031215612e1957612e18612878565b5b6000612e27848285016128cb565b91505092915050565b6000819050919050565b612e4381612e30565b82525050565b600061010083016000830151612e626000860182612b9c565b5060208301518482036020860152612e7a8282612bfa565b91505060408301518482036040860152612e948282612bfa565b91505060608301518482036060860152612eae8282612bfa565b91505060808301518482036080860152612ec88282612bfa565b91505060a083015184820360a0860152612ee28282612bfa565b91505060c083015184820360c0860152612efc8282612bfa565b91505060e0830151612f1160e0860182612e3a565b508091505092915050565b60006020820190508181036000830152612f368184612e49565b905092915050565b612f4781612e30565b8114612f5257600080fd5b50565b600081359050612f6481612f3e565b92915050565b600080600080600080600080610100898b031215612f8b57612f8a612878565b5b6000612f998b828c016128cb565b985050602089013567ffffffffffffffff811115612fba57612fb961287d565b5b612fc68b828c016129f8565b975050604089013567ffffffffffffffff811115612fe757612fe661287d565b5b612ff38b828c016129f8565b965050606089013567ffffffffffffffff8111156130145761301361287d565b5b6130208b828c016129f8565b955050608089013567ffffffffffffffff8111156130415761304061287d565b5b61304d8b828c016129f8565b94505060a089013567ffffffffffffffff81111561306e5761306d61287d565b5b61307a8b828c016129f8565b93505060c089013567ffffffffffffffff81111561309b5761309a61287d565b5b6130a78b828c016129f8565b92505060e06130b88b828c01612f55565b9150509295985092959890939650565b600082825260208201905092915050565b60006130e482612bab565b6130ee81856130c8565b93506130fe818560208601612bc7565b613107816128ea565b840191505092915050565b6000602082019050818103600083015261312c81846130d9565b905092915050565b6000806040838503121561314b5761314a612878565b5b6000613159858286016128cb565b925050602061316a85828601612f55565b9150509250929050565b6000806040838503121561318b5761318a612878565b5b6000613199858286016128cb565b925050602083013567ffffffffffffffff8111156131ba576131b961287d565b5b6131c6858286016129f8565b9150509250929050565b600081519050919050565b600082825260208201905092915050565b6000819050602082019050919050565b6000610100830160008301516132156000860182612b9c565b506020830151848203602086015261322d8282612bfa565b915050604083015184820360408601526132478282612bfa565b915050606083015184820360608601526132618282612bfa565b9150506080830151848203608086015261327b8282612bfa565b91505060a083015184820360a08601526132958282612bfa565b91505060c083015184820360c08601526132af8282612bfa565b91505060e08301516132c460e0860182612e3a565b508091505092915050565b60006132db83836131fc565b905092915050565b6000602082019050919050565b60006132fb826131d0565b61330581856131db565b935083602082028501613317856131ec565b8060005b85811015613353578484038952815161333485826132cf565b945061333f836132e3565b925060208a0199505060018101905061331b565b50829750879550505050505092915050565b6000602082019050818103600083015261337f81846132f0565b905092915050565b600081905092915050565b7f646f63746f720000000000000000000000000000000000000000000000000000600082015250565b60006133c8600683613387565b91506133d382613392565b600682019050919050565b60006133e9826133bb565b9150819050919050565b7f4e487b7100000000000000000000000000000000000000000000000000000000600052602260045260246000fd5b6000600282049050600182168061343a57607f821691505b60208210810361344d5761344c6133f3565b5b50919050565b60008190508160005260206000209050919050565b6000815461347581613422565b61347f8186613387565b9450600182166000811461349a57600181146134ab576134de565b60ff198316865281860193506134de565b6134b485613453565b60005b838110156134d6578154818901526001820191506020810190506134b7565b838801955050505b50505092915050565b60006134f38284613468565b915081905092915050565b50565b600061350e600083613387565b9150613519826134fe565b600082019050919050565b600061352f82613501565b9150819050919050565b7f4e487b7100000000000000000000000000000000000000000000000000000000600052603260045260246000fd5b7f4e487b7100000000000000000000000000000000000000000000000000000000600052601160045260246000fd5b60006135a282612e30565b91506135ad83612e30565b9250828210156135c0576135bf613568565b5b828203905092915050565b60006135d682612e30565b91506135e183612e30565b9250827fffffffffffffffffffffffffffffffffffffffffffffffffffffffffffffffff0382111561361657613615613568565b5b828201905092915050565b600061362c82612e30565b91507fffffffffffffffffffffffffffffffffffffffffffffffffffffffffffffffff820361365e5761365d613568565b5b600182019050919050565b7f4e487b7100000000000000000000000000000000000000000000000000000000600052603160045260246000fd5b6136a1816128a2565b82525050565b60006020820190506136bc6000830184613698565b9291505056fea2646970667358221220093639222e6659ed9a13756f4ad0abdb3302dcb2ba0ac8feac3295316122804b64736f6c634300080d0033",
  "immutableReferences": {},
  "source": "// SPDX-License-Identifier: MIT\npragma solidity >=0.4.22 <0.9.0;\n\ncontract HealthCare {\n\n    mapping(address => uint) authCaller;\n    mapping(address => string) userType;\n    mapping(address => Doctor) docData;\n    mapping(address => MedicalForm) mediData;\n    mapping(address => Patient) patData;\n    mapping(address => MedicalForm[]) treatments;\n    mapping(address => Patient[]) patientList;\n\n    constructor() public {\n        authCaller[msg.sender] = 1;\n    }\n\n    struct Doctor {\n        address docAddr;\n        string hospital;\n    }\n\n    struct Patient {\n        address patAddr;\n        string name;\n        string age;\n    }\n\n    struct MedicalForm {\n        address patientAddr;\n        string patientName;\n        string patientAge;\n        string patientWeight;\n        string patientHeight;\n        string symptom;\n        string description;\n        uint state;\n    }\n\n    // event\n    event DoctorAdd(address doctorAddr);\n    \n    // * Doctor *\n    function addDoctor(address doctorAddr, string memory _hospital) public returns(bool) {\n        require(keccak256(abi.encodePacked(userType[msg.sender]))\n        == keccak256(abi.encodePacked(\"\")));\n\n        userType[msg.sender] = 'doctor';\n        docData[msg.sender].docAddr = doctorAddr;\n        docData[msg.sender].hospital = _hospital;\n        emit DoctorAdd(msg.sender);\n        return true;\n    }\n\n    // CRUD Patient Data\n\n    // Create\n    function addPatientData(address _patientAddr, string memory _patientName, string memory _patientAge,\n    string memory _patientWeight, string memory _patientHeight, string memory _symptom, string memory _description) \n    public returns(Patient[] memory) {\n        require(keccak256(abi.encodePacked(userType[msg.sender])) == keccak256(abi.encodePacked(\"doctor\")));\n\n        treatments[_patientAddr].push(MedicalForm(_patientAddr, _patientName, _patientAge, _patientWeight, _patientHeight,\n        _symptom, _description, 0));\n\n        patientList[msg.sender].push(Patient(_patientAddr, _patientName, _patientAge));\n        return patientList[msg.sender];\n    }\n\n    // Read\n    function readPatientData(address _patientAddr) public view returns(MedicalForm memory) {\n        return treatments[_patientAddr][0];\n    }\n\n    // Update\n    function updatePatientData(address _patientAddr, string memory _patientName, string memory _patientAge,\n    string memory _patientWeight, string memory _patientHeight, string memory _symptom, string memory _description, uint index)\n    public returns(bool) {\n        require(keccak256(abi.encodePacked(userType[msg.sender])) == keccak256(abi.encodePacked(\"doctor\")));\n\n        treatments[_patientAddr][index].patientAddr = _patientAddr;\n        treatments[_patientAddr][index].patientName = _patientName;\n        treatments[_patientAddr][index].patientAge = _patientAge;\n        treatments[_patientAddr][index].patientWeight = _patientWeight;\n        treatments[_patientAddr][index].patientHeight = _patientHeight;\n        treatments[_patientAddr][index].symptom = _symptom;\n        treatments[_patientAddr][index].description = _description;\n\n        return true;\n    }\n\n    // Delete\n    function deletePatientData(address _patientAddr, uint index) public returns(bool) {\n        require(keccak256(abi.encodePacked(userType[msg.sender])) == keccak256(abi.encodePacked(\"doctor\")));\n\n        uint patSize = patientList[msg.sender].length;\n\n        patientList[msg.sender][index] = patientList[msg.sender][patSize - 1];\n\n        for(uint i = index; i < patSize - 1; i++) {\n            patientList[msg.sender][i] = patientList[msg.sender][i + 1];\n        }\n\n        patientList[msg.sender].pop();\n\n        uint treatSize = treatments[_patientAddr].length;\n\n        treatments[_patientAddr][index] = treatments[_patientAddr][treatSize - 1];\n        \n        for(uint i = index; i < treatSize - 1; i++) {\n            treatments[_patientAddr][i] = treatments[_patientAddr][i + 1];\n        }\n\n        treatments[_patientAddr].pop();\n        return true;\n    }\n\n    // get patient list\n    function getPatientList() view public returns (Patient[] memory){\n        require(keccak256(abi.encodePacked(userType[msg.sender])) == keccak256(abi.encodePacked(\"doctor\")));\n        return patientList[msg.sender];\n    }\n\n    // paitent\n    function addPatient(address _patAddr, string memory _name, string memory _age) public returns (bool) {\n        require(keccak256(abi.encodePacked(userType[msg.sender])) == keccak256(abi.encodePacked(\"\")));\n\n        userType[msg.sender] = \"patient\";\n        patData[msg.sender].patAddr = _patAddr;\n        patData[msg.sender].name = _name;\n        patData[msg.sender].age = _age;\n\n        return true;\n    }\n\n    // Read Test \n    function readPatientTreats(address _patientAddr) public view returns(MedicalForm[] memory) {\n        return treatments[_patientAddr];\n    }\n\n    // get user\n    function getUser(address userAddr) view public returns(string memory) {\n        return userType[userAddr];\n    }\n}",
  "sourcePath": "/home/inlab/Desktop/wotjr/health-care-DApp/contract/contracts/HealthCare.sol",
  "compiler": {
    "name": "solc",
    "version": "0.8.13+commit.abaa5c0e.Emscripten.clang"
  },
  "schemaVersion": "3.4.7",
  "updatedAt": "2022-05-25T09:11:38.244Z",
  "networkType": "ethereum",
  "devdoc": {
    "kind": "dev",
    "methods": {},
    "version": 1
  },
  "userdoc": {
    "kind": "user",
    "methods": {},
    "version": 1
  }
}