{
  "contractName": "HealthCare",
  "abi": [
    {
      "inputs": [],
      "stateMutability": "nonpayable",
      "type": "constructor"
    },
    {
      "anonymous": false,
      "inputs": [
        {
          "indexed": false,
          "internalType": "address",
          "name": "doctorAddr",
          "type": "address"
        }
      ],
      "name": "DoctorAdd",
      "type": "event"
    },
    {
      "inputs": [
        {
          "internalType": "address",
          "name": "doctorAddr",
          "type": "address"
        },
        {
          "internalType": "string",
          "name": "_hospital",
          "type": "string"
        }
      ],
      "name": "addDoctor",
      "outputs": [
        {
          "internalType": "bool",
          "name": "",
          "type": "bool"
        }
      ],
      "stateMutability": "nonpayable",
      "type": "function"
    },
    {
      "inputs": [
        {
          "internalType": "address",
          "name": "_patientAddr",
          "type": "address"
        },
        {
          "internalType": "string",
          "name": "_patientName",
          "type": "string"
        },
        {
          "internalType": "string",
          "name": "_patientAge",
          "type": "string"
        },
        {
          "internalType": "string",
          "name": "_patientWeight",
          "type": "string"
        },
        {
          "internalType": "string",
          "name": "_patientHeight",
          "type": "string"
        },
        {
          "internalType": "string",
          "name": "_symptom",
          "type": "string"
        },
        {
          "internalType": "string",
          "name": "_description",
          "type": "string"
        }
      ],
      "name": "addPatientData",
      "outputs": [
        {
          "internalType": "string",
          "name": "",
          "type": "string"
        }
      ],
      "stateMutability": "nonpayable",
      "type": "function"
    },
    {
      "inputs": [
        {
          "internalType": "address",
          "name": "userAddr",
          "type": "address"
        }
      ],
      "name": "getUser",
      "outputs": [
        {
          "internalType": "string",
          "name": "",
          "type": "string"
        }
      ],
      "stateMutability": "view",
      "type": "function",
      "constant": true
    }
  ],
  "bytecode": "0x608060405234801561001057600080fd5b5060016000803373ffffffffffffffffffffffffffffffffffffffff1673ffffffffffffffffffffffffffffffffffffffff16815260200190815260200160002081905550610ef8806100646000396000f3fe608060405234801561001057600080fd5b50600436106100415760003560e01c806330004a71146100465780636f77926b146100765780637cf1e445146100a6575b600080fd5b610060600480360381019061005b9190610a33565b6100d6565b60405161006d9190610c05565b60405180910390f35b610090600480360381019061008b9190610c27565b6104cf565b60405161009d9190610c05565b60405180910390f35b6100c060048036038101906100bb9190610c54565b6105a0565b6040516100cd9190610ccb565b60405180910390f35b60606040516020016100e790610d3d565b60405160208183030381529060405280519060200120600160003373ffffffffffffffffffffffffffffffffffffffff1673ffffffffffffffffffffffffffffffffffffffff16815260200190815260200160002060405160200161014c9190610e46565b604051602081830303815290604052805190602001201461016c57600080fd5b87600360008a73ffffffffffffffffffffffffffffffffffffffff1673ffffffffffffffffffffffffffffffffffffffff16815260200190815260200160002060000160006101000a81548173ffffffffffffffffffffffffffffffffffffffff021916908373ffffffffffffffffffffffffffffffffffffffff16021790555086600360008a73ffffffffffffffffffffffffffffffffffffffff1673ffffffffffffffffffffffffffffffffffffffff16815260200190815260200160002060010190805190602001906102439291906107d8565b5085600360008a73ffffffffffffffffffffffffffffffffffffffff1673ffffffffffffffffffffffffffffffffffffffff168152602001908152602001600020600201908051906020019061029a9291906107d8565b5084600360008a73ffffffffffffffffffffffffffffffffffffffff1673ffffffffffffffffffffffffffffffffffffffff16815260200190815260200160002060030190805190602001906102f19291906107d8565b5083600360008a73ffffffffffffffffffffffffffffffffffffffff1673ffffffffffffffffffffffffffffffffffffffff16815260200190815260200160002060040190805190602001906103489291906107d8565b5082600360008a73ffffffffffffffffffffffffffffffffffffffff1673ffffffffffffffffffffffffffffffffffffffff168152602001908152602001600020600501908051906020019061039f9291906107d8565b5081600360008a73ffffffffffffffffffffffffffffffffffffffff1673ffffffffffffffffffffffffffffffffffffffff16815260200190815260200160002060060190805190602001906103f69291906107d8565b50600360008973ffffffffffffffffffffffffffffffffffffffff1673ffffffffffffffffffffffffffffffffffffffff168152602001908152602001600020600101805461044490610d81565b80601f016020809104026020016040519081016040528092919081815260200182805461047090610d81565b80156104bd5780601f10610492576101008083540402835291602001916104bd565b820191906000526020600020905b8154815290600101906020018083116104a057829003601f168201915b50505050509050979650505050505050565b6060600160008373ffffffffffffffffffffffffffffffffffffffff1673ffffffffffffffffffffffffffffffffffffffff168152602001908152602001600020805461051b90610d81565b80601f016020809104026020016040519081016040528092919081815260200182805461054790610d81565b80156105945780601f1061056957610100808354040283529160200191610594565b820191906000526020600020905b81548152906001019060200180831161057757829003601f168201915b50505050509050919050565b60006040516020016105b190610e83565b60405160208183030381529060405280519060200120600160003373ffffffffffffffffffffffffffffffffffffffff1673ffffffffffffffffffffffffffffffffffffffff1681526020019081526020016000206040516020016106169190610e46565b604051602081830303815290604052805190602001201461063657600080fd5b6040518060400160405280600681526020017f646f63746f720000000000000000000000000000000000000000000000000000815250600160003373ffffffffffffffffffffffffffffffffffffffff1673ffffffffffffffffffffffffffffffffffffffff16815260200190815260200160002090805190602001906106be9291906107d8565b5082600260003373ffffffffffffffffffffffffffffffffffffffff1673ffffffffffffffffffffffffffffffffffffffff16815260200190815260200160002060000160006101000a81548173ffffffffffffffffffffffffffffffffffffffff021916908373ffffffffffffffffffffffffffffffffffffffff16021790555081600260003373ffffffffffffffffffffffffffffffffffffffff1673ffffffffffffffffffffffffffffffffffffffff16815260200190815260200160002060010190805190602001906107969291906107d8565b507fe7251797390b3bf67da13c0ee0dd7d9ef534eee527bb92b1c849c4ea152ef550336040516107c69190610ea7565b60405180910390a16001905092915050565b8280546107e490610d81565b90600052602060002090601f016020900481019282610806576000855561084d565b82601f1061081f57805160ff191683800117855561084d565b8280016001018555821561084d579182015b8281111561084c578251825591602001919060010190610831565b5b50905061085a919061085e565b5090565b5b8082111561087757600081600090555060010161085f565b5090565b6000604051905090565b600080fd5b600080fd5b600073ffffffffffffffffffffffffffffffffffffffff82169050919050565b60006108ba8261088f565b9050919050565b6108ca816108af565b81146108d557600080fd5b50565b6000813590506108e7816108c1565b92915050565b600080fd5b600080fd5b6000601f19601f8301169050919050565b7f4e487b7100000000000000000000000000000000000000000000000000000000600052604160045260246000fd5b610940826108f7565b810181811067ffffffffffffffff8211171561095f5761095e610908565b5b80604052505050565b600061097261087b565b905061097e8282610937565b919050565b600067ffffffffffffffff82111561099e5761099d610908565b5b6109a7826108f7565b9050602081019050919050565b82818337600083830152505050565b60006109d66109d184610983565b610968565b9050828152602081018484840111156109f2576109f16108f2565b5b6109fd8482856109b4565b509392505050565b600082601f830112610a1a57610a196108ed565b5b8135610a2a8482602086016109c3565b91505092915050565b600080600080600080600060e0888a031215610a5257610a51610885565b5b6000610a608a828b016108d8565b975050602088013567ffffffffffffffff811115610a8157610a8061088a565b5b610a8d8a828b01610a05565b965050604088013567ffffffffffffffff811115610aae57610aad61088a565b5b610aba8a828b01610a05565b955050606088013567ffffffffffffffff811115610adb57610ada61088a565b5b610ae78a828b01610a05565b945050608088013567ffffffffffffffff811115610b0857610b0761088a565b5b610b148a828b01610a05565b93505060a088013567ffffffffffffffff811115610b3557610b3461088a565b5b610b418a828b01610a05565b92505060c088013567ffffffffffffffff811115610b6257610b6161088a565b5b610b6e8a828b01610a05565b91505092959891949750929550565b600081519050919050565b600082825260208201905092915050565b60005b83811015610bb7578082015181840152602081019050610b9c565b83811115610bc6576000848401525b50505050565b6000610bd782610b7d565b610be18185610b88565b9350610bf1818560208601610b99565b610bfa816108f7565b840191505092915050565b60006020820190508181036000830152610c1f8184610bcc565b905092915050565b600060208284031215610c3d57610c3c610885565b5b6000610c4b848285016108d8565b91505092915050565b60008060408385031215610c6b57610c6a610885565b5b6000610c79858286016108d8565b925050602083013567ffffffffffffffff811115610c9a57610c9961088a565b5b610ca685828601610a05565b9150509250929050565b60008115159050919050565b610cc581610cb0565b82525050565b6000602082019050610ce06000830184610cbc565b92915050565b600081905092915050565b7f646f63746f720000000000000000000000000000000000000000000000000000600082015250565b6000610d27600683610ce6565b9150610d3282610cf1565b600682019050919050565b6000610d4882610d1a565b9150819050919050565b7f4e487b7100000000000000000000000000000000000000000000000000000000600052602260045260246000fd5b60006002820490506001821680610d9957607f821691505b602082108103610dac57610dab610d52565b5b50919050565b60008190508160005260206000209050919050565b60008154610dd481610d81565b610dde8186610ce6565b94506001821660008114610df95760018114610e0a57610e3d565b60ff19831686528186019350610e3d565b610e1385610db2565b60005b83811015610e3557815481890152600182019150602081019050610e16565b838801955050505b50505092915050565b6000610e528284610dc7565b915081905092915050565b50565b6000610e6d600083610ce6565b9150610e7882610e5d565b600082019050919050565b6000610e8e82610e60565b9150819050919050565b610ea1816108af565b82525050565b6000602082019050610ebc6000830184610e98565b9291505056fea26469706673582212204030ef70d9ba697cefa4add3b8a8db39d6605be2089a56371215a67ae8c5a12964736f6c634300080d0033",
  "immutableReferences": {},
  "source": "// SPDX-License-Identifier: MIT\npragma solidity >=0.4.22 <0.9.0;\n\ncontract HealthCare {\n\n    mapping(address => uint) authCaller;\n    mapping(address => string) userType;\n    mapping(address => Doctor) docData;\n    mapping(address => MedicalForm) mediData;\n\n    constructor() public {\n        authCaller[msg.sender] = 1;\n    }\n\n    struct Doctor {\n        address docAddr;\n        string hospital;\n    }\n\n    struct MedicalForm {\n        address patientAddr;\n        string patientName;\n        string patientAge;\n        string patientWeight;\n        string patientHeight;\n        string symptom;\n        string description;\n    }\n\n    // event\n    event DoctorAdd(address doctorAddr);\n    \n    // * Doctor *\n    function addDoctor(address doctorAddr, string memory _hospital) public returns(bool) {\n        require(keccak256(abi.encodePacked(userType[msg.sender]))\n        == keccak256(abi.encodePacked(\"\")));\n\n        userType[msg.sender] = 'doctor';\n        docData[msg.sender].docAddr = doctorAddr;\n        docData[msg.sender].hospital = _hospital;\n        emit DoctorAdd(msg.sender);\n        return true;\n    }\n\n    function addPatientData(address _patientAddr, string memory _patientName, string memory _patientAge,\n    string memory _patientWeight, string memory _patientHeight, string memory _symptom, string memory _description) \n    public returns(string memory) {\n        require(keccak256(abi.encodePacked(userType[msg.sender]))\n        == keccak256(abi.encodePacked(\"doctor\")));\n\n        mediData[_patientAddr].patientAddr = _patientAddr;\n        mediData[_patientAddr].patientName = _patientName;\n        mediData[_patientAddr].patientAge = _patientAge;\n        mediData[_patientAddr].patientWeight = _patientWeight;\n        mediData[_patientAddr].patientHeight = _patientHeight;\n        mediData[_patientAddr].symptom = _symptom;\n        mediData[_patientAddr].description = _description;\n    \n        return mediData[_patientAddr].patientName;\n    }\n\n    // get User\n    function getUser(address userAddr) view public returns(string memory) {\n        return userType[userAddr];\n    }\n}",
  "sourcePath": "/home/inlab/Desktop/wotjr/health-care-DApp/contract/contracts/HealthCare.sol",
  "compiler": {
    "name": "solc",
    "version": "0.8.13+commit.abaa5c0e.Emscripten.clang"
  },
  "schemaVersion": "3.4.7",
  "updatedAt": "2022-05-16T05:40:03.801Z",
  "networkType": "ethereum",
  "devdoc": {
    "kind": "dev",
    "methods": {},
    "version": 1
  },
  "userdoc": {
    "kind": "user",
    "methods": {},
    "version": 1
  }
}