{
  "contractName": "HealthCare",
  "abi": [
    {
      "inputs": [],
      "stateMutability": "nonpayable",
      "type": "constructor"
    },
    {
      "anonymous": false,
      "inputs": [
        {
          "indexed": false,
          "internalType": "address",
          "name": "doctorAddr",
          "type": "address"
        }
      ],
      "name": "DoctorAdd",
      "type": "event"
    },
    {
      "inputs": [
        {
          "internalType": "address",
          "name": "doctorAddr",
          "type": "address"
        },
        {
          "internalType": "string",
          "name": "_hospital",
          "type": "string"
        }
      ],
      "name": "addDoctor",
      "outputs": [
        {
          "internalType": "bool",
          "name": "",
          "type": "bool"
        }
      ],
      "stateMutability": "nonpayable",
      "type": "function"
    },
    {
      "inputs": [
        {
          "internalType": "address",
          "name": "_patientAddr",
          "type": "address"
        },
        {
          "internalType": "string",
          "name": "_patientName",
          "type": "string"
        },
        {
          "internalType": "string",
          "name": "_patientAge",
          "type": "string"
        },
        {
          "internalType": "string",
          "name": "_patientWeight",
          "type": "string"
        },
        {
          "internalType": "string",
          "name": "_patientHeight",
          "type": "string"
        },
        {
          "internalType": "string",
          "name": "_symptom",
          "type": "string"
        },
        {
          "internalType": "string",
          "name": "_description",
          "type": "string"
        }
      ],
      "name": "addPatientData",
      "outputs": [
        {
          "internalType": "string",
          "name": "",
          "type": "string"
        }
      ],
      "stateMutability": "nonpayable",
      "type": "function"
    },
    {
      "inputs": [
        {
          "internalType": "address",
          "name": "_patientAddr",
          "type": "address"
        }
      ],
      "name": "readPatientData",
      "outputs": [
        {
          "components": [
            {
              "internalType": "address",
              "name": "patientAddr",
              "type": "address"
            },
            {
              "internalType": "string",
              "name": "patientName",
              "type": "string"
            },
            {
              "internalType": "string",
              "name": "patientAge",
              "type": "string"
            },
            {
              "internalType": "string",
              "name": "patientWeight",
              "type": "string"
            },
            {
              "internalType": "string",
              "name": "patientHeight",
              "type": "string"
            },
            {
              "internalType": "string",
              "name": "symptom",
              "type": "string"
            },
            {
              "internalType": "string",
              "name": "description",
              "type": "string"
            }
          ],
          "internalType": "struct HealthCare.MedicalForm",
          "name": "",
          "type": "tuple"
        }
      ],
      "stateMutability": "view",
      "type": "function",
      "constant": true
    },
    {
      "inputs": [
        {
          "internalType": "address",
          "name": "_patientAddr",
          "type": "address"
        },
        {
          "internalType": "string",
          "name": "_patientName",
          "type": "string"
        },
        {
          "internalType": "string",
          "name": "_patientAge",
          "type": "string"
        },
        {
          "internalType": "string",
          "name": "_patientWeight",
          "type": "string"
        },
        {
          "internalType": "string",
          "name": "_patientHeight",
          "type": "string"
        },
        {
          "internalType": "string",
          "name": "_symptom",
          "type": "string"
        },
        {
          "internalType": "string",
          "name": "_description",
          "type": "string"
        }
      ],
      "name": "updatePatientData",
      "outputs": [
        {
          "internalType": "bool",
          "name": "",
          "type": "bool"
        }
      ],
      "stateMutability": "nonpayable",
      "type": "function"
    },
    {
      "inputs": [
        {
          "internalType": "address",
          "name": "_patientAddr",
          "type": "address"
        }
      ],
      "name": "deletePatientData",
      "outputs": [
        {
          "internalType": "bool",
          "name": "",
          "type": "bool"
        }
      ],
      "stateMutability": "nonpayable",
      "type": "function"
    },
    {
      "inputs": [],
      "name": "getPatientList",
      "outputs": [
        {
          "internalType": "address[]",
          "name": "",
          "type": "address[]"
        }
      ],
      "stateMutability": "view",
      "type": "function",
      "constant": true
    },
    {
      "inputs": [
        {
          "internalType": "address",
          "name": "userAddr",
          "type": "address"
        }
      ],
      "name": "getUser",
      "outputs": [
        {
          "internalType": "string",
          "name": "",
          "type": "string"
        }
      ],
      "stateMutability": "view",
      "type": "function",
      "constant": true
    }
  ],
  "bytecode": "0x608060405234801561001057600080fd5b5060016000803373ffffffffffffffffffffffffffffffffffffffff1673ffffffffffffffffffffffffffffffffffffffff16815260200190815260200160002081905550611d38806100646000396000f3fe608060405234801561001057600080fd5b506004361061007d5760003560e01c8063503b13541161005b578063503b1354146101125780636f77926b146101305780637cf1e44514610160578063b7cca9e8146101905761007d565b806330004a71146100825780633a25ab1d146100b257806346a25189146100e2575b600080fd5b61009c60048036038101906100979190611668565b6101c0565b6040516100a9919061183a565b60405180910390f35b6100cc60048036038101906100c7919061185c565b61065c565b6040516100d991906119a1565b60405180910390f35b6100fc60048036038101906100f7919061185c565b610a77565b60405161010991906119de565b60405180910390f35b61011a610bdf565b6040516101279190611aa8565b60405180910390f35b61014a6004803603810190610145919061185c565b610d41565b604051610157919061183a565b60405180910390f35b61017a60048036038101906101759190611aca565b610e12565b60405161018791906119de565b60405180910390f35b6101aa60048036038101906101a59190611668565b61104a565b6040516101b791906119de565b60405180910390f35b60606040516020016101d190611b7d565b60405160208183030381529060405280519060200120600160003373ffffffffffffffffffffffffffffffffffffffff1673ffffffffffffffffffffffffffffffffffffffff1681526020019081526020016000206040516020016102369190611c86565b604051602081830303815290604052805190602001201461025657600080fd5b87600360008a73ffffffffffffffffffffffffffffffffffffffff1673ffffffffffffffffffffffffffffffffffffffff16815260200190815260200160002060000160006101000a81548173ffffffffffffffffffffffffffffffffffffffff021916908373ffffffffffffffffffffffffffffffffffffffff16021790555086600360008a73ffffffffffffffffffffffffffffffffffffffff1673ffffffffffffffffffffffffffffffffffffffff168152602001908152602001600020600101908051906020019061032d92919061137a565b5085600360008a73ffffffffffffffffffffffffffffffffffffffff1673ffffffffffffffffffffffffffffffffffffffff168152602001908152602001600020600201908051906020019061038492919061137a565b5084600360008a73ffffffffffffffffffffffffffffffffffffffff1673ffffffffffffffffffffffffffffffffffffffff16815260200190815260200160002060030190805190602001906103db92919061137a565b5083600360008a73ffffffffffffffffffffffffffffffffffffffff1673ffffffffffffffffffffffffffffffffffffffff168152602001908152602001600020600401908051906020019061043292919061137a565b5082600360008a73ffffffffffffffffffffffffffffffffffffffff1673ffffffffffffffffffffffffffffffffffffffff168152602001908152602001600020600501908051906020019061048992919061137a565b5081600360008a73ffffffffffffffffffffffffffffffffffffffff1673ffffffffffffffffffffffffffffffffffffffff16815260200190815260200160002060060190805190602001906104e092919061137a565b50600260003373ffffffffffffffffffffffffffffffffffffffff1673ffffffffffffffffffffffffffffffffffffffff168152602001908152602001600020600201889080600181540180825580915050600190039060005260206000200160009091909190916101000a81548173ffffffffffffffffffffffffffffffffffffffff021916908373ffffffffffffffffffffffffffffffffffffffff160217905550600360008973ffffffffffffffffffffffffffffffffffffffff1673ffffffffffffffffffffffffffffffffffffffff16815260200190815260200160002060010180546105d190611bc1565b80601f01602080910402602001604051908101604052809291908181526020018280546105fd90611bc1565b801561064a5780601f1061061f5761010080835404028352916020019161064a565b820191906000526020600020905b81548152906001019060200180831161062d57829003601f168201915b50505050509050979650505050505050565b610664611400565b600360008373ffffffffffffffffffffffffffffffffffffffff1673ffffffffffffffffffffffffffffffffffffffff1681526020019081526020016000206040518060e00160405290816000820160009054906101000a900473ffffffffffffffffffffffffffffffffffffffff1673ffffffffffffffffffffffffffffffffffffffff1673ffffffffffffffffffffffffffffffffffffffff16815260200160018201805461071490611bc1565b80601f016020809104026020016040519081016040528092919081815260200182805461074090611bc1565b801561078d5780601f106107625761010080835404028352916020019161078d565b820191906000526020600020905b81548152906001019060200180831161077057829003601f168201915b505050505081526020016002820180546107a690611bc1565b80601f01602080910402602001604051908101604052809291908181526020018280546107d290611bc1565b801561081f5780601f106107f45761010080835404028352916020019161081f565b820191906000526020600020905b81548152906001019060200180831161080257829003601f168201915b5050505050815260200160038201805461083890611bc1565b80601f016020809104026020016040519081016040528092919081815260200182805461086490611bc1565b80156108b15780601f10610886576101008083540402835291602001916108b1565b820191906000526020600020905b81548152906001019060200180831161089457829003601f168201915b505050505081526020016004820180546108ca90611bc1565b80601f01602080910402602001604051908101604052809291908181526020018280546108f690611bc1565b80156109435780601f1061091857610100808354040283529160200191610943565b820191906000526020600020905b81548152906001019060200180831161092657829003601f168201915b5050505050815260200160058201805461095c90611bc1565b80601f016020809104026020016040519081016040528092919081815260200182805461098890611bc1565b80156109d55780601f106109aa576101008083540402835291602001916109d5565b820191906000526020600020905b8154815290600101906020018083116109b857829003601f168201915b505050505081526020016006820180546109ee90611bc1565b80601f0160208091040260200160405190810160405280929190818152602001828054610a1a90611bc1565b8015610a675780601f10610a3c57610100808354040283529160200191610a67565b820191906000526020600020905b815481529060010190602001808311610a4a57829003601f168201915b5050505050815250509050919050565b6000604051602001610a8890611b7d565b60405160208183030381529060405280519060200120600160003373ffffffffffffffffffffffffffffffffffffffff1673ffffffffffffffffffffffffffffffffffffffff168152602001908152602001600020604051602001610aed9190611c86565b6040516020818303038152906040528051906020012014610b0d57600080fd5b600360008373ffffffffffffffffffffffffffffffffffffffff1673ffffffffffffffffffffffffffffffffffffffff168152602001908152602001600020600080820160006101000a81549073ffffffffffffffffffffffffffffffffffffffff0219169055600182016000610b849190611453565b600282016000610b949190611453565b600382016000610ba49190611453565b600482016000610bb49190611453565b600582016000610bc49190611453565b600682016000610bd49190611453565b505060019050919050565b6060604051602001610bf090611b7d565b60405160208183030381529060405280519060200120600160003373ffffffffffffffffffffffffffffffffffffffff1673ffffffffffffffffffffffffffffffffffffffff168152602001908152602001600020604051602001610c559190611c86565b6040516020818303038152906040528051906020012014610c7557600080fd5b600260003373ffffffffffffffffffffffffffffffffffffffff1673ffffffffffffffffffffffffffffffffffffffff168152602001908152602001600020600201805480602002602001604051908101604052809291908181526020018280548015610d3757602002820191906000526020600020905b8160009054906101000a900473ffffffffffffffffffffffffffffffffffffffff1673ffffffffffffffffffffffffffffffffffffffff1681526020019060010190808311610ced575b5050505050905090565b6060600160008373ffffffffffffffffffffffffffffffffffffffff1673ffffffffffffffffffffffffffffffffffffffff1681526020019081526020016000208054610d8d90611bc1565b80601f0160208091040260200160405190810160405280929190818152602001828054610db990611bc1565b8015610e065780601f10610ddb57610100808354040283529160200191610e06565b820191906000526020600020905b815481529060010190602001808311610de957829003601f168201915b50505050509050919050565b6000604051602001610e2390611cc3565b60405160208183030381529060405280519060200120600160003373ffffffffffffffffffffffffffffffffffffffff1673ffffffffffffffffffffffffffffffffffffffff168152602001908152602001600020604051602001610e889190611c86565b6040516020818303038152906040528051906020012014610ea857600080fd5b6040518060400160405280600681526020017f646f63746f720000000000000000000000000000000000000000000000000000815250600160003373ffffffffffffffffffffffffffffffffffffffff1673ffffffffffffffffffffffffffffffffffffffff1681526020019081526020016000209080519060200190610f3092919061137a565b5082600260003373ffffffffffffffffffffffffffffffffffffffff1673ffffffffffffffffffffffffffffffffffffffff16815260200190815260200160002060000160006101000a81548173ffffffffffffffffffffffffffffffffffffffff021916908373ffffffffffffffffffffffffffffffffffffffff16021790555081600260003373ffffffffffffffffffffffffffffffffffffffff1673ffffffffffffffffffffffffffffffffffffffff168152602001908152602001600020600101908051906020019061100892919061137a565b507fe7251797390b3bf67da13c0ee0dd7d9ef534eee527bb92b1c849c4ea152ef550336040516110389190611ce7565b60405180910390a16001905092915050565b600060405160200161105b90611b7d565b60405160208183030381529060405280519060200120600160003373ffffffffffffffffffffffffffffffffffffffff1673ffffffffffffffffffffffffffffffffffffffff1681526020019081526020016000206040516020016110c09190611c86565b60405160208183030381529060405280519060200120146110e057600080fd5b87600360008a73ffffffffffffffffffffffffffffffffffffffff1673ffffffffffffffffffffffffffffffffffffffff16815260200190815260200160002060000160006101000a81548173ffffffffffffffffffffffffffffffffffffffff021916908373ffffffffffffffffffffffffffffffffffffffff16021790555086600360008a73ffffffffffffffffffffffffffffffffffffffff1673ffffffffffffffffffffffffffffffffffffffff16815260200190815260200160002060010190805190602001906111b792919061137a565b5085600360008a73ffffffffffffffffffffffffffffffffffffffff1673ffffffffffffffffffffffffffffffffffffffff168152602001908152602001600020600201908051906020019061120e92919061137a565b5084600360008a73ffffffffffffffffffffffffffffffffffffffff1673ffffffffffffffffffffffffffffffffffffffff168152602001908152602001600020600301908051906020019061126592919061137a565b5083600360008a73ffffffffffffffffffffffffffffffffffffffff1673ffffffffffffffffffffffffffffffffffffffff16815260200190815260200160002060040190805190602001906112bc92919061137a565b5082600360008a73ffffffffffffffffffffffffffffffffffffffff1673ffffffffffffffffffffffffffffffffffffffff168152602001908152602001600020600501908051906020019061131392919061137a565b5081600360008a73ffffffffffffffffffffffffffffffffffffffff1673ffffffffffffffffffffffffffffffffffffffff168152602001908152602001600020600601908051906020019061136a92919061137a565b5060019050979650505050505050565b82805461138690611bc1565b90600052602060002090601f0160209004810192826113a857600085556113ef565b82601f106113c157805160ff19168380011785556113ef565b828001600101855582156113ef579182015b828111156113ee5782518255916020019190600101906113d3565b5b5090506113fc9190611493565b5090565b6040518060e00160405280600073ffffffffffffffffffffffffffffffffffffffff1681526020016060815260200160608152602001606081526020016060815260200160608152602001606081525090565b50805461145f90611bc1565b6000825580601f106114715750611490565b601f01602090049060005260206000209081019061148f9190611493565b5b50565b5b808211156114ac576000816000905550600101611494565b5090565b6000604051905090565b600080fd5b600080fd5b600073ffffffffffffffffffffffffffffffffffffffff82169050919050565b60006114ef826114c4565b9050919050565b6114ff816114e4565b811461150a57600080fd5b50565b60008135905061151c816114f6565b92915050565b600080fd5b600080fd5b6000601f19601f8301169050919050565b7f4e487b7100000000000000000000000000000000000000000000000000000000600052604160045260246000fd5b6115758261152c565b810181811067ffffffffffffffff821117156115945761159361153d565b5b80604052505050565b60006115a76114b0565b90506115b3828261156c565b919050565b600067ffffffffffffffff8211156115d3576115d261153d565b5b6115dc8261152c565b9050602081019050919050565b82818337600083830152505050565b600061160b611606846115b8565b61159d565b90508281526020810184848401111561162757611626611527565b5b6116328482856115e9565b509392505050565b600082601f83011261164f5761164e611522565b5b813561165f8482602086016115f8565b91505092915050565b600080600080600080600060e0888a031215611687576116866114ba565b5b60006116958a828b0161150d565b975050602088013567ffffffffffffffff8111156116b6576116b56114bf565b5b6116c28a828b0161163a565b965050604088013567ffffffffffffffff8111156116e3576116e26114bf565b5b6116ef8a828b0161163a565b955050606088013567ffffffffffffffff8111156117105761170f6114bf565b5b61171c8a828b0161163a565b945050608088013567ffffffffffffffff81111561173d5761173c6114bf565b5b6117498a828b0161163a565b93505060a088013567ffffffffffffffff81111561176a576117696114bf565b5b6117768a828b0161163a565b92505060c088013567ffffffffffffffff811115611797576117966114bf565b5b6117a38a828b0161163a565b91505092959891949750929550565b600081519050919050565b600082825260208201905092915050565b60005b838110156117ec5780820151818401526020810190506117d1565b838111156117fb576000848401525b50505050565b600061180c826117b2565b61181681856117bd565b93506118268185602086016117ce565b61182f8161152c565b840191505092915050565b600060208201905081810360008301526118548184611801565b905092915050565b600060208284031215611872576118716114ba565b5b60006118808482850161150d565b91505092915050565b611892816114e4565b82525050565b600082825260208201905092915050565b60006118b4826117b2565b6118be8185611898565b93506118ce8185602086016117ce565b6118d78161152c565b840191505092915050565b600060e0830160008301516118fa6000860182611889565b506020830151848203602086015261191282826118a9565b9150506040830151848203604086015261192c82826118a9565b9150506060830151848203606086015261194682826118a9565b9150506080830151848203608086015261196082826118a9565b91505060a083015184820360a086015261197a82826118a9565b91505060c083015184820360c086015261199482826118a9565b9150508091505092915050565b600060208201905081810360008301526119bb81846118e2565b905092915050565b60008115159050919050565b6119d8816119c3565b82525050565b60006020820190506119f360008301846119cf565b92915050565b600081519050919050565b600082825260208201905092915050565b6000819050602082019050919050565b6000611a318383611889565b60208301905092915050565b6000602082019050919050565b6000611a55826119f9565b611a5f8185611a04565b9350611a6a83611a15565b8060005b83811015611a9b578151611a828882611a25565b9750611a8d83611a3d565b925050600181019050611a6e565b5085935050505092915050565b60006020820190508181036000830152611ac28184611a4a565b905092915050565b60008060408385031215611ae157611ae06114ba565b5b6000611aef8582860161150d565b925050602083013567ffffffffffffffff811115611b1057611b0f6114bf565b5b611b1c8582860161163a565b9150509250929050565b600081905092915050565b7f646f63746f720000000000000000000000000000000000000000000000000000600082015250565b6000611b67600683611b26565b9150611b7282611b31565b600682019050919050565b6000611b8882611b5a565b9150819050919050565b7f4e487b7100000000000000000000000000000000000000000000000000000000600052602260045260246000fd5b60006002820490506001821680611bd957607f821691505b602082108103611bec57611beb611b92565b5b50919050565b60008190508160005260206000209050919050565b60008154611c1481611bc1565b611c1e8186611b26565b94506001821660008114611c395760018114611c4a57611c7d565b60ff19831686528186019350611c7d565b611c5385611bf2565b60005b83811015611c7557815481890152600182019150602081019050611c56565b838801955050505b50505092915050565b6000611c928284611c07565b915081905092915050565b50565b6000611cad600083611b26565b9150611cb882611c9d565b600082019050919050565b6000611cce82611ca0565b9150819050919050565b611ce1816114e4565b82525050565b6000602082019050611cfc6000830184611cd8565b9291505056fea26469706673582212203c0e447075b6cedc644bee9a339b07baeb723b09f1d81614f036eed7c227291d64736f6c634300080d0033",
  "immutableReferences": {},
  "source": "// SPDX-License-Identifier: MIT\npragma solidity >=0.4.22 <0.9.0;\n\ncontract HealthCare {\n\n    mapping(address => uint) authCaller;\n    mapping(address => string) userType;\n    mapping(address => Doctor) docData;\n    mapping(address => MedicalForm) mediData;\n\n    constructor() public {\n        authCaller[msg.sender] = 1;\n    }\n\n    struct Doctor {\n        address docAddr;\n        string hospital;\n        address[] patient;\n    }\n\n    struct MedicalForm {\n        address patientAddr;\n        string patientName;\n        string patientAge;\n        string patientWeight;\n        string patientHeight;\n        string symptom;\n        string description;\n    }\n\n    // event\n    event DoctorAdd(address doctorAddr);\n    \n    // * Doctor *\n    function addDoctor(address doctorAddr, string memory _hospital) public returns(bool) {\n        require(keccak256(abi.encodePacked(userType[msg.sender]))\n        == keccak256(abi.encodePacked(\"\")));\n\n        userType[msg.sender] = 'doctor';\n        docData[msg.sender].docAddr = doctorAddr;\n        docData[msg.sender].hospital = _hospital;\n        emit DoctorAdd(msg.sender);\n        return true;\n    }\n\n    // CRUD Patient Data\n\n    function addPatientData(address _patientAddr, string memory _patientName, string memory _patientAge,\n    string memory _patientWeight, string memory _patientHeight, string memory _symptom, string memory _description) \n    public returns(string memory) {\n        require(keccak256(abi.encodePacked(userType[msg.sender])) == keccak256(abi.encodePacked(\"doctor\")));\n\n        mediData[_patientAddr].patientAddr = _patientAddr;\n        mediData[_patientAddr].patientName = _patientName;\n        mediData[_patientAddr].patientAge = _patientAge;\n        mediData[_patientAddr].patientWeight = _patientWeight;\n        mediData[_patientAddr].patientHeight = _patientHeight;\n        mediData[_patientAddr].symptom = _symptom;\n        mediData[_patientAddr].description = _description;\n        \n        docData[msg.sender].patient.push(_patientAddr);\n        return mediData[_patientAddr].patientName;\n    }\n\n    function readPatientData(address _patientAddr) public view returns(MedicalForm memory) {\n        return mediData[_patientAddr];\n    }\n\n    function updatePatientData(address _patientAddr, string memory _patientName, string memory _patientAge,\n    string memory _patientWeight, string memory _patientHeight, string memory _symptom, string memory _description)\n    public returns(bool) {\n        require(keccak256(abi.encodePacked(userType[msg.sender])) == keccak256(abi.encodePacked(\"doctor\")));\n\n        mediData[_patientAddr].patientAddr = _patientAddr;\n        mediData[_patientAddr].patientName = _patientName;\n        mediData[_patientAddr].patientAge = _patientAge;\n        mediData[_patientAddr].patientWeight = _patientWeight;\n        mediData[_patientAddr].patientHeight = _patientHeight;\n        mediData[_patientAddr].symptom = _symptom;\n        mediData[_patientAddr].description = _description;\n\n        return true;\n    }\n\n    function deletePatientData(address _patientAddr) public returns(bool) {\n        require(keccak256(abi.encodePacked(userType[msg.sender])) == keccak256(abi.encodePacked(\"doctor\")));\n\n        delete mediData[_patientAddr];\n\n        return true;\n    }\n\n    function getPatientList() view public returns (address[] memory){\n        require(keccak256(abi.encodePacked(userType[msg.sender])) == keccak256(abi.encodePacked(\"doctor\")));\n        return docData[msg.sender].patient;\n    }\n\n    // get User\n    function getUser(address userAddr) view public returns(string memory) {\n        return userType[userAddr];\n    }\n}",
  "sourcePath": "/home/inlab/Desktop/wotjr/health-care-DApp/contract/contracts/HealthCare.sol",
  "compiler": {
    "name": "solc",
    "version": "0.8.13+commit.abaa5c0e.Emscripten.clang"
  },
  "schemaVersion": "3.4.7",
  "updatedAt": "2022-05-18T04:14:16.479Z",
  "networkType": "ethereum",
  "devdoc": {
    "kind": "dev",
    "methods": {},
    "version": 1
  },
  "userdoc": {
    "kind": "user",
    "methods": {},
    "version": 1
  }
}