{
  "contractName": "HealthCare",
  "abi": [
    {
      "inputs": [],
      "stateMutability": "nonpayable",
      "type": "constructor"
    },
    {
      "anonymous": false,
      "inputs": [
        {
          "indexed": false,
          "internalType": "address",
          "name": "doctorAddr",
          "type": "address"
        }
      ],
      "name": "DoctorAdd",
      "type": "event"
    },
    {
      "inputs": [
        {
          "internalType": "address",
          "name": "doctorAddr",
          "type": "address"
        },
        {
          "internalType": "string",
          "name": "_hospital",
          "type": "string"
        }
      ],
      "name": "addDoctor",
      "outputs": [
        {
          "internalType": "bool",
          "name": "",
          "type": "bool"
        }
      ],
      "stateMutability": "nonpayable",
      "type": "function"
    },
    {
      "inputs": [
        {
          "internalType": "address",
          "name": "_patientAddr",
          "type": "address"
        },
        {
          "internalType": "string",
          "name": "_patientName",
          "type": "string"
        },
        {
          "internalType": "string",
          "name": "_patientAge",
          "type": "string"
        },
        {
          "internalType": "string",
          "name": "_patientWeight",
          "type": "string"
        },
        {
          "internalType": "string",
          "name": "_patientHeight",
          "type": "string"
        },
        {
          "internalType": "string",
          "name": "_symptom",
          "type": "string"
        },
        {
          "internalType": "string",
          "name": "_description",
          "type": "string"
        }
      ],
      "name": "addPatientData",
      "outputs": [
        {
          "internalType": "string",
          "name": "",
          "type": "string"
        }
      ],
      "stateMutability": "nonpayable",
      "type": "function"
    },
    {
      "inputs": [
        {
          "internalType": "address",
          "name": "_patientAddr",
          "type": "address"
        }
      ],
      "name": "readPatientData",
      "outputs": [
        {
          "components": [
            {
              "internalType": "address",
              "name": "patientAddr",
              "type": "address"
            },
            {
              "internalType": "string",
              "name": "patientName",
              "type": "string"
            },
            {
              "internalType": "string",
              "name": "patientAge",
              "type": "string"
            },
            {
              "internalType": "string",
              "name": "patientWeight",
              "type": "string"
            },
            {
              "internalType": "string",
              "name": "patientHeight",
              "type": "string"
            },
            {
              "internalType": "string",
              "name": "symptom",
              "type": "string"
            },
            {
              "internalType": "string",
              "name": "description",
              "type": "string"
            },
            {
              "internalType": "uint256",
              "name": "state",
              "type": "uint256"
            }
          ],
          "internalType": "struct HealthCare.MedicalForm",
          "name": "",
          "type": "tuple"
        }
      ],
      "stateMutability": "view",
      "type": "function",
      "constant": true
    },
    {
      "inputs": [
        {
          "internalType": "address",
          "name": "_patientAddr",
          "type": "address"
        },
        {
          "internalType": "string",
          "name": "_patientName",
          "type": "string"
        },
        {
          "internalType": "string",
          "name": "_patientAge",
          "type": "string"
        },
        {
          "internalType": "string",
          "name": "_patientWeight",
          "type": "string"
        },
        {
          "internalType": "string",
          "name": "_patientHeight",
          "type": "string"
        },
        {
          "internalType": "string",
          "name": "_symptom",
          "type": "string"
        },
        {
          "internalType": "string",
          "name": "_description",
          "type": "string"
        }
      ],
      "name": "updatePatientData",
      "outputs": [
        {
          "internalType": "bool",
          "name": "",
          "type": "bool"
        }
      ],
      "stateMutability": "nonpayable",
      "type": "function"
    },
    {
      "inputs": [
        {
          "internalType": "address",
          "name": "_patientAddr",
          "type": "address"
        }
      ],
      "name": "deletePatientData",
      "outputs": [
        {
          "internalType": "bool",
          "name": "",
          "type": "bool"
        }
      ],
      "stateMutability": "nonpayable",
      "type": "function"
    },
    {
      "inputs": [
        {
          "internalType": "address",
          "name": "_doctorAddr",
          "type": "address"
        }
      ],
      "name": "getPatientList",
      "outputs": [
        {
          "internalType": "address[]",
          "name": "",
          "type": "address[]"
        }
      ],
      "stateMutability": "view",
      "type": "function",
      "constant": true
    },
    {
      "inputs": [
        {
          "internalType": "address",
          "name": "userAddr",
          "type": "address"
        }
      ],
      "name": "getUser",
      "outputs": [
        {
          "internalType": "string",
          "name": "",
          "type": "string"
        }
      ],
      "stateMutability": "view",
      "type": "function",
      "constant": true
    }
  ],
  "bytecode": "0x608060405234801561001057600080fd5b5060016000803373ffffffffffffffffffffffffffffffffffffffff1673ffffffffffffffffffffffffffffffffffffffff1681526020019081526020016000208190555061227b806100646000396000f3fe608060405234801561001057600080fd5b506004361061007d5760003560e01c80636f77926b1161005b5780636f77926b146101125780637cf1e445146101425780639c91130914610172578063b7cca9e8146101a25761007d565b806330004a71146100825780633a25ab1d146100b257806346a25189146100e2575b600080fd5b61009c60048036038101906100979190611a1f565b6101d2565b6040516100a99190611bf1565b60405180910390f35b6100cc60048036038101906100c79190611c13565b6106b6565b6040516100d99190611d85565b60405180910390f35b6100fc60048036038101906100f79190611c13565b610adc565b6040516101099190611dc2565b60405180910390f35b61012c60048036038101906101279190611c13565b610f8c565b6040516101399190611bf1565b60405180910390f35b61015c60048036038101906101579190611ddd565b61105d565b6040516101699190611dc2565b60405180910390f35b61018c60048036038101906101879190611c13565b611295565b6040516101999190611ee8565b60405180910390f35b6101bc60048036038101906101b79190611a1f565b6113f9565b6040516101c99190611dc2565b60405180910390f35b60606040516020016101e390611f61565b60405160208183030381529060405280519060200120600160003373ffffffffffffffffffffffffffffffffffffffff1673ffffffffffffffffffffffffffffffffffffffff168152602001908152602001600020604051602001610248919061206a565b604051602081830303815290604052805190602001201461026857600080fd5b87600360008a73ffffffffffffffffffffffffffffffffffffffff1673ffffffffffffffffffffffffffffffffffffffff16815260200190815260200160002060000160006101000a81548173ffffffffffffffffffffffffffffffffffffffff021916908373ffffffffffffffffffffffffffffffffffffffff16021790555086600360008a73ffffffffffffffffffffffffffffffffffffffff1673ffffffffffffffffffffffffffffffffffffffff168152602001908152602001600020600101908051906020019061033f929190611729565b5085600360008a73ffffffffffffffffffffffffffffffffffffffff1673ffffffffffffffffffffffffffffffffffffffff1681526020019081526020016000206002019080519060200190610396929190611729565b5084600360008a73ffffffffffffffffffffffffffffffffffffffff1673ffffffffffffffffffffffffffffffffffffffff16815260200190815260200160002060030190805190602001906103ed929190611729565b5083600360008a73ffffffffffffffffffffffffffffffffffffffff1673ffffffffffffffffffffffffffffffffffffffff1681526020019081526020016000206004019080519060200190610444929190611729565b5082600360008a73ffffffffffffffffffffffffffffffffffffffff1673ffffffffffffffffffffffffffffffffffffffff168152602001908152602001600020600501908051906020019061049b929190611729565b5081600360008a73ffffffffffffffffffffffffffffffffffffffff1673ffffffffffffffffffffffffffffffffffffffff16815260200190815260200160002060060190805190602001906104f2929190611729565b506000600360008a73ffffffffffffffffffffffffffffffffffffffff1673ffffffffffffffffffffffffffffffffffffffff16815260200190815260200160002060070181905550600260003373ffffffffffffffffffffffffffffffffffffffff1673ffffffffffffffffffffffffffffffffffffffff168152602001908152602001600020600201889080600181540180825580915050600190039060005260206000200160009091909190916101000a81548173ffffffffffffffffffffffffffffffffffffffff021916908373ffffffffffffffffffffffffffffffffffffffff160217905550600360008973ffffffffffffffffffffffffffffffffffffffff1673ffffffffffffffffffffffffffffffffffffffff168152602001908152602001600020600101805461062b90611fa5565b80601f016020809104026020016040519081016040528092919081815260200182805461065790611fa5565b80156106a45780601f10610679576101008083540402835291602001916106a4565b820191906000526020600020905b81548152906001019060200180831161068757829003601f168201915b50505050509050979650505050505050565b6106be6117af565b600360008373ffffffffffffffffffffffffffffffffffffffff1673ffffffffffffffffffffffffffffffffffffffff168152602001908152602001600020604051806101000160405290816000820160009054906101000a900473ffffffffffffffffffffffffffffffffffffffff1673ffffffffffffffffffffffffffffffffffffffff1673ffffffffffffffffffffffffffffffffffffffff16815260200160018201805461076f90611fa5565b80601f016020809104026020016040519081016040528092919081815260200182805461079b90611fa5565b80156107e85780601f106107bd576101008083540402835291602001916107e8565b820191906000526020600020905b8154815290600101906020018083116107cb57829003601f168201915b5050505050815260200160028201805461080190611fa5565b80601f016020809104026020016040519081016040528092919081815260200182805461082d90611fa5565b801561087a5780601f1061084f5761010080835404028352916020019161087a565b820191906000526020600020905b81548152906001019060200180831161085d57829003601f168201915b5050505050815260200160038201805461089390611fa5565b80601f01602080910402602001604051908101604052809291908181526020018280546108bf90611fa5565b801561090c5780601f106108e15761010080835404028352916020019161090c565b820191906000526020600020905b8154815290600101906020018083116108ef57829003601f168201915b5050505050815260200160048201805461092590611fa5565b80601f016020809104026020016040519081016040528092919081815260200182805461095190611fa5565b801561099e5780601f106109735761010080835404028352916020019161099e565b820191906000526020600020905b81548152906001019060200180831161098157829003601f168201915b505050505081526020016005820180546109b790611fa5565b80601f01602080910402602001604051908101604052809291908181526020018280546109e390611fa5565b8015610a305780601f10610a0557610100808354040283529160200191610a30565b820191906000526020600020905b815481529060010190602001808311610a1357829003601f168201915b50505050508152602001600682018054610a4990611fa5565b80601f0160208091040260200160405190810160405280929190818152602001828054610a7590611fa5565b8015610ac25780601f10610a9757610100808354040283529160200191610ac2565b820191906000526020600020905b815481529060010190602001808311610aa557829003601f168201915b505050505081526020016007820154815250509050919050565b6000604051602001610aed90611f61565b60405160208183030381529060405280519060200120600160003373ffffffffffffffffffffffffffffffffffffffff1673ffffffffffffffffffffffffffffffffffffffff168152602001908152602001600020604051602001610b52919061206a565b6040516020818303038152906040528051906020012014610b7257600080fd5b600080600090505b600260003373ffffffffffffffffffffffffffffffffffffffff1673ffffffffffffffffffffffffffffffffffffffff16815260200190815260200160002060020180549050811015610c8f578373ffffffffffffffffffffffffffffffffffffffff16600260003373ffffffffffffffffffffffffffffffffffffffff1673ffffffffffffffffffffffffffffffffffffffff1681526020019081526020016000206002018281548110610c3257610c31612081565b5b9060005260206000200160009054906101000a900473ffffffffffffffffffffffffffffffffffffffff1673ffffffffffffffffffffffffffffffffffffffff1603610c7c578091505b8080610c87906120df565b915050610b7a565b5060008190505b6001600260003373ffffffffffffffffffffffffffffffffffffffff1673ffffffffffffffffffffffffffffffffffffffff16815260200190815260200160002060020180549050610ce89190612127565b811015610e2957600260003373ffffffffffffffffffffffffffffffffffffffff1673ffffffffffffffffffffffffffffffffffffffff168152602001908152602001600020600201600182610d3e919061215b565b81548110610d4f57610d4e612081565b5b9060005260206000200160009054906101000a900473ffffffffffffffffffffffffffffffffffffffff16600260003373ffffffffffffffffffffffffffffffffffffffff1673ffffffffffffffffffffffffffffffffffffffff1681526020019081526020016000206002018281548110610dce57610dcd612081565b5b9060005260206000200160006101000a81548173ffffffffffffffffffffffffffffffffffffffff021916908373ffffffffffffffffffffffffffffffffffffffff1602179055508080610e21906120df565b915050610c96565b50600260003373ffffffffffffffffffffffffffffffffffffffff1673ffffffffffffffffffffffffffffffffffffffff168152602001908152602001600020600201805480610e7c57610e7b6121b1565b5b6001900381819060005260206000200160006101000a81549073ffffffffffffffffffffffffffffffffffffffff02191690559055600360008473ffffffffffffffffffffffffffffffffffffffff1673ffffffffffffffffffffffffffffffffffffffff168152602001908152602001600020600080820160006101000a81549073ffffffffffffffffffffffffffffffffffffffff0219169055600182016000610f28919061180a565b600282016000610f38919061180a565b600382016000610f48919061180a565b600482016000610f58919061180a565b600582016000610f68919061180a565b600682016000610f78919061180a565b600782016000905550506001915050919050565b6060600160008373ffffffffffffffffffffffffffffffffffffffff1673ffffffffffffffffffffffffffffffffffffffff1681526020019081526020016000208054610fd890611fa5565b80601f016020809104026020016040519081016040528092919081815260200182805461100490611fa5565b80156110515780601f1061102657610100808354040283529160200191611051565b820191906000526020600020905b81548152906001019060200180831161103457829003601f168201915b50505050509050919050565b600060405160200161106e90612206565b60405160208183030381529060405280519060200120600160003373ffffffffffffffffffffffffffffffffffffffff1673ffffffffffffffffffffffffffffffffffffffff1681526020019081526020016000206040516020016110d3919061206a565b60405160208183030381529060405280519060200120146110f357600080fd5b6040518060400160405280600681526020017f646f63746f720000000000000000000000000000000000000000000000000000815250600160003373ffffffffffffffffffffffffffffffffffffffff1673ffffffffffffffffffffffffffffffffffffffff168152602001908152602001600020908051906020019061117b929190611729565b5082600260003373ffffffffffffffffffffffffffffffffffffffff1673ffffffffffffffffffffffffffffffffffffffff16815260200190815260200160002060000160006101000a81548173ffffffffffffffffffffffffffffffffffffffff021916908373ffffffffffffffffffffffffffffffffffffffff16021790555081600260003373ffffffffffffffffffffffffffffffffffffffff1673ffffffffffffffffffffffffffffffffffffffff1681526020019081526020016000206001019080519060200190611253929190611729565b507fe7251797390b3bf67da13c0ee0dd7d9ef534eee527bb92b1c849c4ea152ef55033604051611283919061222a565b60405180910390a16001905092915050565b60606040516020016112a690611f61565b60405160208183030381529060405280519060200120600160003373ffffffffffffffffffffffffffffffffffffffff1673ffffffffffffffffffffffffffffffffffffffff16815260200190815260200160002060405160200161130b919061206a565b604051602081830303815290604052805190602001201461132b57600080fd5b600260008373ffffffffffffffffffffffffffffffffffffffff1673ffffffffffffffffffffffffffffffffffffffff1681526020019081526020016000206002018054806020026020016040519081016040528092919081815260200182805480156113ed57602002820191906000526020600020905b8160009054906101000a900473ffffffffffffffffffffffffffffffffffffffff1673ffffffffffffffffffffffffffffffffffffffff16815260200190600101908083116113a3575b50505050509050919050565b600060405160200161140a90611f61565b60405160208183030381529060405280519060200120600160003373ffffffffffffffffffffffffffffffffffffffff1673ffffffffffffffffffffffffffffffffffffffff16815260200190815260200160002060405160200161146f919061206a565b604051602081830303815290604052805190602001201461148f57600080fd5b87600360008a73ffffffffffffffffffffffffffffffffffffffff1673ffffffffffffffffffffffffffffffffffffffff16815260200190815260200160002060000160006101000a81548173ffffffffffffffffffffffffffffffffffffffff021916908373ffffffffffffffffffffffffffffffffffffffff16021790555086600360008a73ffffffffffffffffffffffffffffffffffffffff1673ffffffffffffffffffffffffffffffffffffffff1681526020019081526020016000206001019080519060200190611566929190611729565b5085600360008a73ffffffffffffffffffffffffffffffffffffffff1673ffffffffffffffffffffffffffffffffffffffff16815260200190815260200160002060020190805190602001906115bd929190611729565b5084600360008a73ffffffffffffffffffffffffffffffffffffffff1673ffffffffffffffffffffffffffffffffffffffff1681526020019081526020016000206003019080519060200190611614929190611729565b5083600360008a73ffffffffffffffffffffffffffffffffffffffff1673ffffffffffffffffffffffffffffffffffffffff168152602001908152602001600020600401908051906020019061166b929190611729565b5082600360008a73ffffffffffffffffffffffffffffffffffffffff1673ffffffffffffffffffffffffffffffffffffffff16815260200190815260200160002060050190805190602001906116c2929190611729565b5081600360008a73ffffffffffffffffffffffffffffffffffffffff1673ffffffffffffffffffffffffffffffffffffffff1681526020019081526020016000206006019080519060200190611719929190611729565b5060019050979650505050505050565b82805461173590611fa5565b90600052602060002090601f016020900481019282611757576000855561179e565b82601f1061177057805160ff191683800117855561179e565b8280016001018555821561179e579182015b8281111561179d578251825591602001919060010190611782565b5b5090506117ab919061184a565b5090565b604051806101000160405280600073ffffffffffffffffffffffffffffffffffffffff168152602001606081526020016060815260200160608152602001606081526020016060815260200160608152602001600081525090565b50805461181690611fa5565b6000825580601f106118285750611847565b601f016020900490600052602060002090810190611846919061184a565b5b50565b5b8082111561186357600081600090555060010161184b565b5090565b6000604051905090565b600080fd5b600080fd5b600073ffffffffffffffffffffffffffffffffffffffff82169050919050565b60006118a68261187b565b9050919050565b6118b68161189b565b81146118c157600080fd5b50565b6000813590506118d3816118ad565b92915050565b600080fd5b600080fd5b6000601f19601f8301169050919050565b7f4e487b7100000000000000000000000000000000000000000000000000000000600052604160045260246000fd5b61192c826118e3565b810181811067ffffffffffffffff8211171561194b5761194a6118f4565b5b80604052505050565b600061195e611867565b905061196a8282611923565b919050565b600067ffffffffffffffff82111561198a576119896118f4565b5b611993826118e3565b9050602081019050919050565b82818337600083830152505050565b60006119c26119bd8461196f565b611954565b9050828152602081018484840111156119de576119dd6118de565b5b6119e98482856119a0565b509392505050565b600082601f830112611a0657611a056118d9565b5b8135611a168482602086016119af565b91505092915050565b600080600080600080600060e0888a031215611a3e57611a3d611871565b5b6000611a4c8a828b016118c4565b975050602088013567ffffffffffffffff811115611a6d57611a6c611876565b5b611a798a828b016119f1565b965050604088013567ffffffffffffffff811115611a9a57611a99611876565b5b611aa68a828b016119f1565b955050606088013567ffffffffffffffff811115611ac757611ac6611876565b5b611ad38a828b016119f1565b945050608088013567ffffffffffffffff811115611af457611af3611876565b5b611b008a828b016119f1565b93505060a088013567ffffffffffffffff811115611b2157611b20611876565b5b611b2d8a828b016119f1565b92505060c088013567ffffffffffffffff811115611b4e57611b4d611876565b5b611b5a8a828b016119f1565b91505092959891949750929550565b600081519050919050565b600082825260208201905092915050565b60005b83811015611ba3578082015181840152602081019050611b88565b83811115611bb2576000848401525b50505050565b6000611bc382611b69565b611bcd8185611b74565b9350611bdd818560208601611b85565b611be6816118e3565b840191505092915050565b60006020820190508181036000830152611c0b8184611bb8565b905092915050565b600060208284031215611c2957611c28611871565b5b6000611c37848285016118c4565b91505092915050565b611c498161189b565b82525050565b600082825260208201905092915050565b6000611c6b82611b69565b611c758185611c4f565b9350611c85818560208601611b85565b611c8e816118e3565b840191505092915050565b6000819050919050565b611cac81611c99565b82525050565b600061010083016000830151611ccb6000860182611c40565b5060208301518482036020860152611ce38282611c60565b91505060408301518482036040860152611cfd8282611c60565b91505060608301518482036060860152611d178282611c60565b91505060808301518482036080860152611d318282611c60565b91505060a083015184820360a0860152611d4b8282611c60565b91505060c083015184820360c0860152611d658282611c60565b91505060e0830151611d7a60e0860182611ca3565b508091505092915050565b60006020820190508181036000830152611d9f8184611cb2565b905092915050565b60008115159050919050565b611dbc81611da7565b82525050565b6000602082019050611dd76000830184611db3565b92915050565b60008060408385031215611df457611df3611871565b5b6000611e02858286016118c4565b925050602083013567ffffffffffffffff811115611e2357611e22611876565b5b611e2f858286016119f1565b9150509250929050565b600081519050919050565b600082825260208201905092915050565b6000819050602082019050919050565b6000611e718383611c40565b60208301905092915050565b6000602082019050919050565b6000611e9582611e39565b611e9f8185611e44565b9350611eaa83611e55565b8060005b83811015611edb578151611ec28882611e65565b9750611ecd83611e7d565b925050600181019050611eae565b5085935050505092915050565b60006020820190508181036000830152611f028184611e8a565b905092915050565b600081905092915050565b7f646f63746f720000000000000000000000000000000000000000000000000000600082015250565b6000611f4b600683611f0a565b9150611f5682611f15565b600682019050919050565b6000611f6c82611f3e565b9150819050919050565b7f4e487b7100000000000000000000000000000000000000000000000000000000600052602260045260246000fd5b60006002820490506001821680611fbd57607f821691505b602082108103611fd057611fcf611f76565b5b50919050565b60008190508160005260206000209050919050565b60008154611ff881611fa5565b6120028186611f0a565b9450600182166000811461201d576001811461202e57612061565b60ff19831686528186019350612061565b61203785611fd6565b60005b838110156120595781548189015260018201915060208101905061203a565b838801955050505b50505092915050565b60006120768284611feb565b915081905092915050565b7f4e487b7100000000000000000000000000000000000000000000000000000000600052603260045260246000fd5b7f4e487b7100000000000000000000000000000000000000000000000000000000600052601160045260246000fd5b60006120ea82611c99565b91507fffffffffffffffffffffffffffffffffffffffffffffffffffffffffffffffff820361211c5761211b6120b0565b5b600182019050919050565b600061213282611c99565b915061213d83611c99565b9250828210156121505761214f6120b0565b5b828203905092915050565b600061216682611c99565b915061217183611c99565b9250827fffffffffffffffffffffffffffffffffffffffffffffffffffffffffffffffff038211156121a6576121a56120b0565b5b828201905092915050565b7f4e487b7100000000000000000000000000000000000000000000000000000000600052603160045260246000fd5b50565b60006121f0600083611f0a565b91506121fb826121e0565b600082019050919050565b6000612211826121e3565b9150819050919050565b6122248161189b565b82525050565b600060208201905061223f600083018461221b565b9291505056fea2646970667358221220bde221a04796a59a143da775bfdf519cff0a909fc8bdb2e8c810fd897014b62764736f6c634300080d0033",
  "immutableReferences": {},
  "source": "// SPDX-License-Identifier: MIT\npragma solidity >=0.4.22 <0.9.0;\n\ncontract HealthCare {\n\n    mapping(address => uint) authCaller;\n    mapping(address => string) userType;\n    mapping(address => Doctor) docData;\n    mapping(address => MedicalForm) mediData;\n\n    constructor() public {\n        authCaller[msg.sender] = 1;\n    }\n\n    struct Doctor {\n        address docAddr;\n        string hospital;\n        address[] patient;\n    }\n\n    struct MedicalForm {\n        address patientAddr;\n        string patientName;\n        string patientAge;\n        string patientWeight;\n        string patientHeight;\n        string symptom;\n        string description;\n        uint state;\n    }\n\n    // event\n    event DoctorAdd(address doctorAddr);\n    \n    // * Doctor *\n    function addDoctor(address doctorAddr, string memory _hospital) public returns(bool) {\n        require(keccak256(abi.encodePacked(userType[msg.sender]))\n        == keccak256(abi.encodePacked(\"\")));\n\n        userType[msg.sender] = 'doctor';\n        docData[msg.sender].docAddr = doctorAddr;\n        docData[msg.sender].hospital = _hospital;\n        emit DoctorAdd(msg.sender);\n        return true;\n    }\n\n    // CRUD Patient Data\n\n    // Create\n    function addPatientData(address _patientAddr, string memory _patientName, string memory _patientAge,\n    string memory _patientWeight, string memory _patientHeight, string memory _symptom, string memory _description) \n    public returns(string memory) {\n        require(keccak256(abi.encodePacked(userType[msg.sender])) == keccak256(abi.encodePacked(\"doctor\")));\n\n        mediData[_patientAddr].patientAddr = _patientAddr;\n        mediData[_patientAddr].patientName = _patientName;\n        mediData[_patientAddr].patientAge = _patientAge;\n        mediData[_patientAddr].patientWeight = _patientWeight;\n        mediData[_patientAddr].patientHeight = _patientHeight;\n        mediData[_patientAddr].symptom = _symptom;\n        mediData[_patientAddr].description = _description;\n        // CRUD state\n        mediData[_patientAddr].state = 0; \n        \n        docData[msg.sender].patient.push(_patientAddr);\n        return mediData[_patientAddr].patientName;\n    }\n\n    // Read\n    function readPatientData(address _patientAddr) public view returns(MedicalForm memory) {\n        return mediData[_patientAddr];\n    }\n\n    // Update\n    function updatePatientData(address _patientAddr, string memory _patientName, string memory _patientAge,\n    string memory _patientWeight, string memory _patientHeight, string memory _symptom, string memory _description)\n    public returns(bool) {\n        require(keccak256(abi.encodePacked(userType[msg.sender])) == keccak256(abi.encodePacked(\"doctor\")));\n\n        mediData[_patientAddr].patientAddr = _patientAddr;\n        mediData[_patientAddr].patientName = _patientName;\n        mediData[_patientAddr].patientAge = _patientAge;\n        mediData[_patientAddr].patientWeight = _patientWeight;\n        mediData[_patientAddr].patientHeight = _patientHeight;\n        mediData[_patientAddr].symptom = _symptom;\n        mediData[_patientAddr].description = _description;\n\n        return true;\n    }\n\n    // Delete\n    function deletePatientData(address _patientAddr) public returns(bool) {\n        require(keccak256(abi.encodePacked(userType[msg.sender])) == keccak256(abi.encodePacked(\"doctor\")));\n\n        uint index;\n\n        for(uint i = 0; i < docData[msg.sender].patient.length; i++) {\n            if(docData[msg.sender].patient[i] == _patientAddr) {\n                index = i;\n            }\n        }\n\n        for(uint i = index; i < docData[msg.sender].patient.length - 1; i++) {\n            docData[msg.sender].patient[i] = docData[msg.sender].patient[i + 1];\n        }\n\n        docData[msg.sender].patient.pop();\n        delete mediData[_patientAddr];\n\n        return true;\n    }\n\n    // get patient list\n    function getPatientList(address _doctorAddr) view public returns (address[] memory){\n        require(keccak256(abi.encodePacked(userType[msg.sender])) == keccak256(abi.encodePacked(\"doctor\")));\n        return docData[_doctorAddr].patient;\n    }\n\n    // get user\n    function getUser(address userAddr) view public returns(string memory) {\n        return userType[userAddr];\n    }\n}",
  "sourcePath": "/home/inlab/Desktop/wotjr/health-care-DApp/contract/contracts/HealthCare.sol",
  "compiler": {
    "name": "solc",
    "version": "0.8.13+commit.abaa5c0e.Emscripten.clang"
  },
  "schemaVersion": "3.4.7",
  "updatedAt": "2022-05-20T02:51:06.175Z",
  "networkType": "ethereum",
  "devdoc": {
    "kind": "dev",
    "methods": {},
    "version": 1
  },
  "userdoc": {
    "kind": "user",
    "methods": {},
    "version": 1
  }
}