{
  "contractName": "HealthCare",
  "abi": [
    {
      "inputs": [],
      "stateMutability": "nonpayable",
      "type": "constructor"
    },
    {
      "anonymous": false,
      "inputs": [
        {
          "indexed": false,
          "internalType": "address",
          "name": "doctorAddr",
          "type": "address"
        }
      ],
      "name": "DoctorAdd",
      "type": "event"
    },
    {
      "inputs": [
        {
          "internalType": "address",
          "name": "doctorAddr",
          "type": "address"
        },
        {
          "internalType": "string",
          "name": "_hospital",
          "type": "string"
        }
      ],
      "name": "addDoctor",
      "outputs": [
        {
          "internalType": "bool",
          "name": "",
          "type": "bool"
        }
      ],
      "stateMutability": "nonpayable",
      "type": "function"
    },
    {
      "inputs": [
        {
          "internalType": "address",
          "name": "userAddr",
          "type": "address"
        }
      ],
      "name": "getUser",
      "outputs": [
        {
          "internalType": "string",
          "name": "",
          "type": "string"
        }
      ],
      "stateMutability": "view",
      "type": "function",
      "constant": true
    }
  ],
  "bytecode": "0x608060405234801561001057600080fd5b5060016000803373ffffffffffffffffffffffffffffffffffffffff1673ffffffffffffffffffffffffffffffffffffffff16815260200190815260200160002081905550610919806100646000396000f3fe608060405234801561001057600080fd5b50600436106100365760003560e01c80636f77926b1461003b5780637cf1e4451461006b575b600080fd5b610055600480360381019061005091906104b9565b61009b565b604051610062919061057f565b60405180910390f35b610085600480360381019061008091906106d6565b61016c565b604051610092919061074d565b60405180910390f35b6060600160008373ffffffffffffffffffffffffffffffffffffffff1673ffffffffffffffffffffffffffffffffffffffff16815260200190815260200160002080546100e790610797565b80601f016020809104026020016040519081016040528092919081815260200182805461011390610797565b80156101605780601f1061013557610100808354040283529160200191610160565b820191906000526020600020905b81548152906001019060200180831161014357829003601f168201915b50505050509050919050565b600060405160200161017d906107f9565b60405160208183030381529060405280519060200120600160003373ffffffffffffffffffffffffffffffffffffffff1673ffffffffffffffffffffffffffffffffffffffff1681526020019081526020016000206040516020016101e291906108a2565b604051602081830303815290604052805190602001201461020257600080fd5b6040518060400160405280600681526020017f646f63746f720000000000000000000000000000000000000000000000000000815250600160003373ffffffffffffffffffffffffffffffffffffffff1673ffffffffffffffffffffffffffffffffffffffff168152602001908152602001600020908051906020019061028a9291906103a4565b5082600260003373ffffffffffffffffffffffffffffffffffffffff1673ffffffffffffffffffffffffffffffffffffffff16815260200190815260200160002060000160006101000a81548173ffffffffffffffffffffffffffffffffffffffff021916908373ffffffffffffffffffffffffffffffffffffffff16021790555081600260003373ffffffffffffffffffffffffffffffffffffffff1673ffffffffffffffffffffffffffffffffffffffff16815260200190815260200160002060010190805190602001906103629291906103a4565b507fe7251797390b3bf67da13c0ee0dd7d9ef534eee527bb92b1c849c4ea152ef5503360405161039291906108c8565b60405180910390a16001905092915050565b8280546103b090610797565b90600052602060002090601f0160209004810192826103d25760008555610419565b82601f106103eb57805160ff1916838001178555610419565b82800160010185558215610419579182015b828111156104185782518255916020019190600101906103fd565b5b509050610426919061042a565b5090565b5b8082111561044357600081600090555060010161042b565b5090565b6000604051905090565b600080fd5b600080fd5b600073ffffffffffffffffffffffffffffffffffffffff82169050919050565b60006104868261045b565b9050919050565b6104968161047b565b81146104a157600080fd5b50565b6000813590506104b38161048d565b92915050565b6000602082840312156104cf576104ce610451565b5b60006104dd848285016104a4565b91505092915050565b600081519050919050565b600082825260208201905092915050565b60005b83811015610520578082015181840152602081019050610505565b8381111561052f576000848401525b50505050565b6000601f19601f8301169050919050565b6000610551826104e6565b61055b81856104f1565b935061056b818560208601610502565b61057481610535565b840191505092915050565b600060208201905081810360008301526105998184610546565b905092915050565b600080fd5b600080fd5b7f4e487b7100000000000000000000000000000000000000000000000000000000600052604160045260246000fd5b6105e382610535565b810181811067ffffffffffffffff82111715610602576106016105ab565b5b80604052505050565b6000610615610447565b905061062182826105da565b919050565b600067ffffffffffffffff821115610641576106406105ab565b5b61064a82610535565b9050602081019050919050565b82818337600083830152505050565b600061067961067484610626565b61060b565b905082815260208101848484011115610695576106946105a6565b5b6106a0848285610657565b509392505050565b600082601f8301126106bd576106bc6105a1565b5b81356106cd848260208601610666565b91505092915050565b600080604083850312156106ed576106ec610451565b5b60006106fb858286016104a4565b925050602083013567ffffffffffffffff81111561071c5761071b610456565b5b610728858286016106a8565b9150509250929050565b60008115159050919050565b61074781610732565b82525050565b6000602082019050610762600083018461073e565b92915050565b7f4e487b7100000000000000000000000000000000000000000000000000000000600052602260045260246000fd5b600060028204905060018216806107af57607f821691505b6020821081036107c2576107c1610768565b5b50919050565b600081905092915050565b50565b60006107e36000836107c8565b91506107ee826107d3565b600082019050919050565b6000610804826107d6565b9150819050919050565b60008190508160005260206000209050919050565b6000815461083081610797565b61083a81866107c8565b94506001821660008114610855576001811461086657610899565b60ff19831686528186019350610899565b61086f8561080e565b60005b8381101561089157815481890152600182019150602081019050610872565b838801955050505b50505092915050565b60006108ae8284610823565b915081905092915050565b6108c28161047b565b82525050565b60006020820190506108dd60008301846108b9565b9291505056fea2646970667358221220abdd1e5dd55320206d2d08a2e9debec44939d822993f62aa5606c24c90bf368664736f6c634300080d0033",
  "immutableReferences": {},
  "source": "// SPDX-License-Identifier: MIT\npragma solidity >=0.4.22 <0.9.0;\n\ncontract HealthCare {\n    struct Doctor {\n        address docAddr;\n        string hospital;\n    }\n\n    struct MedicalForm {\n        string patient;\n        string symptom;\n        string description;\n    }\n\n    mapping(address => uint) authCaller;\n    mapping(address => string) userType;\n    mapping(address => Doctor) docData;\n\n    constructor() public {\n        authCaller[msg.sender] = 1;\n    }\n\n    // event\n    event DoctorAdd(address doctorAddr);\n\n    // * Doctor *\n    function addDoctor(address doctorAddr, string memory _hospital) public returns(bool) {\n        require(keccak256(abi.encodePacked(userType[msg.sender]))\n        == keccak256(abi.encodePacked(\"\")));\n\n        userType[msg.sender] = 'doctor';\n        docData[msg.sender].docAddr = doctorAddr;\n        docData[msg.sender].hospital = _hospital;\n        emit DoctorAdd(msg.sender);\n        return true;\n    }\n\n    // get User\n    function getUser(address userAddr) view public returns(string memory) {\n        return userType[userAddr];\n    }\n}",
  "sourcePath": "/home/inlab/Desktop/wotjr/health-care-DApp/contract/contracts/HealthCare.sol",
  "compiler": {
    "name": "solc",
    "version": "0.8.13+commit.abaa5c0e.Emscripten.clang"
  },
  "schemaVersion": "3.4.7",
  "updatedAt": "2022-05-13T07:05:14.460Z",
  "networkType": "ethereum",
  "devdoc": {
    "kind": "dev",
    "methods": {},
    "version": 1
  },
  "userdoc": {
    "kind": "user",
    "methods": {},
    "version": 1
  }
}