{
  "contractName": "HealthCare",
  "abi": [
    {
      "inputs": [],
      "stateMutability": "nonpayable",
      "type": "constructor"
    },
    {
      "anonymous": false,
      "inputs": [
        {
          "indexed": false,
          "internalType": "address",
          "name": "doctorAddr",
          "type": "address"
        }
      ],
      "name": "DoctorAdd",
      "type": "event"
    },
    {
      "inputs": [
        {
          "internalType": "address",
          "name": "doctorAddr",
          "type": "address"
        },
        {
          "internalType": "string",
          "name": "_hospital",
          "type": "string"
        }
      ],
      "name": "addDoctor",
      "outputs": [
        {
          "internalType": "bool",
          "name": "",
          "type": "bool"
        }
      ],
      "stateMutability": "nonpayable",
      "type": "function"
    },
    {
      "inputs": [
        {
          "internalType": "address",
          "name": "_patientAddr",
          "type": "address"
        },
        {
          "internalType": "string",
          "name": "_patientName",
          "type": "string"
        },
        {
          "internalType": "string",
          "name": "_patientAge",
          "type": "string"
        },
        {
          "internalType": "string",
          "name": "_patientWeight",
          "type": "string"
        },
        {
          "internalType": "string",
          "name": "_patientHeight",
          "type": "string"
        },
        {
          "internalType": "string",
          "name": "_symptom",
          "type": "string"
        },
        {
          "internalType": "string",
          "name": "_description",
          "type": "string"
        }
      ],
      "name": "addPatientData",
      "outputs": [
        {
          "components": [
            {
              "internalType": "address",
              "name": "patAddr",
              "type": "address"
            },
            {
              "internalType": "string",
              "name": "name",
              "type": "string"
            },
            {
              "internalType": "string",
              "name": "age",
              "type": "string"
            }
          ],
          "internalType": "struct HealthCare.Patient[]",
          "name": "",
          "type": "tuple[]"
        }
      ],
      "stateMutability": "nonpayable",
      "type": "function"
    },
    {
      "inputs": [
        {
          "internalType": "address",
          "name": "_patientAddr",
          "type": "address"
        }
      ],
      "name": "readPatientData",
      "outputs": [
        {
          "components": [
            {
              "internalType": "address",
              "name": "patientAddr",
              "type": "address"
            },
            {
              "internalType": "string",
              "name": "patientName",
              "type": "string"
            },
            {
              "internalType": "string",
              "name": "patientAge",
              "type": "string"
            },
            {
              "internalType": "string",
              "name": "patientWeight",
              "type": "string"
            },
            {
              "internalType": "string",
              "name": "patientHeight",
              "type": "string"
            },
            {
              "internalType": "string",
              "name": "symptom",
              "type": "string"
            },
            {
              "internalType": "string",
              "name": "description",
              "type": "string"
            },
            {
              "internalType": "uint256",
              "name": "state",
              "type": "uint256"
            }
          ],
          "internalType": "struct HealthCare.MedicalForm",
          "name": "",
          "type": "tuple"
        }
      ],
      "stateMutability": "view",
      "type": "function",
      "constant": true
    },
    {
      "inputs": [
        {
          "internalType": "address",
          "name": "_patientAddr",
          "type": "address"
        },
        {
          "internalType": "string",
          "name": "_patientName",
          "type": "string"
        },
        {
          "internalType": "string",
          "name": "_patientAge",
          "type": "string"
        },
        {
          "internalType": "string",
          "name": "_patientWeight",
          "type": "string"
        },
        {
          "internalType": "string",
          "name": "_patientHeight",
          "type": "string"
        },
        {
          "internalType": "string",
          "name": "_symptom",
          "type": "string"
        },
        {
          "internalType": "string",
          "name": "_description",
          "type": "string"
        }
      ],
      "name": "updatePatientData",
      "outputs": [
        {
          "internalType": "bool",
          "name": "",
          "type": "bool"
        }
      ],
      "stateMutability": "nonpayable",
      "type": "function"
    },
    {
      "inputs": [
        {
          "internalType": "address",
          "name": "_patientAddr",
          "type": "address"
        }
      ],
      "name": "deletePatientData",
      "outputs": [
        {
          "internalType": "bool",
          "name": "",
          "type": "bool"
        }
      ],
      "stateMutability": "nonpayable",
      "type": "function"
    },
    {
      "inputs": [],
      "name": "getPatientList",
      "outputs": [
        {
          "components": [
            {
              "internalType": "address",
              "name": "patAddr",
              "type": "address"
            },
            {
              "internalType": "string",
              "name": "name",
              "type": "string"
            },
            {
              "internalType": "string",
              "name": "age",
              "type": "string"
            }
          ],
          "internalType": "struct HealthCare.Patient[]",
          "name": "",
          "type": "tuple[]"
        }
      ],
      "stateMutability": "view",
      "type": "function",
      "constant": true
    },
    {
      "inputs": [
        {
          "internalType": "address",
          "name": "_patAddr",
          "type": "address"
        },
        {
          "internalType": "string",
          "name": "_name",
          "type": "string"
        },
        {
          "internalType": "string",
          "name": "_age",
          "type": "string"
        }
      ],
      "name": "addPatient",
      "outputs": [
        {
          "internalType": "bool",
          "name": "",
          "type": "bool"
        }
      ],
      "stateMutability": "nonpayable",
      "type": "function"
    },
    {
      "inputs": [
        {
          "internalType": "address",
          "name": "_patientAddr",
          "type": "address"
        }
      ],
      "name": "readPatientTreats",
      "outputs": [
        {
          "components": [
            {
              "internalType": "address",
              "name": "patientAddr",
              "type": "address"
            },
            {
              "internalType": "string",
              "name": "patientName",
              "type": "string"
            },
            {
              "internalType": "string",
              "name": "patientAge",
              "type": "string"
            },
            {
              "internalType": "string",
              "name": "patientWeight",
              "type": "string"
            },
            {
              "internalType": "string",
              "name": "patientHeight",
              "type": "string"
            },
            {
              "internalType": "string",
              "name": "symptom",
              "type": "string"
            },
            {
              "internalType": "string",
              "name": "description",
              "type": "string"
            },
            {
              "internalType": "uint256",
              "name": "state",
              "type": "uint256"
            }
          ],
          "internalType": "struct HealthCare.MedicalForm[]",
          "name": "",
          "type": "tuple[]"
        }
      ],
      "stateMutability": "view",
      "type": "function",
      "constant": true
    },
    {
      "inputs": [
        {
          "internalType": "address",
          "name": "userAddr",
          "type": "address"
        }
      ],
      "name": "getUser",
      "outputs": [
        {
          "internalType": "string",
          "name": "",
          "type": "string"
        }
      ],
      "stateMutability": "view",
      "type": "function",
      "constant": true
    }
  ],
  "bytecode": "0x608060405234801561001057600080fd5b5060016000803373ffffffffffffffffffffffffffffffffffffffff1673ffffffffffffffffffffffffffffffffffffffff16815260200190815260200160002081905550613045806100646000396000f3fe608060405234801561001057600080fd5b50600436106100935760003560e01c8063503b135411610066578063503b1354146101585780636f77926b146101765780637cf1e445146101a6578063b7cca9e8146101d6578063f48f4ce51461020657610093565b806330004a711461009857806337b16b50146100c85780633a25ab1d146100f857806346a2518914610128575b600080fd5b6100b260048036038101906100ad919061253d565b610236565b6040516100bf9190612837565b60405180910390f35b6100e260048036038101906100dd9190612859565b6107be565b6040516100ef91906128ff565b60405180910390f35b610112600480360381019061010d919061291a565b610a17565b60405161011f9190612a33565b60405180910390f35b610142600480360381019061013d919061291a565b610e5e565b60405161014f91906128ff565b60405180910390f35b61016061146c565b60405161016d9190612837565b60405180910390f35b610190600480360381019061018b919061291a565b611716565b60405161019d9190612a9f565b60405180910390f35b6101c060048036038101906101bb9190612ac1565b6117e7565b6040516101cd91906128ff565b60405180910390f35b6101f060048036038101906101eb919061253d565b611a1f565b6040516101fd91906128ff565b60405180910390f35b610220600480360381019061021b919061291a565b611d4f565b60405161022d9190612cb2565b60405180910390f35b606060405160200161024790612d2b565b60405160208183030381529060405280519060200120600160003373ffffffffffffffffffffffffffffffffffffffff1673ffffffffffffffffffffffffffffffffffffffff1681526020019081526020016000206040516020016102ac9190612e34565b60405160208183030381529060405280519060200120146102cc57600080fd5b600560008973ffffffffffffffffffffffffffffffffffffffff1673ffffffffffffffffffffffffffffffffffffffff1681526020019081526020016000206040518061010001604052808a73ffffffffffffffffffffffffffffffffffffffff1681526020018981526020018881526020018781526020018681526020018581526020018481526020016000815250908060018154018082558091505060019003906000526020600020906008020160009091909190915060008201518160000160006101000a81548173ffffffffffffffffffffffffffffffffffffffff021916908373ffffffffffffffffffffffffffffffffffffffff16021790555060208201518160010190805190602001906103e89291906121ba565b5060408201518160020190805190602001906104059291906121ba565b5060608201518160030190805190602001906104229291906121ba565b50608082015181600401908051906020019061043f9291906121ba565b5060a082015181600501908051906020019061045c9291906121ba565b5060c08201518160060190805190602001906104799291906121ba565b5060e082015181600701555050600660003373ffffffffffffffffffffffffffffffffffffffff1673ffffffffffffffffffffffffffffffffffffffff16815260200190815260200160002060405180606001604052808a73ffffffffffffffffffffffffffffffffffffffff16815260200189815260200188815250908060018154018082558091505060019003906000526020600020906003020160009091909190915060008201518160000160006101000a81548173ffffffffffffffffffffffffffffffffffffffff021916908373ffffffffffffffffffffffffffffffffffffffff16021790555060208201518160010190805190602001906105829291906121ba565b50604082015181600201908051906020019061059f9291906121ba565b505050600660003373ffffffffffffffffffffffffffffffffffffffff1673ffffffffffffffffffffffffffffffffffffffff168152602001908152602001600020805480602002602001604051908101604052809291908181526020016000905b828210156107ad57838290600052602060002090600302016040518060600160405290816000820160009054906101000a900473ffffffffffffffffffffffffffffffffffffffff1673ffffffffffffffffffffffffffffffffffffffff1673ffffffffffffffffffffffffffffffffffffffff16815260200160018201805461068a90612d6f565b80601f01602080910402602001604051908101604052809291908181526020018280546106b690612d6f565b80156107035780601f106106d857610100808354040283529160200191610703565b820191906000526020600020905b8154815290600101906020018083116106e657829003601f168201915b5050505050815260200160028201805461071c90612d6f565b80601f016020809104026020016040519081016040528092919081815260200182805461074890612d6f565b80156107955780601f1061076a57610100808354040283529160200191610795565b820191906000526020600020905b81548152906001019060200180831161077857829003601f168201915b50505050508152505081526020019060010190610601565b505050509050979650505050505050565b60006040516020016107cf90612e71565b60405160208183030381529060405280519060200120600160003373ffffffffffffffffffffffffffffffffffffffff1673ffffffffffffffffffffffffffffffffffffffff1681526020019081526020016000206040516020016108349190612e34565b604051602081830303815290604052805190602001201461085457600080fd5b6040518060400160405280600781526020017f70617469656e7400000000000000000000000000000000000000000000000000815250600160003373ffffffffffffffffffffffffffffffffffffffff1673ffffffffffffffffffffffffffffffffffffffff16815260200190815260200160002090805190602001906108dc9291906121ba565b5083600460003373ffffffffffffffffffffffffffffffffffffffff1673ffffffffffffffffffffffffffffffffffffffff16815260200190815260200160002060000160006101000a81548173ffffffffffffffffffffffffffffffffffffffff021916908373ffffffffffffffffffffffffffffffffffffffff16021790555082600460003373ffffffffffffffffffffffffffffffffffffffff1673ffffffffffffffffffffffffffffffffffffffff16815260200190815260200160002060010190805190602001906109b49291906121ba565b5081600460003373ffffffffffffffffffffffffffffffffffffffff1673ffffffffffffffffffffffffffffffffffffffff1681526020019081526020016000206002019080519060200190610a0b9291906121ba565b50600190509392505050565b610a1f612240565b600560008373ffffffffffffffffffffffffffffffffffffffff1673ffffffffffffffffffffffffffffffffffffffff168152602001908152602001600020600081548110610a7157610a70612e86565b5b9060005260206000209060080201604051806101000160405290816000820160009054906101000a900473ffffffffffffffffffffffffffffffffffffffff1673ffffffffffffffffffffffffffffffffffffffff1673ffffffffffffffffffffffffffffffffffffffff168152602001600182018054610af190612d6f565b80601f0160208091040260200160405190810160405280929190818152602001828054610b1d90612d6f565b8015610b6a5780601f10610b3f57610100808354040283529160200191610b6a565b820191906000526020600020905b815481529060010190602001808311610b4d57829003601f168201915b50505050508152602001600282018054610b8390612d6f565b80601f0160208091040260200160405190810160405280929190818152602001828054610baf90612d6f565b8015610bfc5780601f10610bd157610100808354040283529160200191610bfc565b820191906000526020600020905b815481529060010190602001808311610bdf57829003601f168201915b50505050508152602001600382018054610c1590612d6f565b80601f0160208091040260200160405190810160405280929190818152602001828054610c4190612d6f565b8015610c8e5780601f10610c6357610100808354040283529160200191610c8e565b820191906000526020600020905b815481529060010190602001808311610c7157829003601f168201915b50505050508152602001600482018054610ca790612d6f565b80601f0160208091040260200160405190810160405280929190818152602001828054610cd390612d6f565b8015610d205780601f10610cf557610100808354040283529160200191610d20565b820191906000526020600020905b815481529060010190602001808311610d0357829003601f168201915b50505050508152602001600582018054610d3990612d6f565b80601f0160208091040260200160405190810160405280929190818152602001828054610d6590612d6f565b8015610db25780601f10610d8757610100808354040283529160200191610db2565b820191906000526020600020905b815481529060010190602001808311610d9557829003601f168201915b50505050508152602001600682018054610dcb90612d6f565b80601f0160208091040260200160405190810160405280929190818152602001828054610df790612d6f565b8015610e445780601f10610e1957610100808354040283529160200191610e44565b820191906000526020600020905b815481529060010190602001808311610e2757829003601f168201915b505050505081526020016007820154815250509050919050565b6000604051602001610e6f90612d2b565b60405160208183030381529060405280519060200120600160003373ffffffffffffffffffffffffffffffffffffffff1673ffffffffffffffffffffffffffffffffffffffff168152602001908152602001600020604051602001610ed49190612e34565b6040516020818303038152906040528051906020012014610ef457600080fd5b600080600090505b600660003373ffffffffffffffffffffffffffffffffffffffff1673ffffffffffffffffffffffffffffffffffffffff16815260200190815260200160002080549050811015611012578373ffffffffffffffffffffffffffffffffffffffff16600660003373ffffffffffffffffffffffffffffffffffffffff1673ffffffffffffffffffffffffffffffffffffffff1681526020019081526020016000208281548110610fae57610fad612e86565b5b906000526020600020906003020160000160009054906101000a900473ffffffffffffffffffffffffffffffffffffffff1673ffffffffffffffffffffffffffffffffffffffff1603610fff578091505b808061100a90612ee4565b915050610efc565b506000600660003373ffffffffffffffffffffffffffffffffffffffff1673ffffffffffffffffffffffffffffffffffffffff168152602001908152602001600020805490509050600660003373ffffffffffffffffffffffffffffffffffffffff1673ffffffffffffffffffffffffffffffffffffffff1681526020019081526020016000206001826110a69190612f2c565b815481106110b7576110b6612e86565b5b9060005260206000209060030201600660003373ffffffffffffffffffffffffffffffffffffffff1673ffffffffffffffffffffffffffffffffffffffff168152602001908152602001600020838154811061111657611115612e86565b5b90600052602060002090600302016000820160009054906101000a900473ffffffffffffffffffffffffffffffffffffffff168160000160006101000a81548173ffffffffffffffffffffffffffffffffffffffff021916908373ffffffffffffffffffffffffffffffffffffffff160217905550600182018160010190805461119f90612d6f565b6111aa92919061229b565b5060028201816002019080546111bf90612d6f565b6111ca92919061229b565b5090505060008290505b6001600660003373ffffffffffffffffffffffffffffffffffffffff1673ffffffffffffffffffffffffffffffffffffffff168152602001908152602001600020805490506112239190612f2c565b8110156113b157600660003373ffffffffffffffffffffffffffffffffffffffff1673ffffffffffffffffffffffffffffffffffffffff1681526020019081526020016000206001826112769190612f60565b8154811061128757611286612e86565b5b9060005260206000209060030201600660003373ffffffffffffffffffffffffffffffffffffffff1673ffffffffffffffffffffffffffffffffffffffff16815260200190815260200160002082815481106112e6576112e5612e86565b5b90600052602060002090600302016000820160009054906101000a900473ffffffffffffffffffffffffffffffffffffffff168160000160006101000a81548173ffffffffffffffffffffffffffffffffffffffff021916908373ffffffffffffffffffffffffffffffffffffffff160217905550600182018160010190805461136f90612d6f565b61137a92919061229b565b50600282018160020190805461138f90612d6f565b61139a92919061229b565b5090505080806113a990612ee4565b9150506111d4565b50600660003373ffffffffffffffffffffffffffffffffffffffff1673ffffffffffffffffffffffffffffffffffffffff16815260200190815260200160002080548061140157611400612fb6565b5b6001900381819060005260206000209060030201600080820160006101000a81549073ffffffffffffffffffffffffffffffffffffffff021916905560018201600061144d9190612328565b60028201600061145d9190612328565b50509055600192505050919050565b606060405160200161147d90612d2b565b60405160208183030381529060405280519060200120600160003373ffffffffffffffffffffffffffffffffffffffff1673ffffffffffffffffffffffffffffffffffffffff1681526020019081526020016000206040516020016114e29190612e34565b604051602081830303815290604052805190602001201461150257600080fd5b600660003373ffffffffffffffffffffffffffffffffffffffff1673ffffffffffffffffffffffffffffffffffffffff168152602001908152602001600020805480602002602001604051908101604052809291908181526020016000905b8282101561170d57838290600052602060002090600302016040518060600160405290816000820160009054906101000a900473ffffffffffffffffffffffffffffffffffffffff1673ffffffffffffffffffffffffffffffffffffffff1673ffffffffffffffffffffffffffffffffffffffff1681526020016001820180546115ea90612d6f565b80601f016020809104026020016040519081016040528092919081815260200182805461161690612d6f565b80156116635780601f1061163857610100808354040283529160200191611663565b820191906000526020600020905b81548152906001019060200180831161164657829003601f168201915b5050505050815260200160028201805461167c90612d6f565b80601f01602080910402602001604051908101604052809291908181526020018280546116a890612d6f565b80156116f55780601f106116ca576101008083540402835291602001916116f5565b820191906000526020600020905b8154815290600101906020018083116116d857829003601f168201915b50505050508152505081526020019060010190611561565b50505050905090565b6060600160008373ffffffffffffffffffffffffffffffffffffffff1673ffffffffffffffffffffffffffffffffffffffff168152602001908152602001600020805461176290612d6f565b80601f016020809104026020016040519081016040528092919081815260200182805461178e90612d6f565b80156117db5780601f106117b0576101008083540402835291602001916117db565b820191906000526020600020905b8154815290600101906020018083116117be57829003601f168201915b50505050509050919050565b60006040516020016117f890612e71565b60405160208183030381529060405280519060200120600160003373ffffffffffffffffffffffffffffffffffffffff1673ffffffffffffffffffffffffffffffffffffffff16815260200190815260200160002060405160200161185d9190612e34565b604051602081830303815290604052805190602001201461187d57600080fd5b6040518060400160405280600681526020017f646f63746f720000000000000000000000000000000000000000000000000000815250600160003373ffffffffffffffffffffffffffffffffffffffff1673ffffffffffffffffffffffffffffffffffffffff16815260200190815260200160002090805190602001906119059291906121ba565b5082600260003373ffffffffffffffffffffffffffffffffffffffff1673ffffffffffffffffffffffffffffffffffffffff16815260200190815260200160002060000160006101000a81548173ffffffffffffffffffffffffffffffffffffffff021916908373ffffffffffffffffffffffffffffffffffffffff16021790555081600260003373ffffffffffffffffffffffffffffffffffffffff1673ffffffffffffffffffffffffffffffffffffffff16815260200190815260200160002060010190805190602001906119dd9291906121ba565b507fe7251797390b3bf67da13c0ee0dd7d9ef534eee527bb92b1c849c4ea152ef55033604051611a0d9190612ff4565b60405180910390a16001905092915050565b6000604051602001611a3090612d2b565b60405160208183030381529060405280519060200120600160003373ffffffffffffffffffffffffffffffffffffffff1673ffffffffffffffffffffffffffffffffffffffff168152602001908152602001600020604051602001611a959190612e34565b6040516020818303038152906040528051906020012014611ab557600080fd5b87600360008a73ffffffffffffffffffffffffffffffffffffffff1673ffffffffffffffffffffffffffffffffffffffff16815260200190815260200160002060000160006101000a81548173ffffffffffffffffffffffffffffffffffffffff021916908373ffffffffffffffffffffffffffffffffffffffff16021790555086600360008a73ffffffffffffffffffffffffffffffffffffffff1673ffffffffffffffffffffffffffffffffffffffff1681526020019081526020016000206001019080519060200190611b8c9291906121ba565b5085600360008a73ffffffffffffffffffffffffffffffffffffffff1673ffffffffffffffffffffffffffffffffffffffff1681526020019081526020016000206002019080519060200190611be39291906121ba565b5084600360008a73ffffffffffffffffffffffffffffffffffffffff1673ffffffffffffffffffffffffffffffffffffffff1681526020019081526020016000206003019080519060200190611c3a9291906121ba565b5083600360008a73ffffffffffffffffffffffffffffffffffffffff1673ffffffffffffffffffffffffffffffffffffffff1681526020019081526020016000206004019080519060200190611c919291906121ba565b5082600360008a73ffffffffffffffffffffffffffffffffffffffff1673ffffffffffffffffffffffffffffffffffffffff1681526020019081526020016000206005019080519060200190611ce89291906121ba565b5081600360008a73ffffffffffffffffffffffffffffffffffffffff1673ffffffffffffffffffffffffffffffffffffffff1681526020019081526020016000206006019080519060200190611d3f9291906121ba565b5060019050979650505050505050565b6060600560008373ffffffffffffffffffffffffffffffffffffffff1673ffffffffffffffffffffffffffffffffffffffff168152602001908152602001600020805480602002602001604051908101604052809291908181526020016000905b828210156121af5783829060005260206000209060080201604051806101000160405290816000820160009054906101000a900473ffffffffffffffffffffffffffffffffffffffff1673ffffffffffffffffffffffffffffffffffffffff1673ffffffffffffffffffffffffffffffffffffffff168152602001600182018054611e3a90612d6f565b80601f0160208091040260200160405190810160405280929190818152602001828054611e6690612d6f565b8015611eb35780601f10611e8857610100808354040283529160200191611eb3565b820191906000526020600020905b815481529060010190602001808311611e9657829003601f168201915b50505050508152602001600282018054611ecc90612d6f565b80601f0160208091040260200160405190810160405280929190818152602001828054611ef890612d6f565b8015611f455780601f10611f1a57610100808354040283529160200191611f45565b820191906000526020600020905b815481529060010190602001808311611f2857829003601f168201915b50505050508152602001600382018054611f5e90612d6f565b80601f0160208091040260200160405190810160405280929190818152602001828054611f8a90612d6f565b8015611fd75780601f10611fac57610100808354040283529160200191611fd7565b820191906000526020600020905b815481529060010190602001808311611fba57829003601f168201915b50505050508152602001600482018054611ff090612d6f565b80601f016020809104026020016040519081016040528092919081815260200182805461201c90612d6f565b80156120695780601f1061203e57610100808354040283529160200191612069565b820191906000526020600020905b81548152906001019060200180831161204c57829003601f168201915b5050505050815260200160058201805461208290612d6f565b80601f01602080910402602001604051908101604052809291908181526020018280546120ae90612d6f565b80156120fb5780601f106120d0576101008083540402835291602001916120fb565b820191906000526020600020905b8154815290600101906020018083116120de57829003601f168201915b5050505050815260200160068201805461211490612d6f565b80601f016020809104026020016040519081016040528092919081815260200182805461214090612d6f565b801561218d5780601f106121625761010080835404028352916020019161218d565b820191906000526020600020905b81548152906001019060200180831161217057829003601f168201915b5050505050815260200160078201548152505081526020019060010190611db0565b505050509050919050565b8280546121c690612d6f565b90600052602060002090601f0160209004810192826121e8576000855561222f565b82601f1061220157805160ff191683800117855561222f565b8280016001018555821561222f579182015b8281111561222e578251825591602001919060010190612213565b5b50905061223c9190612368565b5090565b604051806101000160405280600073ffffffffffffffffffffffffffffffffffffffff168152602001606081526020016060815260200160608152602001606081526020016060815260200160608152602001600081525090565b8280546122a790612d6f565b90600052602060002090601f0160209004810192826122c95760008555612317565b82601f106122da5780548555612317565b8280016001018555821561231757600052602060002091601f016020900482015b828111156123165782548255916001019190600101906122fb565b5b5090506123249190612368565b5090565b50805461233490612d6f565b6000825580601f106123465750612365565b601f0160209004906000526020600020908101906123649190612368565b5b50565b5b80821115612381576000816000905550600101612369565b5090565b6000604051905090565b600080fd5b600080fd5b600073ffffffffffffffffffffffffffffffffffffffff82169050919050565b60006123c482612399565b9050919050565b6123d4816123b9565b81146123df57600080fd5b50565b6000813590506123f1816123cb565b92915050565b600080fd5b600080fd5b6000601f19601f8301169050919050565b7f4e487b7100000000000000000000000000000000000000000000000000000000600052604160045260246000fd5b61244a82612401565b810181811067ffffffffffffffff8211171561246957612468612412565b5b80604052505050565b600061247c612385565b90506124888282612441565b919050565b600067ffffffffffffffff8211156124a8576124a7612412565b5b6124b182612401565b9050602081019050919050565b82818337600083830152505050565b60006124e06124db8461248d565b612472565b9050828152602081018484840111156124fc576124fb6123fc565b5b6125078482856124be565b509392505050565b600082601f830112612524576125236123f7565b5b81356125348482602086016124cd565b91505092915050565b600080600080600080600060e0888a03121561255c5761255b61238f565b5b600061256a8a828b016123e2565b975050602088013567ffffffffffffffff81111561258b5761258a612394565b5b6125978a828b0161250f565b965050604088013567ffffffffffffffff8111156125b8576125b7612394565b5b6125c48a828b0161250f565b955050606088013567ffffffffffffffff8111156125e5576125e4612394565b5b6125f18a828b0161250f565b945050608088013567ffffffffffffffff81111561261257612611612394565b5b61261e8a828b0161250f565b93505060a088013567ffffffffffffffff81111561263f5761263e612394565b5b61264b8a828b0161250f565b92505060c088013567ffffffffffffffff81111561266c5761266b612394565b5b6126788a828b0161250f565b91505092959891949750929550565b600081519050919050565b600082825260208201905092915050565b6000819050602082019050919050565b6126bc816123b9565b82525050565b600081519050919050565b600082825260208201905092915050565b60005b838110156126fc5780820151818401526020810190506126e1565b8381111561270b576000848401525b50505050565b600061271c826126c2565b61272681856126cd565b93506127368185602086016126de565b61273f81612401565b840191505092915050565b600060608301600083015161276260008601826126b3565b506020830151848203602086015261277a8282612711565b915050604083015184820360408601526127948282612711565b9150508091505092915050565b60006127ad838361274a565b905092915050565b6000602082019050919050565b60006127cd82612687565b6127d78185612692565b9350836020820285016127e9856126a3565b8060005b85811015612825578484038952815161280685826127a1565b9450612811836127b5565b925060208a019950506001810190506127ed565b50829750879550505050505092915050565b6000602082019050818103600083015261285181846127c2565b905092915050565b6000806000606084860312156128725761287161238f565b5b6000612880868287016123e2565b935050602084013567ffffffffffffffff8111156128a1576128a0612394565b5b6128ad8682870161250f565b925050604084013567ffffffffffffffff8111156128ce576128cd612394565b5b6128da8682870161250f565b9150509250925092565b60008115159050919050565b6128f9816128e4565b82525050565b600060208201905061291460008301846128f0565b92915050565b6000602082840312156129305761292f61238f565b5b600061293e848285016123e2565b91505092915050565b6000819050919050565b61295a81612947565b82525050565b60006101008301600083015161297960008601826126b3565b50602083015184820360208601526129918282612711565b915050604083015184820360408601526129ab8282612711565b915050606083015184820360608601526129c58282612711565b915050608083015184820360808601526129df8282612711565b91505060a083015184820360a08601526129f98282612711565b91505060c083015184820360c0860152612a138282612711565b91505060e0830151612a2860e0860182612951565b508091505092915050565b60006020820190508181036000830152612a4d8184612960565b905092915050565b600082825260208201905092915050565b6000612a71826126c2565b612a7b8185612a55565b9350612a8b8185602086016126de565b612a9481612401565b840191505092915050565b60006020820190508181036000830152612ab98184612a66565b905092915050565b60008060408385031215612ad857612ad761238f565b5b6000612ae6858286016123e2565b925050602083013567ffffffffffffffff811115612b0757612b06612394565b5b612b138582860161250f565b9150509250929050565b600081519050919050565b600082825260208201905092915050565b6000819050602082019050919050565b600061010083016000830151612b6260008601826126b3565b5060208301518482036020860152612b7a8282612711565b91505060408301518482036040860152612b948282612711565b91505060608301518482036060860152612bae8282612711565b91505060808301518482036080860152612bc88282612711565b91505060a083015184820360a0860152612be28282612711565b91505060c083015184820360c0860152612bfc8282612711565b91505060e0830151612c1160e0860182612951565b508091505092915050565b6000612c288383612b49565b905092915050565b6000602082019050919050565b6000612c4882612b1d565b612c528185612b28565b935083602082028501612c6485612b39565b8060005b85811015612ca05784840389528151612c818582612c1c565b9450612c8c83612c30565b925060208a01995050600181019050612c68565b50829750879550505050505092915050565b60006020820190508181036000830152612ccc8184612c3d565b905092915050565b600081905092915050565b7f646f63746f720000000000000000000000000000000000000000000000000000600082015250565b6000612d15600683612cd4565b9150612d2082612cdf565b600682019050919050565b6000612d3682612d08565b9150819050919050565b7f4e487b7100000000000000000000000000000000000000000000000000000000600052602260045260246000fd5b60006002820490506001821680612d8757607f821691505b602082108103612d9a57612d99612d40565b5b50919050565b60008190508160005260206000209050919050565b60008154612dc281612d6f565b612dcc8186612cd4565b94506001821660008114612de75760018114612df857612e2b565b60ff19831686528186019350612e2b565b612e0185612da0565b60005b83811015612e2357815481890152600182019150602081019050612e04565b838801955050505b50505092915050565b6000612e408284612db5565b915081905092915050565b50565b6000612e5b600083612cd4565b9150612e6682612e4b565b600082019050919050565b6000612e7c82612e4e565b9150819050919050565b7f4e487b7100000000000000000000000000000000000000000000000000000000600052603260045260246000fd5b7f4e487b7100000000000000000000000000000000000000000000000000000000600052601160045260246000fd5b6000612eef82612947565b91507fffffffffffffffffffffffffffffffffffffffffffffffffffffffffffffffff8203612f2157612f20612eb5565b5b600182019050919050565b6000612f3782612947565b9150612f4283612947565b925082821015612f5557612f54612eb5565b5b828203905092915050565b6000612f6b82612947565b9150612f7683612947565b9250827fffffffffffffffffffffffffffffffffffffffffffffffffffffffffffffffff03821115612fab57612faa612eb5565b5b828201905092915050565b7f4e487b7100000000000000000000000000000000000000000000000000000000600052603160045260246000fd5b612fee816123b9565b82525050565b60006020820190506130096000830184612fe5565b9291505056fea2646970667358221220cd93892154239d1e3368aa11c84194afba8d9ad892e687a03448ce6cae3040e664736f6c634300080d0033",
  "immutableReferences": {},
  "source": "// SPDX-License-Identifier: MIT\npragma solidity >=0.4.22 <0.9.0;\n\ncontract HealthCare {\n\n    mapping(address => uint) authCaller;\n    mapping(address => string) userType;\n    mapping(address => Doctor) docData;\n    mapping(address => MedicalForm) mediData;\n    mapping(address => Patient) patData;\n    mapping(address => MedicalForm[]) treatments;\n    mapping(address => Patient[]) patientList;\n\n    constructor() public {\n        authCaller[msg.sender] = 1;\n    }\n\n    struct Doctor {\n        address docAddr;\n        string hospital;\n    }\n\n    struct Patient {\n        address patAddr;\n        string name;\n        string age;\n    }\n\n    struct MedicalForm {\n        address patientAddr;\n        string patientName;\n        string patientAge;\n        string patientWeight;\n        string patientHeight;\n        string symptom;\n        string description;\n        uint state;\n    }\n\n    // event\n    event DoctorAdd(address doctorAddr);\n    \n    // * Doctor *\n    function addDoctor(address doctorAddr, string memory _hospital) public returns(bool) {\n        require(keccak256(abi.encodePacked(userType[msg.sender]))\n        == keccak256(abi.encodePacked(\"\")));\n\n        userType[msg.sender] = 'doctor';\n        docData[msg.sender].docAddr = doctorAddr;\n        docData[msg.sender].hospital = _hospital;\n        emit DoctorAdd(msg.sender);\n        return true;\n    }\n\n    // CRUD Patient Data\n\n    // Create\n    function addPatientData(address _patientAddr, string memory _patientName, string memory _patientAge,\n    string memory _patientWeight, string memory _patientHeight, string memory _symptom, string memory _description) \n    public returns(Patient[] memory) {\n        require(keccak256(abi.encodePacked(userType[msg.sender])) == keccak256(abi.encodePacked(\"doctor\")));\n\n        treatments[_patientAddr].push(MedicalForm(_patientAddr, _patientName, _patientAge, _patientWeight, _patientHeight,\n        _symptom, _description, 0));\n\n        patientList[msg.sender].push(Patient(_patientAddr, _patientName, _patientAge));\n        // for(uint i = 0; i < patientList[msg.sender].length; i++) {\n        //     uint same = 0;\n        //     if(i == 0) {\n        //         patientList[msg.sender].push(Patient(_patientAddr, _patientName, _patientAge));\n        //     }\n        //     for(uint j = 1; j <= patientList[msg.sender].length; j++) {\n        //         if(patientList[msg.sender][i].patAddr == patientList[msg.sender][j].patAddr) {\n        //               same++;\n        //         }\n        //     }\n        //     if(same == 0) {\n        //         patientList[msg.sender].push(Patient(_patientAddr, _patientName, _patientAge));\n        //     }\n        // }\n        return patientList[msg.sender];\n    }\n\n    // Read\n    function readPatientData(address _patientAddr) public view returns(MedicalForm memory) {\n        return treatments[_patientAddr][0];\n    }\n\n    // Update\n    function updatePatientData(address _patientAddr, string memory _patientName, string memory _patientAge,\n    string memory _patientWeight, string memory _patientHeight, string memory _symptom, string memory _description)\n    public returns(bool) {\n        require(keccak256(abi.encodePacked(userType[msg.sender])) == keccak256(abi.encodePacked(\"doctor\")));\n\n        mediData[_patientAddr].patientAddr = _patientAddr;\n        mediData[_patientAddr].patientName = _patientName;\n        mediData[_patientAddr].patientAge = _patientAge;\n        mediData[_patientAddr].patientWeight = _patientWeight;\n        mediData[_patientAddr].patientHeight = _patientHeight;\n        mediData[_patientAddr].symptom = _symptom;\n        mediData[_patientAddr].description = _description;\n\n        return true;\n    }\n\n    // Delete\n    function deletePatientData(address _patientAddr) public returns(bool) {\n        require(keccak256(abi.encodePacked(userType[msg.sender])) == keccak256(abi.encodePacked(\"doctor\")));\n\n        uint index;\n\n        for(uint i = 0; i < patientList[msg.sender].length; i++) {\n            if(patientList[msg.sender][i].patAddr == _patientAddr) {\n                index = i;\n            }\n        }\n        uint size = patientList[msg.sender].length;\n        patientList[msg.sender][index] = patientList[msg.sender][size - 1];\n        for(uint i = index; i < patientList[msg.sender].length - 1; i++) {\n            patientList[msg.sender][i] = patientList[msg.sender][i + 1];\n        }\n\n        patientList[msg.sender].pop();\n\n        return true;\n    }\n\n    // get patient list\n    function getPatientList() view public returns (Patient[] memory){\n        require(keccak256(abi.encodePacked(userType[msg.sender])) == keccak256(abi.encodePacked(\"doctor\")));\n        return patientList[msg.sender];\n    }\n\n    // paitent\n    function addPatient(address _patAddr, string memory _name, string memory _age) public returns (bool) {\n        require(keccak256(abi.encodePacked(userType[msg.sender])) == keccak256(abi.encodePacked(\"\")));\n\n        userType[msg.sender] = \"patient\";\n        patData[msg.sender].patAddr = _patAddr;\n        patData[msg.sender].name = _name;\n        patData[msg.sender].age = _age;\n\n        return true;\n    }\n\n    // Read Test \n    function readPatientTreats(address _patientAddr) public view returns(MedicalForm[] memory) {\n        return treatments[_patientAddr];\n    }\n\n    // get user\n    function getUser(address userAddr) view public returns(string memory) {\n        return userType[userAddr];\n    }\n}",
  "sourcePath": "/home/inlab/Desktop/wotjr/health-care-DApp/contract/contracts/HealthCare.sol",
  "compiler": {
    "name": "solc",
    "version": "0.8.13+commit.abaa5c0e.Emscripten.clang"
  },
  "schemaVersion": "3.4.7",
  "updatedAt": "2022-05-25T04:38:46.094Z",
  "networkType": "ethereum",
  "devdoc": {
    "kind": "dev",
    "methods": {},
    "version": 1
  },
  "userdoc": {
    "kind": "user",
    "methods": {},
    "version": 1
  }
}