{
  "contractName": "HealthCare",
  "abi": [
    {
      "inputs": [],
      "stateMutability": "nonpayable",
      "type": "constructor"
    },
    {
      "anonymous": false,
      "inputs": [
        {
          "indexed": false,
          "internalType": "address",
          "name": "doctorAddr",
          "type": "address"
        }
      ],
      "name": "DoctorAdd",
      "type": "event"
    },
    {
      "inputs": [
        {
          "internalType": "address",
          "name": "doctorAddr",
          "type": "address"
        },
        {
          "internalType": "string",
          "name": "_name",
          "type": "string"
        },
        {
          "internalType": "string",
          "name": "_hospital",
          "type": "string"
        }
      ],
      "name": "addDoctor",
      "outputs": [
        {
          "internalType": "bool",
          "name": "",
          "type": "bool"
        }
      ],
      "stateMutability": "nonpayable",
      "type": "function"
    },
    {
      "inputs": [
        {
          "internalType": "address",
          "name": "_patientAddr",
          "type": "address"
        },
        {
          "internalType": "string",
          "name": "_patientName",
          "type": "string"
        },
        {
          "internalType": "string",
          "name": "_patientAge",
          "type": "string"
        },
        {
          "internalType": "string",
          "name": "_patientWeight",
          "type": "string"
        },
        {
          "internalType": "string",
          "name": "_patientHeight",
          "type": "string"
        },
        {
          "internalType": "string",
          "name": "_symptom",
          "type": "string"
        },
        {
          "internalType": "string",
          "name": "_description",
          "type": "string"
        },
        {
          "internalType": "address",
          "name": "_doctorAddr",
          "type": "address"
        },
        {
          "internalType": "string",
          "name": "_doctorName",
          "type": "string"
        },
        {
          "internalType": "string",
          "name": "_hospital",
          "type": "string"
        },
        {
          "internalType": "string",
          "name": "_createdAt",
          "type": "string"
        }
      ],
      "name": "addPatientData",
      "outputs": [
        {
          "components": [
            {
              "internalType": "address",
              "name": "patAddr",
              "type": "address"
            },
            {
              "internalType": "string",
              "name": "name",
              "type": "string"
            },
            {
              "internalType": "string",
              "name": "age",
              "type": "string"
            }
          ],
          "internalType": "struct HealthCare.Patient[]",
          "name": "",
          "type": "tuple[]"
        }
      ],
      "stateMutability": "nonpayable",
      "type": "function"
    },
    {
      "inputs": [
        {
          "internalType": "address",
          "name": "_patientAddr",
          "type": "address"
        }
      ],
      "name": "readPatientData",
      "outputs": [
        {
          "components": [
            {
              "internalType": "address",
              "name": "patientAddr",
              "type": "address"
            },
            {
              "internalType": "string",
              "name": "patientName",
              "type": "string"
            },
            {
              "internalType": "string",
              "name": "patientAge",
              "type": "string"
            },
            {
              "internalType": "string",
              "name": "patientWeight",
              "type": "string"
            },
            {
              "internalType": "string",
              "name": "patientHeight",
              "type": "string"
            },
            {
              "internalType": "string",
              "name": "symptom",
              "type": "string"
            },
            {
              "internalType": "string",
              "name": "description",
              "type": "string"
            },
            {
              "internalType": "string",
              "name": "doctorName",
              "type": "string"
            },
            {
              "internalType": "string",
              "name": "hospital",
              "type": "string"
            },
            {
              "internalType": "address",
              "name": "doctorAddr",
              "type": "address"
            },
            {
              "internalType": "string",
              "name": "createdAt",
              "type": "string"
            },
            {
              "internalType": "string",
              "name": "updatedAt",
              "type": "string"
            }
          ],
          "internalType": "struct HealthCare.MedicalForm",
          "name": "",
          "type": "tuple"
        }
      ],
      "stateMutability": "view",
      "type": "function",
      "constant": true
    },
    {
      "inputs": [
        {
          "internalType": "address",
          "name": "_patientAddr",
          "type": "address"
        },
        {
          "internalType": "string",
          "name": "_patientName",
          "type": "string"
        },
        {
          "internalType": "string",
          "name": "_patientAge",
          "type": "string"
        },
        {
          "internalType": "string",
          "name": "_patientWeight",
          "type": "string"
        },
        {
          "internalType": "string",
          "name": "_patientHeight",
          "type": "string"
        },
        {
          "internalType": "string",
          "name": "_symptom",
          "type": "string"
        },
        {
          "internalType": "string",
          "name": "_description",
          "type": "string"
        },
        {
          "internalType": "string",
          "name": "_updateAt",
          "type": "string"
        },
        {
          "internalType": "uint256",
          "name": "index",
          "type": "uint256"
        }
      ],
      "name": "updatePatientData",
      "outputs": [
        {
          "internalType": "bool",
          "name": "",
          "type": "bool"
        }
      ],
      "stateMutability": "nonpayable",
      "type": "function"
    },
    {
      "inputs": [
        {
          "internalType": "address",
          "name": "_doctorAddr",
          "type": "address"
        },
        {
          "internalType": "address",
          "name": "_patientAddr",
          "type": "address"
        },
        {
          "internalType": "uint256",
          "name": "index",
          "type": "uint256"
        }
      ],
      "name": "deletePatientData",
      "outputs": [
        {
          "internalType": "bool",
          "name": "",
          "type": "bool"
        }
      ],
      "stateMutability": "nonpayable",
      "type": "function"
    },
    {
      "inputs": [
        {
          "internalType": "address",
          "name": "_doctorAddr",
          "type": "address"
        }
      ],
      "name": "getPatientList",
      "outputs": [
        {
          "components": [
            {
              "internalType": "address",
              "name": "patAddr",
              "type": "address"
            },
            {
              "internalType": "string",
              "name": "name",
              "type": "string"
            },
            {
              "internalType": "string",
              "name": "age",
              "type": "string"
            }
          ],
          "internalType": "struct HealthCare.Patient[]",
          "name": "",
          "type": "tuple[]"
        }
      ],
      "stateMutability": "view",
      "type": "function",
      "constant": true
    },
    {
      "inputs": [
        {
          "internalType": "address",
          "name": "_patAddr",
          "type": "address"
        },
        {
          "internalType": "string",
          "name": "_name",
          "type": "string"
        },
        {
          "internalType": "string",
          "name": "_age",
          "type": "string"
        }
      ],
      "name": "addPatient",
      "outputs": [
        {
          "internalType": "bool",
          "name": "",
          "type": "bool"
        }
      ],
      "stateMutability": "nonpayable",
      "type": "function"
    },
    {
      "inputs": [
        {
          "internalType": "address",
          "name": "_patientAddr",
          "type": "address"
        }
      ],
      "name": "readPatientTreats",
      "outputs": [
        {
          "components": [
            {
              "internalType": "address",
              "name": "patientAddr",
              "type": "address"
            },
            {
              "internalType": "string",
              "name": "patientName",
              "type": "string"
            },
            {
              "internalType": "string",
              "name": "patientAge",
              "type": "string"
            },
            {
              "internalType": "string",
              "name": "patientWeight",
              "type": "string"
            },
            {
              "internalType": "string",
              "name": "patientHeight",
              "type": "string"
            },
            {
              "internalType": "string",
              "name": "symptom",
              "type": "string"
            },
            {
              "internalType": "string",
              "name": "description",
              "type": "string"
            },
            {
              "internalType": "string",
              "name": "doctorName",
              "type": "string"
            },
            {
              "internalType": "string",
              "name": "hospital",
              "type": "string"
            },
            {
              "internalType": "address",
              "name": "doctorAddr",
              "type": "address"
            },
            {
              "internalType": "string",
              "name": "createdAt",
              "type": "string"
            },
            {
              "internalType": "string",
              "name": "updatedAt",
              "type": "string"
            }
          ],
          "internalType": "struct HealthCare.MedicalForm[]",
          "name": "",
          "type": "tuple[]"
        }
      ],
      "stateMutability": "view",
      "type": "function",
      "constant": true
    },
    {
      "inputs": [
        {
          "internalType": "address",
          "name": "_patientAddr",
          "type": "address"
        }
      ],
      "name": "getDoctorList",
      "outputs": [
        {
          "components": [
            {
              "internalType": "address",
              "name": "docAddr",
              "type": "address"
            },
            {
              "internalType": "string",
              "name": "name",
              "type": "string"
            },
            {
              "internalType": "string",
              "name": "hospital",
              "type": "string"
            }
          ],
          "internalType": "struct HealthCare.Doctor[]",
          "name": "",
          "type": "tuple[]"
        }
      ],
      "stateMutability": "view",
      "type": "function",
      "constant": true
    },
    {
      "inputs": [
        {
          "internalType": "address",
          "name": "userAddr",
          "type": "address"
        }
      ],
      "name": "getUser",
      "outputs": [
        {
          "internalType": "string",
          "name": "",
          "type": "string"
        }
      ],
      "stateMutability": "view",
      "type": "function",
      "constant": true
    }
  ],
  "bytecode": "0x608060405234801561001057600080fd5b5060016000803373ffffffffffffffffffffffffffffffffffffffff1673ffffffffffffffffffffffffffffffffffffffff16815260200190815260200160002081905550614a5a806100646000396000f3fe608060405234801561001057600080fd5b506004361061009e5760003560e01c8063849a88af11610066578063849a88af146101935780639c911309146101c3578063a3a1715f146101f3578063f48f4ce514610223578063fc23fcff146102535761009e565b806334b78998146100a357806337b16b50146100d35780633a25ab1d146101035780635951d862146101335780636f77926b14610163575b600080fd5b6100bd60048036038101906100b89190613aef565b610283565b6040516100ca9190613b95565b60405180910390f35b6100ed60048036038101906100e89190613aef565b610513565b6040516100fa9190613b95565b60405180910390f35b61011d60048036038101906101189190613bb0565b61076c565b60405161012a9190613db7565b60405180910390f35b61014d60048036038101906101489190613e0f565b610e47565b60405161015a9190613b95565b60405180910390f35b61017d60048036038101906101789190613bb0565b6112d0565b60405161018a9190613fe7565b60405180910390f35b6101ad60048036038101906101a89190614009565b6113a1565b6040516101ba9190613b95565b60405180910390f35b6101dd60048036038101906101d89190613bb0565b6123de565b6040516101ea9190614175565b60405180910390f35b61020d60048036038101906102089190614197565b61268a565b60405161021a9190614175565b60405180910390f35b61023d60048036038101906102389190613bb0565b612e23565b60405161024a919061458c565b60405180910390f35b61026d60048036038101906102689190613bb0565b613522565b60405161027a91906146c7565b60405180910390f35b60006040516020016102949061471a565b60405160208183030381529060405280519060200120600160003373ffffffffffffffffffffffffffffffffffffffff1673ffffffffffffffffffffffffffffffffffffffff1681526020019081526020016000206040516020016102f99190614823565b604051602081830303815290604052805190602001201461031957600080fd5b6040518060400160405280600681526020017f646f63746f720000000000000000000000000000000000000000000000000000815250600160003373ffffffffffffffffffffffffffffffffffffffff1673ffffffffffffffffffffffffffffffffffffffff16815260200190815260200160002090805190602001906103a192919061373a565b5083600260003373ffffffffffffffffffffffffffffffffffffffff1673ffffffffffffffffffffffffffffffffffffffff16815260200190815260200160002060000160006101000a81548173ffffffffffffffffffffffffffffffffffffffff021916908373ffffffffffffffffffffffffffffffffffffffff16021790555082600260003373ffffffffffffffffffffffffffffffffffffffff1673ffffffffffffffffffffffffffffffffffffffff168152602001908152602001600020600101908051906020019061047992919061373a565b5081600260003373ffffffffffffffffffffffffffffffffffffffff1673ffffffffffffffffffffffffffffffffffffffff16815260200190815260200160002060020190805190602001906104d092919061373a565b507fe7251797390b3bf67da13c0ee0dd7d9ef534eee527bb92b1c849c4ea152ef550336040516105009190614849565b60405180910390a1600190509392505050565b60006040516020016105249061471a565b60405160208183030381529060405280519060200120600160003373ffffffffffffffffffffffffffffffffffffffff1673ffffffffffffffffffffffffffffffffffffffff1681526020019081526020016000206040516020016105899190614823565b60405160208183030381529060405280519060200120146105a957600080fd5b6040518060400160405280600781526020017f70617469656e7400000000000000000000000000000000000000000000000000815250600160003373ffffffffffffffffffffffffffffffffffffffff1673ffffffffffffffffffffffffffffffffffffffff168152602001908152602001600020908051906020019061063192919061373a565b5083600460003373ffffffffffffffffffffffffffffffffffffffff1673ffffffffffffffffffffffffffffffffffffffff16815260200190815260200160002060000160006101000a81548173ffffffffffffffffffffffffffffffffffffffff021916908373ffffffffffffffffffffffffffffffffffffffff16021790555082600460003373ffffffffffffffffffffffffffffffffffffffff1673ffffffffffffffffffffffffffffffffffffffff168152602001908152602001600020600101908051906020019061070992919061373a565b5081600460003373ffffffffffffffffffffffffffffffffffffffff1673ffffffffffffffffffffffffffffffffffffffff168152602001908152602001600020600201908051906020019061076092919061373a565b50600190509392505050565b6107746137c0565b600560008373ffffffffffffffffffffffffffffffffffffffff1673ffffffffffffffffffffffffffffffffffffffff1681526020019081526020016000206000815481106107c6576107c5614864565b5b90600052602060002090600c0201604051806101800160405290816000820160009054906101000a900473ffffffffffffffffffffffffffffffffffffffff1673ffffffffffffffffffffffffffffffffffffffff1673ffffffffffffffffffffffffffffffffffffffff1681526020016001820180546108469061475e565b80601f01602080910402602001604051908101604052809291908181526020018280546108729061475e565b80156108bf5780601f10610894576101008083540402835291602001916108bf565b820191906000526020600020905b8154815290600101906020018083116108a257829003601f168201915b505050505081526020016002820180546108d89061475e565b80601f01602080910402602001604051908101604052809291908181526020018280546109049061475e565b80156109515780601f1061092657610100808354040283529160200191610951565b820191906000526020600020905b81548152906001019060200180831161093457829003601f168201915b5050505050815260200160038201805461096a9061475e565b80601f01602080910402602001604051908101604052809291908181526020018280546109969061475e565b80156109e35780601f106109b8576101008083540402835291602001916109e3565b820191906000526020600020905b8154815290600101906020018083116109c657829003601f168201915b505050505081526020016004820180546109fc9061475e565b80601f0160208091040260200160405190810160405280929190818152602001828054610a289061475e565b8015610a755780601f10610a4a57610100808354040283529160200191610a75565b820191906000526020600020905b815481529060010190602001808311610a5857829003601f168201915b50505050508152602001600582018054610a8e9061475e565b80601f0160208091040260200160405190810160405280929190818152602001828054610aba9061475e565b8015610b075780601f10610adc57610100808354040283529160200191610b07565b820191906000526020600020905b815481529060010190602001808311610aea57829003601f168201915b50505050508152602001600682018054610b209061475e565b80601f0160208091040260200160405190810160405280929190818152602001828054610b4c9061475e565b8015610b995780601f10610b6e57610100808354040283529160200191610b99565b820191906000526020600020905b815481529060010190602001808311610b7c57829003601f168201915b50505050508152602001600782018054610bb29061475e565b80601f0160208091040260200160405190810160405280929190818152602001828054610bde9061475e565b8015610c2b5780601f10610c0057610100808354040283529160200191610c2b565b820191906000526020600020905b815481529060010190602001808311610c0e57829003601f168201915b50505050508152602001600882018054610c449061475e565b80601f0160208091040260200160405190810160405280929190818152602001828054610c709061475e565b8015610cbd5780601f10610c9257610100808354040283529160200191610cbd565b820191906000526020600020905b815481529060010190602001808311610ca057829003601f168201915b505050505081526020016009820160009054906101000a900473ffffffffffffffffffffffffffffffffffffffff1673ffffffffffffffffffffffffffffffffffffffff1673ffffffffffffffffffffffffffffffffffffffff168152602001600a82018054610d2c9061475e565b80601f0160208091040260200160405190810160405280929190818152602001828054610d589061475e565b8015610da55780601f10610d7a57610100808354040283529160200191610da5565b820191906000526020600020905b815481529060010190602001808311610d8857829003601f168201915b50505050508152602001600b82018054610dbe9061475e565b80601f0160208091040260200160405190810160405280929190818152602001828054610dea9061475e565b8015610e375780601f10610e0c57610100808354040283529160200191610e37565b820191906000526020600020905b815481529060010190602001808311610e1a57829003601f168201915b5050505050815250509050919050565b6000604051602001610e58906148df565b60405160208183030381529060405280519060200120600160003373ffffffffffffffffffffffffffffffffffffffff1673ffffffffffffffffffffffffffffffffffffffff168152602001908152602001600020604051602001610ebd9190614823565b6040516020818303038152906040528051906020012014610edd57600080fd5b89600560008c73ffffffffffffffffffffffffffffffffffffffff1673ffffffffffffffffffffffffffffffffffffffff1681526020019081526020016000208381548110610f2f57610f2e614864565b5b90600052602060002090600c020160000160006101000a81548173ffffffffffffffffffffffffffffffffffffffff021916908373ffffffffffffffffffffffffffffffffffffffff16021790555088600560008c73ffffffffffffffffffffffffffffffffffffffff1673ffffffffffffffffffffffffffffffffffffffff1681526020019081526020016000208381548110610fd057610fcf614864565b5b90600052602060002090600c02016001019080519060200190610ff492919061373a565b5087600560008c73ffffffffffffffffffffffffffffffffffffffff1673ffffffffffffffffffffffffffffffffffffffff168152602001908152602001600020838154811061104757611046614864565b5b90600052602060002090600c0201600201908051906020019061106b92919061373a565b5086600560008c73ffffffffffffffffffffffffffffffffffffffff1673ffffffffffffffffffffffffffffffffffffffff16815260200190815260200160002083815481106110be576110bd614864565b5b90600052602060002090600c020160030190805190602001906110e292919061373a565b5085600560008c73ffffffffffffffffffffffffffffffffffffffff1673ffffffffffffffffffffffffffffffffffffffff168152602001908152602001600020838154811061113557611134614864565b5b90600052602060002090600c0201600401908051906020019061115992919061373a565b5084600560008c73ffffffffffffffffffffffffffffffffffffffff1673ffffffffffffffffffffffffffffffffffffffff16815260200190815260200160002083815481106111ac576111ab614864565b5b90600052602060002090600c020160050190805190602001906111d092919061373a565b5083600560008c73ffffffffffffffffffffffffffffffffffffffff1673ffffffffffffffffffffffffffffffffffffffff168152602001908152602001600020838154811061122357611222614864565b5b90600052602060002090600c0201600601908051906020019061124792919061373a565b5082600560008c73ffffffffffffffffffffffffffffffffffffffff1673ffffffffffffffffffffffffffffffffffffffff168152602001908152602001600020838154811061129a57611299614864565b5b90600052602060002090600c0201600b0190805190602001906112be92919061373a565b50600190509998505050505050505050565b6060600160008373ffffffffffffffffffffffffffffffffffffffff1673ffffffffffffffffffffffffffffffffffffffff168152602001908152602001600020805461131c9061475e565b80601f01602080910402602001604051908101604052809291908181526020018280546113489061475e565b80156113955780601f1061136a57610100808354040283529160200191611395565b820191906000526020600020905b81548152906001019060200180831161137857829003601f168201915b50505050509050919050565b60006040516020016113b2906148df565b60405160208183030381529060405280519060200120600160003373ffffffffffffffffffffffffffffffffffffffff1673ffffffffffffffffffffffffffffffffffffffff1681526020019081526020016000206040516020016114179190614823565b604051602081830303815290604052805190602001201461143757600080fd5b6000600660008673ffffffffffffffffffffffffffffffffffffffff1673ffffffffffffffffffffffffffffffffffffffff168152602001908152602001600020805490509050600660008673ffffffffffffffffffffffffffffffffffffffff1673ffffffffffffffffffffffffffffffffffffffff1681526020019081526020016000206001826114ca9190614923565b815481106114db576114da614864565b5b9060005260206000209060030201600660008773ffffffffffffffffffffffffffffffffffffffff1673ffffffffffffffffffffffffffffffffffffffff168152602001908152602001600020848154811061153a57611539614864565b5b90600052602060002090600302016000820160009054906101000a900473ffffffffffffffffffffffffffffffffffffffff168160000160006101000a81548173ffffffffffffffffffffffffffffffffffffffff021916908373ffffffffffffffffffffffffffffffffffffffff16021790555060018201816001019080546115c39061475e565b6115ce92919061384d565b5060028201816002019080546115e39061475e565b6115ee92919061384d565b5090505060008390505b6001826116059190614923565b81101561179357600660008773ffffffffffffffffffffffffffffffffffffffff1673ffffffffffffffffffffffffffffffffffffffff1681526020019081526020016000206001826116589190614957565b8154811061166957611668614864565b5b9060005260206000209060030201600660008873ffffffffffffffffffffffffffffffffffffffff1673ffffffffffffffffffffffffffffffffffffffff16815260200190815260200160002082815481106116c8576116c7614864565b5b90600052602060002090600302016000820160009054906101000a900473ffffffffffffffffffffffffffffffffffffffff168160000160006101000a81548173ffffffffffffffffffffffffffffffffffffffff021916908373ffffffffffffffffffffffffffffffffffffffff16021790555060018201816001019080546117519061475e565b61175c92919061384d565b5060028201816002019080546117719061475e565b61177c92919061384d565b50905050808061178b906149ad565b9150506115f8565b50600660008673ffffffffffffffffffffffffffffffffffffffff1673ffffffffffffffffffffffffffffffffffffffff1681526020019081526020016000208054806117e3576117e26149f5565b5b6001900381819060005260206000209060030201600080820160006101000a81549073ffffffffffffffffffffffffffffffffffffffff021916905560018201600061182f91906138da565b60028201600061183f91906138da565b505090556000600560008673ffffffffffffffffffffffffffffffffffffffff1673ffffffffffffffffffffffffffffffffffffffff168152602001908152602001600020805490509050600560008673ffffffffffffffffffffffffffffffffffffffff1673ffffffffffffffffffffffffffffffffffffffff1681526020019081526020016000206001826118d69190614923565b815481106118e7576118e6614864565b5b90600052602060002090600c0201600560008773ffffffffffffffffffffffffffffffffffffffff1673ffffffffffffffffffffffffffffffffffffffff168152602001908152602001600020858154811061194657611945614864565b5b90600052602060002090600c02016000820160009054906101000a900473ffffffffffffffffffffffffffffffffffffffff168160000160006101000a81548173ffffffffffffffffffffffffffffffffffffffff021916908373ffffffffffffffffffffffffffffffffffffffff16021790555060018201816001019080546119cf9061475e565b6119da92919061384d565b5060028201816002019080546119ef9061475e565b6119fa92919061384d565b506003820181600301908054611a0f9061475e565b611a1a92919061384d565b506004820181600401908054611a2f9061475e565b611a3a92919061384d565b506005820181600501908054611a4f9061475e565b611a5a92919061384d565b506006820181600601908054611a6f9061475e565b611a7a92919061384d565b506007820181600701908054611a8f9061475e565b611a9a92919061384d565b506008820181600801908054611aaf9061475e565b611aba92919061384d565b506009820160009054906101000a900473ffffffffffffffffffffffffffffffffffffffff168160090160006101000a81548173ffffffffffffffffffffffffffffffffffffffff021916908373ffffffffffffffffffffffffffffffffffffffff160217905550600a820181600a01908054611b369061475e565b611b4192919061384d565b50600b820181600b01908054611b569061475e565b611b6192919061384d565b5090505060008490505b600182611b789190614923565b811015611e6d57600560008773ffffffffffffffffffffffffffffffffffffffff1673ffffffffffffffffffffffffffffffffffffffff168152602001908152602001600020600182611bcb9190614957565b81548110611bdc57611bdb614864565b5b90600052602060002090600c0201600560008873ffffffffffffffffffffffffffffffffffffffff1673ffffffffffffffffffffffffffffffffffffffff1681526020019081526020016000208281548110611c3b57611c3a614864565b5b90600052602060002090600c02016000820160009054906101000a900473ffffffffffffffffffffffffffffffffffffffff168160000160006101000a81548173ffffffffffffffffffffffffffffffffffffffff021916908373ffffffffffffffffffffffffffffffffffffffff1602179055506001820181600101908054611cc49061475e565b611ccf92919061384d565b506002820181600201908054611ce49061475e565b611cef92919061384d565b506003820181600301908054611d049061475e565b611d0f92919061384d565b506004820181600401908054611d249061475e565b611d2f92919061384d565b506005820181600501908054611d449061475e565b611d4f92919061384d565b506006820181600601908054611d649061475e565b611d6f92919061384d565b506007820181600701908054611d849061475e565b611d8f92919061384d565b506008820181600801908054611da49061475e565b611daf92919061384d565b506009820160009054906101000a900473ffffffffffffffffffffffffffffffffffffffff168160090160006101000a81548173ffffffffffffffffffffffffffffffffffffffff021916908373ffffffffffffffffffffffffffffffffffffffff160217905550600a820181600a01908054611e2b9061475e565b611e3692919061384d565b50600b820181600b01908054611e4b9061475e565b611e5692919061384d565b509050508080611e65906149ad565b915050611b6b565b50600560008673ffffffffffffffffffffffffffffffffffffffff1673ffffffffffffffffffffffffffffffffffffffff168152602001908152602001600020805480611ebd57611ebc6149f5565b5b60019003818190600052602060002090600c0201600080820160006101000a81549073ffffffffffffffffffffffffffffffffffffffff0219169055600182016000611f0991906138da565b600282016000611f1991906138da565b600382016000611f2991906138da565b600482016000611f3991906138da565b600582016000611f4991906138da565b600682016000611f5991906138da565b600782016000611f6991906138da565b600882016000611f7991906138da565b6009820160006101000a81549073ffffffffffffffffffffffffffffffffffffffff0219169055600a82016000611fb091906138da565b600b82016000611fc091906138da565b505090556000600760008773ffffffffffffffffffffffffffffffffffffffff1673ffffffffffffffffffffffffffffffffffffffff168152602001908152602001600020805490509050600760008773ffffffffffffffffffffffffffffffffffffffff1673ffffffffffffffffffffffffffffffffffffffff1681526020019081526020016000206001826120579190614923565b8154811061206857612067614864565b5b9060005260206000209060030201600760008873ffffffffffffffffffffffffffffffffffffffff1673ffffffffffffffffffffffffffffffffffffffff16815260200190815260200160002086815481106120c7576120c6614864565b5b90600052602060002090600302016000820160009054906101000a900473ffffffffffffffffffffffffffffffffffffffff168160000160006101000a81548173ffffffffffffffffffffffffffffffffffffffff021916908373ffffffffffffffffffffffffffffffffffffffff16021790555060018201816001019080546121509061475e565b61215b92919061384d565b5060028201816002019080546121709061475e565b61217b92919061384d565b5090505060008590505b6001826121929190614923565b81101561232057600760008873ffffffffffffffffffffffffffffffffffffffff1673ffffffffffffffffffffffffffffffffffffffff1681526020019081526020016000206001826121e59190614957565b815481106121f6576121f5614864565b5b9060005260206000209060030201600760008973ffffffffffffffffffffffffffffffffffffffff1673ffffffffffffffffffffffffffffffffffffffff168152602001908152602001600020828154811061225557612254614864565b5b90600052602060002090600302016000820160009054906101000a900473ffffffffffffffffffffffffffffffffffffffff168160000160006101000a81548173ffffffffffffffffffffffffffffffffffffffff021916908373ffffffffffffffffffffffffffffffffffffffff16021790555060018201816001019080546122de9061475e565b6122e992919061384d565b5060028201816002019080546122fe9061475e565b61230992919061384d565b509050508080612318906149ad565b915050612185565b50600760008773ffffffffffffffffffffffffffffffffffffffff1673ffffffffffffffffffffffffffffffffffffffff1681526020019081526020016000208054806123705761236f6149f5565b5b6001900381819060005260206000209060030201600080820160006101000a81549073ffffffffffffffffffffffffffffffffffffffff02191690556001820160006123bc91906138da565b6002820160006123cc91906138da565b50509055600193505050509392505050565b60606040516020016123ef906148df565b60405160208183030381529060405280519060200120600160003373ffffffffffffffffffffffffffffffffffffffff1673ffffffffffffffffffffffffffffffffffffffff1681526020019081526020016000206040516020016124549190614823565b604051602081830303815290604052805190602001201461247457600080fd5b600660008373ffffffffffffffffffffffffffffffffffffffff1673ffffffffffffffffffffffffffffffffffffffff168152602001908152602001600020805480602002602001604051908101604052809291908181526020016000905b8282101561267f57838290600052602060002090600302016040518060600160405290816000820160009054906101000a900473ffffffffffffffffffffffffffffffffffffffff1673ffffffffffffffffffffffffffffffffffffffff1673ffffffffffffffffffffffffffffffffffffffff16815260200160018201805461255c9061475e565b80601f01602080910402602001604051908101604052809291908181526020018280546125889061475e565b80156125d55780601f106125aa576101008083540402835291602001916125d5565b820191906000526020600020905b8154815290600101906020018083116125b857829003601f168201915b505050505081526020016002820180546125ee9061475e565b80601f016020809104026020016040519081016040528092919081815260200182805461261a9061475e565b80156126675780601f1061263c57610100808354040283529160200191612667565b820191906000526020600020905b81548152906001019060200180831161264a57829003601f168201915b505050505081525050815260200190600101906124d3565b505050509050919050565b606060405160200161269b906148df565b60405160208183030381529060405280519060200120600160003373ffffffffffffffffffffffffffffffffffffffff1673ffffffffffffffffffffffffffffffffffffffff1681526020019081526020016000206040516020016127009190614823565b604051602081830303815290604052805190602001201461272057600080fd5b600560008d73ffffffffffffffffffffffffffffffffffffffff1673ffffffffffffffffffffffffffffffffffffffff1681526020019081526020016000206040518061018001604052808e73ffffffffffffffffffffffffffffffffffffffff1681526020018d81526020018c81526020018b81526020018a81526020018981526020018881526020018681526020018581526020018773ffffffffffffffffffffffffffffffffffffffff1681526020018481526020016040518060200160405280600081525081525090806001815401808255809150506001900390600052602060002090600c020160009091909190915060008201518160000160006101000a81548173ffffffffffffffffffffffffffffffffffffffff021916908373ffffffffffffffffffffffffffffffffffffffff160217905550602082015181600101908051906020019061287892919061373a565b50604082015181600201908051906020019061289592919061373a565b5060608201518160030190805190602001906128b292919061373a565b5060808201518160040190805190602001906128cf92919061373a565b5060a08201518160050190805190602001906128ec92919061373a565b5060c082015181600601908051906020019061290992919061373a565b5060e082015181600701908051906020019061292692919061373a565b5061010082015181600801908051906020019061294492919061373a565b506101208201518160090160006101000a81548173ffffffffffffffffffffffffffffffffffffffff021916908373ffffffffffffffffffffffffffffffffffffffff16021790555061014082015181600a0190805190602001906129aa92919061373a565b5061016082015181600b0190805190602001906129c892919061373a565b505050600760008d73ffffffffffffffffffffffffffffffffffffffff1673ffffffffffffffffffffffffffffffffffffffff16815260200190815260200160002060405180606001604052808773ffffffffffffffffffffffffffffffffffffffff16815260200186815260200185815250908060018154018082558091505060019003906000526020600020906003020160009091909190915060008201518160000160006101000a81548173ffffffffffffffffffffffffffffffffffffffff021916908373ffffffffffffffffffffffffffffffffffffffff1602179055506020820151816001019080519060200190612ac792919061373a565b506040820151816002019080519060200190612ae492919061373a565b505050600660008673ffffffffffffffffffffffffffffffffffffffff1673ffffffffffffffffffffffffffffffffffffffff16815260200190815260200160002060405180606001604052808e73ffffffffffffffffffffffffffffffffffffffff1681526020018d81526020018c815250908060018154018082558091505060019003906000526020600020906003020160009091909190915060008201518160000160006101000a81548173ffffffffffffffffffffffffffffffffffffffff021916908373ffffffffffffffffffffffffffffffffffffffff1602179055506020820151816001019080519060200190612be392919061373a565b506040820151816002019080519060200190612c0092919061373a565b505050600660008673ffffffffffffffffffffffffffffffffffffffff1673ffffffffffffffffffffffffffffffffffffffff168152602001908152602001600020805480602002602001604051908101604052809291908181526020016000905b82821015612e0e57838290600052602060002090600302016040518060600160405290816000820160009054906101000a900473ffffffffffffffffffffffffffffffffffffffff1673ffffffffffffffffffffffffffffffffffffffff1673ffffffffffffffffffffffffffffffffffffffff168152602001600182018054612ceb9061475e565b80601f0160208091040260200160405190810160405280929190818152602001828054612d179061475e565b8015612d645780601f10612d3957610100808354040283529160200191612d64565b820191906000526020600020905b815481529060010190602001808311612d4757829003601f168201915b50505050508152602001600282018054612d7d9061475e565b80601f0160208091040260200160405190810160405280929190818152602001828054612da99061475e565b8015612df65780601f10612dcb57610100808354040283529160200191612df6565b820191906000526020600020905b815481529060010190602001808311612dd957829003601f168201915b50505050508152505081526020019060010190612c62565b5050505090509b9a5050505050505050505050565b6060600560008373ffffffffffffffffffffffffffffffffffffffff1673ffffffffffffffffffffffffffffffffffffffff168152602001908152602001600020805480602002602001604051908101604052809291908181526020016000905b8282101561351757838290600052602060002090600c0201604051806101800160405290816000820160009054906101000a900473ffffffffffffffffffffffffffffffffffffffff1673ffffffffffffffffffffffffffffffffffffffff1673ffffffffffffffffffffffffffffffffffffffff168152602001600182018054612f0e9061475e565b80601f0160208091040260200160405190810160405280929190818152602001828054612f3a9061475e565b8015612f875780601f10612f5c57610100808354040283529160200191612f87565b820191906000526020600020905b815481529060010190602001808311612f6a57829003601f168201915b50505050508152602001600282018054612fa09061475e565b80601f0160208091040260200160405190810160405280929190818152602001828054612fcc9061475e565b80156130195780601f10612fee57610100808354040283529160200191613019565b820191906000526020600020905b815481529060010190602001808311612ffc57829003601f168201915b505050505081526020016003820180546130329061475e565b80601f016020809104026020016040519081016040528092919081815260200182805461305e9061475e565b80156130ab5780601f10613080576101008083540402835291602001916130ab565b820191906000526020600020905b81548152906001019060200180831161308e57829003601f168201915b505050505081526020016004820180546130c49061475e565b80601f01602080910402602001604051908101604052809291908181526020018280546130f09061475e565b801561313d5780601f106131125761010080835404028352916020019161313d565b820191906000526020600020905b81548152906001019060200180831161312057829003601f168201915b505050505081526020016005820180546131569061475e565b80601f01602080910402602001604051908101604052809291908181526020018280546131829061475e565b80156131cf5780601f106131a4576101008083540402835291602001916131cf565b820191906000526020600020905b8154815290600101906020018083116131b257829003601f168201915b505050505081526020016006820180546131e89061475e565b80601f01602080910402602001604051908101604052809291908181526020018280546132149061475e565b80156132615780601f1061323657610100808354040283529160200191613261565b820191906000526020600020905b81548152906001019060200180831161324457829003601f168201915b5050505050815260200160078201805461327a9061475e565b80601f01602080910402602001604051908101604052809291908181526020018280546132a69061475e565b80156132f35780601f106132c8576101008083540402835291602001916132f3565b820191906000526020600020905b8154815290600101906020018083116132d657829003601f168201915b5050505050815260200160088201805461330c9061475e565b80601f01602080910402602001604051908101604052809291908181526020018280546133389061475e565b80156133855780601f1061335a57610100808354040283529160200191613385565b820191906000526020600020905b81548152906001019060200180831161336857829003601f168201915b505050505081526020016009820160009054906101000a900473ffffffffffffffffffffffffffffffffffffffff1673ffffffffffffffffffffffffffffffffffffffff1673ffffffffffffffffffffffffffffffffffffffff168152602001600a820180546133f49061475e565b80601f01602080910402602001604051908101604052809291908181526020018280546134209061475e565b801561346d5780601f106134425761010080835404028352916020019161346d565b820191906000526020600020905b81548152906001019060200180831161345057829003601f168201915b50505050508152602001600b820180546134869061475e565b80601f01602080910402602001604051908101604052809291908181526020018280546134b29061475e565b80156134ff5780601f106134d4576101008083540402835291602001916134ff565b820191906000526020600020905b8154815290600101906020018083116134e257829003601f168201915b50505050508152505081526020019060010190612e84565b505050509050919050565b6060600760008373ffffffffffffffffffffffffffffffffffffffff1673ffffffffffffffffffffffffffffffffffffffff168152602001908152602001600020805480602002602001604051908101604052809291908181526020016000905b8282101561372f57838290600052602060002090600302016040518060600160405290816000820160009054906101000a900473ffffffffffffffffffffffffffffffffffffffff1673ffffffffffffffffffffffffffffffffffffffff1673ffffffffffffffffffffffffffffffffffffffff16815260200160018201805461360c9061475e565b80601f01602080910402602001604051908101604052809291908181526020018280546136389061475e565b80156136855780601f1061365a57610100808354040283529160200191613685565b820191906000526020600020905b81548152906001019060200180831161366857829003601f168201915b5050505050815260200160028201805461369e9061475e565b80601f01602080910402602001604051908101604052809291908181526020018280546136ca9061475e565b80156137175780601f106136ec57610100808354040283529160200191613717565b820191906000526020600020905b8154815290600101906020018083116136fa57829003601f168201915b50505050508152505081526020019060010190613583565b505050509050919050565b8280546137469061475e565b90600052602060002090601f01602090048101928261376857600085556137af565b82601f1061378157805160ff19168380011785556137af565b828001600101855582156137af579182015b828111156137ae578251825591602001919060010190613793565b5b5090506137bc919061391a565b5090565b604051806101800160405280600073ffffffffffffffffffffffffffffffffffffffff1681526020016060815260200160608152602001606081526020016060815260200160608152602001606081526020016060815260200160608152602001600073ffffffffffffffffffffffffffffffffffffffff16815260200160608152602001606081525090565b8280546138599061475e565b90600052602060002090601f01602090048101928261387b57600085556138c9565b82601f1061388c57805485556138c9565b828001600101855582156138c957600052602060002091601f016020900482015b828111156138c85782548255916001019190600101906138ad565b5b5090506138d6919061391a565b5090565b5080546138e69061475e565b6000825580601f106138f85750613917565b601f016020900490600052602060002090810190613916919061391a565b5b50565b5b8082111561393357600081600090555060010161391b565b5090565b6000604051905090565b600080fd5b600080fd5b600073ffffffffffffffffffffffffffffffffffffffff82169050919050565b60006139768261394b565b9050919050565b6139868161396b565b811461399157600080fd5b50565b6000813590506139a38161397d565b92915050565b600080fd5b600080fd5b6000601f19601f8301169050919050565b7f4e487b7100000000000000000000000000000000000000000000000000000000600052604160045260246000fd5b6139fc826139b3565b810181811067ffffffffffffffff82111715613a1b57613a1a6139c4565b5b80604052505050565b6000613a2e613937565b9050613a3a82826139f3565b919050565b600067ffffffffffffffff821115613a5a57613a596139c4565b5b613a63826139b3565b9050602081019050919050565b82818337600083830152505050565b6000613a92613a8d84613a3f565b613a24565b905082815260208101848484011115613aae57613aad6139ae565b5b613ab9848285613a70565b509392505050565b600082601f830112613ad657613ad56139a9565b5b8135613ae6848260208601613a7f565b91505092915050565b600080600060608486031215613b0857613b07613941565b5b6000613b1686828701613994565b935050602084013567ffffffffffffffff811115613b3757613b36613946565b5b613b4386828701613ac1565b925050604084013567ffffffffffffffff811115613b6457613b63613946565b5b613b7086828701613ac1565b9150509250925092565b60008115159050919050565b613b8f81613b7a565b82525050565b6000602082019050613baa6000830184613b86565b92915050565b600060208284031215613bc657613bc5613941565b5b6000613bd484828501613994565b91505092915050565b613be68161396b565b82525050565b600081519050919050565b600082825260208201905092915050565b60005b83811015613c26578082015181840152602081019050613c0b565b83811115613c35576000848401525b50505050565b6000613c4682613bec565b613c508185613bf7565b9350613c60818560208601613c08565b613c69816139b3565b840191505092915050565b600061018083016000830151613c8d6000860182613bdd565b5060208301518482036020860152613ca58282613c3b565b91505060408301518482036040860152613cbf8282613c3b565b91505060608301518482036060860152613cd98282613c3b565b91505060808301518482036080860152613cf38282613c3b565b91505060a083015184820360a0860152613d0d8282613c3b565b91505060c083015184820360c0860152613d278282613c3b565b91505060e083015184820360e0860152613d418282613c3b565b915050610100830151848203610100860152613d5d8282613c3b565b915050610120830151613d74610120860182613bdd565b50610140830151848203610140860152613d8e8282613c3b565b915050610160830151848203610160860152613daa8282613c3b565b9150508091505092915050565b60006020820190508181036000830152613dd18184613c74565b905092915050565b6000819050919050565b613dec81613dd9565b8114613df757600080fd5b50565b600081359050613e0981613de3565b92915050565b60008060008060008060008060006101208a8c031215613e3257613e31613941565b5b6000613e408c828d01613994565b99505060208a013567ffffffffffffffff811115613e6157613e60613946565b5b613e6d8c828d01613ac1565b98505060408a013567ffffffffffffffff811115613e8e57613e8d613946565b5b613e9a8c828d01613ac1565b97505060608a013567ffffffffffffffff811115613ebb57613eba613946565b5b613ec78c828d01613ac1565b96505060808a013567ffffffffffffffff811115613ee857613ee7613946565b5b613ef48c828d01613ac1565b95505060a08a013567ffffffffffffffff811115613f1557613f14613946565b5b613f218c828d01613ac1565b94505060c08a013567ffffffffffffffff811115613f4257613f41613946565b5b613f4e8c828d01613ac1565b93505060e08a013567ffffffffffffffff811115613f6f57613f6e613946565b5b613f7b8c828d01613ac1565b925050610100613f8d8c828d01613dfa565b9150509295985092959850929598565b600082825260208201905092915050565b6000613fb982613bec565b613fc38185613f9d565b9350613fd3818560208601613c08565b613fdc816139b3565b840191505092915050565b600060208201905081810360008301526140018184613fae565b905092915050565b60008060006060848603121561402257614021613941565b5b600061403086828701613994565b935050602061404186828701613994565b925050604061405286828701613dfa565b9150509250925092565b600081519050919050565b600082825260208201905092915050565b6000819050602082019050919050565b60006060830160008301516140a06000860182613bdd565b50602083015184820360208601526140b88282613c3b565b915050604083015184820360408601526140d28282613c3b565b9150508091505092915050565b60006140eb8383614088565b905092915050565b6000602082019050919050565b600061410b8261405c565b6141158185614067565b93508360208202850161412785614078565b8060005b85811015614163578484038952815161414485826140df565b945061414f836140f3565b925060208a0199505060018101905061412b565b50829750879550505050505092915050565b6000602082019050818103600083015261418f8184614100565b905092915050565b60008060008060008060008060008060006101608c8e0312156141bd576141bc613941565b5b60006141cb8e828f01613994565b9b505060208c013567ffffffffffffffff8111156141ec576141eb613946565b5b6141f88e828f01613ac1565b9a505060408c013567ffffffffffffffff81111561421957614218613946565b5b6142258e828f01613ac1565b99505060608c013567ffffffffffffffff81111561424657614245613946565b5b6142528e828f01613ac1565b98505060808c013567ffffffffffffffff81111561427357614272613946565b5b61427f8e828f01613ac1565b97505060a08c013567ffffffffffffffff8111156142a05761429f613946565b5b6142ac8e828f01613ac1565b96505060c08c013567ffffffffffffffff8111156142cd576142cc613946565b5b6142d98e828f01613ac1565b95505060e06142ea8e828f01613994565b9450506101008c013567ffffffffffffffff81111561430c5761430b613946565b5b6143188e828f01613ac1565b9350506101208c013567ffffffffffffffff81111561433a57614339613946565b5b6143468e828f01613ac1565b9250506101408c013567ffffffffffffffff81111561436857614367613946565b5b6143748e828f01613ac1565b9150509295989b509295989b9093969950565b600081519050919050565b600082825260208201905092915050565b6000819050602082019050919050565b6000610180830160008301516143cc6000860182613bdd565b50602083015184820360208601526143e48282613c3b565b915050604083015184820360408601526143fe8282613c3b565b915050606083015184820360608601526144188282613c3b565b915050608083015184820360808601526144328282613c3b565b91505060a083015184820360a086015261444c8282613c3b565b91505060c083015184820360c08601526144668282613c3b565b91505060e083015184820360e08601526144808282613c3b565b91505061010083015184820361010086015261449c8282613c3b565b9150506101208301516144b3610120860182613bdd565b506101408301518482036101408601526144cd8282613c3b565b9150506101608301518482036101608601526144e98282613c3b565b9150508091505092915050565b600061450283836143b3565b905092915050565b6000602082019050919050565b600061452282614387565b61452c8185614392565b93508360208202850161453e856143a3565b8060005b8581101561457a578484038952815161455b85826144f6565b94506145668361450a565b925060208a01995050600181019050614542565b50829750879550505050505092915050565b600060208201905081810360008301526145a68184614517565b905092915050565b600081519050919050565b600082825260208201905092915050565b6000819050602082019050919050565b60006060830160008301516145f26000860182613bdd565b506020830151848203602086015261460a8282613c3b565b915050604083015184820360408601526146248282613c3b565b9150508091505092915050565b600061463d83836145da565b905092915050565b6000602082019050919050565b600061465d826145ae565b61466781856145b9565b935083602082028501614679856145ca565b8060005b858110156146b557848403895281516146968582614631565b94506146a183614645565b925060208a0199505060018101905061467d565b50829750879550505050505092915050565b600060208201905081810360008301526146e18184614652565b905092915050565b600081905092915050565b50565b60006147046000836146e9565b915061470f826146f4565b600082019050919050565b6000614725826146f7565b9150819050919050565b7f4e487b7100000000000000000000000000000000000000000000000000000000600052602260045260246000fd5b6000600282049050600182168061477657607f821691505b6020821081036147895761478861472f565b5b50919050565b60008190508160005260206000209050919050565b600081546147b18161475e565b6147bb81866146e9565b945060018216600081146147d657600181146147e75761481a565b60ff1983168652818601935061481a565b6147f08561478f565b60005b83811015614812578154818901526001820191506020810190506147f3565b838801955050505b50505092915050565b600061482f82846147a4565b915081905092915050565b6148438161396b565b82525050565b600060208201905061485e600083018461483a565b92915050565b7f4e487b7100000000000000000000000000000000000000000000000000000000600052603260045260246000fd5b7f646f63746f720000000000000000000000000000000000000000000000000000600082015250565b60006148c96006836146e9565b91506148d482614893565b600682019050919050565b60006148ea826148bc565b9150819050919050565b7f4e487b7100000000000000000000000000000000000000000000000000000000600052601160045260246000fd5b600061492e82613dd9565b915061493983613dd9565b92508282101561494c5761494b6148f4565b5b828203905092915050565b600061496282613dd9565b915061496d83613dd9565b9250827fffffffffffffffffffffffffffffffffffffffffffffffffffffffffffffffff038211156149a2576149a16148f4565b5b828201905092915050565b60006149b882613dd9565b91507fffffffffffffffffffffffffffffffffffffffffffffffffffffffffffffffff82036149ea576149e96148f4565b5b600182019050919050565b7f4e487b7100000000000000000000000000000000000000000000000000000000600052603160045260246000fdfea2646970667358221220757df8944159635c37c7008cbe2bcea64366530d1c147d11a6276ea2ca97fd5f64736f6c634300080d0033",
  "immutableReferences": {},
  "source": "// SPDX-License-Identifier: MIT\npragma solidity >=0.4.22 <0.9.0;\n\ncontract HealthCare {\n\n    mapping(address => uint) authCaller;\n    mapping(address => string) userType;\n    mapping(address => Doctor) docData;\n    mapping(address => MedicalForm) mediData;\n    mapping(address => Patient) patData;\n    mapping(address => MedicalForm[]) treatments;\n    mapping(address => Patient[]) patientList;\n    mapping(address => Doctor[]) doctorList;\n\n    constructor() public {\n        authCaller[msg.sender] = 1;\n    }\n\n    struct Doctor {\n        address docAddr;\n        string name;\n        string hospital;\n    }\n\n    struct Patient {\n        address patAddr;\n        string name;\n        string age;\n    }\n\n    struct MedicalForm {\n        address patientAddr;\n        string patientName;\n        string patientAge;\n        string patientWeight;\n        string patientHeight;\n        string symptom;\n        string description;\n        string doctorName;\n        string hospital;\n        address doctorAddr;\n        string createdAt;\n        string updatedAt;\n    }\n\n    // event\n    event DoctorAdd(address doctorAddr);\n    \n    // * Doctor *\n    function addDoctor(address doctorAddr,string memory _name, string memory _hospital) public returns(bool) {\n        require(keccak256(abi.encodePacked(userType[msg.sender]))\n        == keccak256(abi.encodePacked(\"\")));\n\n        userType[msg.sender] = 'doctor';\n        docData[msg.sender].docAddr = doctorAddr;\n        docData[msg.sender].name = _name;\n        docData[msg.sender].hospital = _hospital;\n        emit DoctorAdd(msg.sender);\n        return true;\n    }\n\n    // CRUD Patient Data\n\n    // Create\n    function addPatientData(address _patientAddr, string memory _patientName, string memory _patientAge,\n    string memory _patientWeight, string memory _patientHeight, string memory _symptom, string memory _description,\n    address _doctorAddr, string memory _doctorName, string memory _hospital, string memory _createdAt) \n    public returns(Patient[] memory) {\n        require(keccak256(abi.encodePacked(userType[msg.sender])) == keccak256(abi.encodePacked(\"doctor\")));\n\n        treatments[_patientAddr].push(MedicalForm(_patientAddr, _patientName, _patientAge, _patientWeight, _patientHeight,\n        _symptom, _description, _doctorName, _hospital, _doctorAddr, _createdAt, ''));\n\n        doctorList[_patientAddr].push(Doctor(_doctorAddr, _doctorName, _hospital));\n\n        patientList[_doctorAddr].push(Patient(_patientAddr, _patientName, _patientAge));\n        return patientList[_doctorAddr];\n    }\n\n    // Read\n    function readPatientData(address _patientAddr) public view returns(MedicalForm memory) {\n        return treatments[_patientAddr][0];\n    }\n\n    // Update\n    function updatePatientData(address _patientAddr, string memory _patientName, string memory _patientAge,\n    string memory _patientWeight, string memory _patientHeight, string memory _symptom, string memory _description, \n    string memory _updateAt, uint index)\n    public returns(bool) {\n        require(keccak256(abi.encodePacked(userType[msg.sender])) == keccak256(abi.encodePacked(\"doctor\")));\n\n        treatments[_patientAddr][index].patientAddr = _patientAddr;\n        treatments[_patientAddr][index].patientName = _patientName;\n        treatments[_patientAddr][index].patientAge = _patientAge;\n        treatments[_patientAddr][index].patientWeight = _patientWeight;\n        treatments[_patientAddr][index].patientHeight = _patientHeight;\n        treatments[_patientAddr][index].symptom = _symptom;\n        treatments[_patientAddr][index].description = _description;\n        treatments[_patientAddr][index].updatedAt = _updateAt;\n\n        return true;\n    }\n\n    // Delete\n    function deletePatientData(address _doctorAddr, address _patientAddr, uint index) public returns(bool) {\n        require(keccak256(abi.encodePacked(userType[msg.sender])) == keccak256(abi.encodePacked(\"doctor\")));\n\n        uint patSize = patientList[_doctorAddr].length;\n\n        patientList[_doctorAddr][index] = patientList[_doctorAddr][patSize - 1];\n\n        for(uint i = index; i < patSize - 1; i++) {\n            patientList[_doctorAddr][i] = patientList[_doctorAddr][i + 1];\n        }\n\n        patientList[_doctorAddr].pop();\n\n        uint treatSize = treatments[_patientAddr].length;\n\n        treatments[_patientAddr][index] = treatments[_patientAddr][treatSize - 1];\n        \n        for(uint i = index; i < treatSize - 1; i++) {\n            treatments[_patientAddr][i] = treatments[_patientAddr][i + 1];\n        }\n\n        treatments[_patientAddr].pop();\n\n        uint docSize = doctorList[_patientAddr].length;\n\n        doctorList[_patientAddr][index] = doctorList[_patientAddr][docSize - 1];\n\n        for(uint i = index; i < docSize - 1; i++) {\n            doctorList[_patientAddr][i] = doctorList[_patientAddr][i + 1];\n        }\n\n        doctorList[_patientAddr].pop();\n\n        return true;\n    }\n\n    // get patient list\n    function getPatientList(address _doctorAddr) view public returns (Patient[] memory){\n        require(keccak256(abi.encodePacked(userType[msg.sender])) == keccak256(abi.encodePacked(\"doctor\")));\n        return patientList[_doctorAddr];\n    }\n\n    // paitent\n    function addPatient(address _patAddr, string memory _name, string memory _age) public returns (bool) {\n        require(keccak256(abi.encodePacked(userType[msg.sender])) == keccak256(abi.encodePacked(\"\")));\n\n        userType[msg.sender] = \"patient\";\n        patData[msg.sender].patAddr = _patAddr;\n        patData[msg.sender].name = _name;\n        patData[msg.sender].age = _age;\n\n        return true;\n    }\n\n    // Read Treatments\n    function readPatientTreats(address _patientAddr) public view returns(MedicalForm[] memory) {\n        return treatments[_patientAddr];\n    }\n\n    // Get DoctorList\n    function getDoctorList(address _patientAddr) public view returns(Doctor[] memory) {\n        return doctorList[_patientAddr];\n    }\n\n    // get user\n    function getUser(address userAddr) view public returns(string memory) {\n        return userType[userAddr];\n    }\n}",
  "sourcePath": "/home/inlab/Desktop/wotjr/health-care-DApp/contract/contracts/HealthCare.sol",
  "compiler": {
    "name": "solc",
    "version": "0.8.13+commit.abaa5c0e.Emscripten.clang"
  },
  "schemaVersion": "3.4.7",
  "updatedAt": "2022-05-26T11:34:33.993Z",
  "networkType": "ethereum",
  "devdoc": {
    "kind": "dev",
    "methods": {},
    "version": 1
  },
  "userdoc": {
    "kind": "user",
    "methods": {},
    "version": 1
  }
}