{
  "contractName": "HealthCare",
  "abi": [
    {
      "inputs": [],
      "stateMutability": "nonpayable",
      "type": "constructor"
    },
    {
      "anonymous": false,
      "inputs": [
        {
          "indexed": false,
          "internalType": "address",
          "name": "doctorAddr",
          "type": "address"
        }
      ],
      "name": "DoctorAdd",
      "type": "event"
    },
    {
      "inputs": [
        {
          "internalType": "address",
          "name": "doctorAddr",
          "type": "address"
        },
        {
          "internalType": "string",
          "name": "_hospital",
          "type": "string"
        }
      ],
      "name": "addDoctor",
      "outputs": [
        {
          "internalType": "bool",
          "name": "",
          "type": "bool"
        }
      ],
      "stateMutability": "nonpayable",
      "type": "function"
    },
    {
      "inputs": [
        {
          "internalType": "address",
          "name": "_patientAddr",
          "type": "address"
        },
        {
          "internalType": "string",
          "name": "_patientName",
          "type": "string"
        },
        {
          "internalType": "string",
          "name": "_patientAge",
          "type": "string"
        },
        {
          "internalType": "string",
          "name": "_patientWeight",
          "type": "string"
        },
        {
          "internalType": "string",
          "name": "_patientHeight",
          "type": "string"
        },
        {
          "internalType": "string",
          "name": "_symptom",
          "type": "string"
        },
        {
          "internalType": "string",
          "name": "_description",
          "type": "string"
        }
      ],
      "name": "addPatientData",
      "outputs": [
        {
          "internalType": "string",
          "name": "",
          "type": "string"
        }
      ],
      "stateMutability": "nonpayable",
      "type": "function"
    },
    {
      "inputs": [
        {
          "internalType": "address",
          "name": "_patientAddr",
          "type": "address"
        }
      ],
      "name": "readPatientData",
      "outputs": [
        {
          "components": [
            {
              "internalType": "address",
              "name": "patientAddr",
              "type": "address"
            },
            {
              "internalType": "string",
              "name": "patientName",
              "type": "string"
            },
            {
              "internalType": "string",
              "name": "patientAge",
              "type": "string"
            },
            {
              "internalType": "string",
              "name": "patientWeight",
              "type": "string"
            },
            {
              "internalType": "string",
              "name": "patientHeight",
              "type": "string"
            },
            {
              "internalType": "string",
              "name": "symptom",
              "type": "string"
            },
            {
              "internalType": "string",
              "name": "description",
              "type": "string"
            }
          ],
          "internalType": "struct HealthCare.MedicalForm",
          "name": "",
          "type": "tuple"
        }
      ],
      "stateMutability": "view",
      "type": "function",
      "constant": true
    },
    {
      "inputs": [
        {
          "internalType": "address",
          "name": "userAddr",
          "type": "address"
        }
      ],
      "name": "getUser",
      "outputs": [
        {
          "internalType": "string",
          "name": "",
          "type": "string"
        }
      ],
      "stateMutability": "view",
      "type": "function",
      "constant": true
    }
  ],
  "bytecode": "0x608060405234801561001057600080fd5b5060016000803373ffffffffffffffffffffffffffffffffffffffff1673ffffffffffffffffffffffffffffffffffffffff168152602001908152602001600020819055506114db806100646000396000f3fe608060405234801561001057600080fd5b506004361061004c5760003560e01c806330004a71146100515780633a25ab1d146100815780636f77926b146100b15780637cf1e445146100e1575b600080fd5b61006b60048036038101906100669190610edc565b610111565b60405161007891906110ae565b60405180910390f35b61009b600480360381019061009691906110d0565b61050a565b6040516100a89190611215565b60405180910390f35b6100cb60048036038101906100c691906110d0565b610925565b6040516100d891906110ae565b60405180910390f35b6100fb60048036038101906100f69190611237565b6109f6565b60405161010891906112ae565b60405180910390f35b606060405160200161012290611320565b60405160208183030381529060405280519060200120600160003373ffffffffffffffffffffffffffffffffffffffff1673ffffffffffffffffffffffffffffffffffffffff1681526020019081526020016000206040516020016101879190611429565b60405160208183030381529060405280519060200120146101a757600080fd5b87600360008a73ffffffffffffffffffffffffffffffffffffffff1673ffffffffffffffffffffffffffffffffffffffff16815260200190815260200160002060000160006101000a81548173ffffffffffffffffffffffffffffffffffffffff021916908373ffffffffffffffffffffffffffffffffffffffff16021790555086600360008a73ffffffffffffffffffffffffffffffffffffffff1673ffffffffffffffffffffffffffffffffffffffff168152602001908152602001600020600101908051906020019061027e929190610c2e565b5085600360008a73ffffffffffffffffffffffffffffffffffffffff1673ffffffffffffffffffffffffffffffffffffffff16815260200190815260200160002060020190805190602001906102d5929190610c2e565b5084600360008a73ffffffffffffffffffffffffffffffffffffffff1673ffffffffffffffffffffffffffffffffffffffff168152602001908152602001600020600301908051906020019061032c929190610c2e565b5083600360008a73ffffffffffffffffffffffffffffffffffffffff1673ffffffffffffffffffffffffffffffffffffffff1681526020019081526020016000206004019080519060200190610383929190610c2e565b5082600360008a73ffffffffffffffffffffffffffffffffffffffff1673ffffffffffffffffffffffffffffffffffffffff16815260200190815260200160002060050190805190602001906103da929190610c2e565b5081600360008a73ffffffffffffffffffffffffffffffffffffffff1673ffffffffffffffffffffffffffffffffffffffff1681526020019081526020016000206006019080519060200190610431929190610c2e565b50600360008973ffffffffffffffffffffffffffffffffffffffff1673ffffffffffffffffffffffffffffffffffffffff168152602001908152602001600020600101805461047f90611364565b80601f01602080910402602001604051908101604052809291908181526020018280546104ab90611364565b80156104f85780601f106104cd576101008083540402835291602001916104f8565b820191906000526020600020905b8154815290600101906020018083116104db57829003601f168201915b50505050509050979650505050505050565b610512610cb4565b600360008373ffffffffffffffffffffffffffffffffffffffff1673ffffffffffffffffffffffffffffffffffffffff1681526020019081526020016000206040518060e00160405290816000820160009054906101000a900473ffffffffffffffffffffffffffffffffffffffff1673ffffffffffffffffffffffffffffffffffffffff1673ffffffffffffffffffffffffffffffffffffffff1681526020016001820180546105c290611364565b80601f01602080910402602001604051908101604052809291908181526020018280546105ee90611364565b801561063b5780601f106106105761010080835404028352916020019161063b565b820191906000526020600020905b81548152906001019060200180831161061e57829003601f168201915b5050505050815260200160028201805461065490611364565b80601f016020809104026020016040519081016040528092919081815260200182805461068090611364565b80156106cd5780601f106106a2576101008083540402835291602001916106cd565b820191906000526020600020905b8154815290600101906020018083116106b057829003601f168201915b505050505081526020016003820180546106e690611364565b80601f016020809104026020016040519081016040528092919081815260200182805461071290611364565b801561075f5780601f106107345761010080835404028352916020019161075f565b820191906000526020600020905b81548152906001019060200180831161074257829003601f168201915b5050505050815260200160048201805461077890611364565b80601f01602080910402602001604051908101604052809291908181526020018280546107a490611364565b80156107f15780601f106107c6576101008083540402835291602001916107f1565b820191906000526020600020905b8154815290600101906020018083116107d457829003601f168201915b5050505050815260200160058201805461080a90611364565b80601f016020809104026020016040519081016040528092919081815260200182805461083690611364565b80156108835780601f1061085857610100808354040283529160200191610883565b820191906000526020600020905b81548152906001019060200180831161086657829003601f168201915b5050505050815260200160068201805461089c90611364565b80601f01602080910402602001604051908101604052809291908181526020018280546108c890611364565b80156109155780601f106108ea57610100808354040283529160200191610915565b820191906000526020600020905b8154815290600101906020018083116108f857829003601f168201915b5050505050815250509050919050565b6060600160008373ffffffffffffffffffffffffffffffffffffffff1673ffffffffffffffffffffffffffffffffffffffff168152602001908152602001600020805461097190611364565b80601f016020809104026020016040519081016040528092919081815260200182805461099d90611364565b80156109ea5780601f106109bf576101008083540402835291602001916109ea565b820191906000526020600020905b8154815290600101906020018083116109cd57829003601f168201915b50505050509050919050565b6000604051602001610a0790611466565b60405160208183030381529060405280519060200120600160003373ffffffffffffffffffffffffffffffffffffffff1673ffffffffffffffffffffffffffffffffffffffff168152602001908152602001600020604051602001610a6c9190611429565b6040516020818303038152906040528051906020012014610a8c57600080fd5b6040518060400160405280600681526020017f646f63746f720000000000000000000000000000000000000000000000000000815250600160003373ffffffffffffffffffffffffffffffffffffffff1673ffffffffffffffffffffffffffffffffffffffff1681526020019081526020016000209080519060200190610b14929190610c2e565b5082600260003373ffffffffffffffffffffffffffffffffffffffff1673ffffffffffffffffffffffffffffffffffffffff16815260200190815260200160002060000160006101000a81548173ffffffffffffffffffffffffffffffffffffffff021916908373ffffffffffffffffffffffffffffffffffffffff16021790555081600260003373ffffffffffffffffffffffffffffffffffffffff1673ffffffffffffffffffffffffffffffffffffffff1681526020019081526020016000206001019080519060200190610bec929190610c2e565b507fe7251797390b3bf67da13c0ee0dd7d9ef534eee527bb92b1c849c4ea152ef55033604051610c1c919061148a565b60405180910390a16001905092915050565b828054610c3a90611364565b90600052602060002090601f016020900481019282610c5c5760008555610ca3565b82601f10610c7557805160ff1916838001178555610ca3565b82800160010185558215610ca3579182015b82811115610ca2578251825591602001919060010190610c87565b5b509050610cb09190610d07565b5090565b6040518060e00160405280600073ffffffffffffffffffffffffffffffffffffffff1681526020016060815260200160608152602001606081526020016060815260200160608152602001606081525090565b5b80821115610d20576000816000905550600101610d08565b5090565b6000604051905090565b600080fd5b600080fd5b600073ffffffffffffffffffffffffffffffffffffffff82169050919050565b6000610d6382610d38565b9050919050565b610d7381610d58565b8114610d7e57600080fd5b50565b600081359050610d9081610d6a565b92915050565b600080fd5b600080fd5b6000601f19601f8301169050919050565b7f4e487b7100000000000000000000000000000000000000000000000000000000600052604160045260246000fd5b610de982610da0565b810181811067ffffffffffffffff82111715610e0857610e07610db1565b5b80604052505050565b6000610e1b610d24565b9050610e278282610de0565b919050565b600067ffffffffffffffff821115610e4757610e46610db1565b5b610e5082610da0565b9050602081019050919050565b82818337600083830152505050565b6000610e7f610e7a84610e2c565b610e11565b905082815260208101848484011115610e9b57610e9a610d9b565b5b610ea6848285610e5d565b509392505050565b600082601f830112610ec357610ec2610d96565b5b8135610ed3848260208601610e6c565b91505092915050565b600080600080600080600060e0888a031215610efb57610efa610d2e565b5b6000610f098a828b01610d81565b975050602088013567ffffffffffffffff811115610f2a57610f29610d33565b5b610f368a828b01610eae565b965050604088013567ffffffffffffffff811115610f5757610f56610d33565b5b610f638a828b01610eae565b955050606088013567ffffffffffffffff811115610f8457610f83610d33565b5b610f908a828b01610eae565b945050608088013567ffffffffffffffff811115610fb157610fb0610d33565b5b610fbd8a828b01610eae565b93505060a088013567ffffffffffffffff811115610fde57610fdd610d33565b5b610fea8a828b01610eae565b92505060c088013567ffffffffffffffff81111561100b5761100a610d33565b5b6110178a828b01610eae565b91505092959891949750929550565b600081519050919050565b600082825260208201905092915050565b60005b83811015611060578082015181840152602081019050611045565b8381111561106f576000848401525b50505050565b600061108082611026565b61108a8185611031565b935061109a818560208601611042565b6110a381610da0565b840191505092915050565b600060208201905081810360008301526110c88184611075565b905092915050565b6000602082840312156110e6576110e5610d2e565b5b60006110f484828501610d81565b91505092915050565b61110681610d58565b82525050565b600082825260208201905092915050565b600061112882611026565b611132818561110c565b9350611142818560208601611042565b61114b81610da0565b840191505092915050565b600060e08301600083015161116e60008601826110fd565b5060208301518482036020860152611186828261111d565b915050604083015184820360408601526111a0828261111d565b915050606083015184820360608601526111ba828261111d565b915050608083015184820360808601526111d4828261111d565b91505060a083015184820360a08601526111ee828261111d565b91505060c083015184820360c0860152611208828261111d565b9150508091505092915050565b6000602082019050818103600083015261122f8184611156565b905092915050565b6000806040838503121561124e5761124d610d2e565b5b600061125c85828601610d81565b925050602083013567ffffffffffffffff81111561127d5761127c610d33565b5b61128985828601610eae565b9150509250929050565b60008115159050919050565b6112a881611293565b82525050565b60006020820190506112c3600083018461129f565b92915050565b600081905092915050565b7f646f63746f720000000000000000000000000000000000000000000000000000600082015250565b600061130a6006836112c9565b9150611315826112d4565b600682019050919050565b600061132b826112fd565b9150819050919050565b7f4e487b7100000000000000000000000000000000000000000000000000000000600052602260045260246000fd5b6000600282049050600182168061137c57607f821691505b60208210810361138f5761138e611335565b5b50919050565b60008190508160005260206000209050919050565b600081546113b781611364565b6113c181866112c9565b945060018216600081146113dc57600181146113ed57611420565b60ff19831686528186019350611420565b6113f685611395565b60005b83811015611418578154818901526001820191506020810190506113f9565b838801955050505b50505092915050565b600061143582846113aa565b915081905092915050565b50565b60006114506000836112c9565b915061145b82611440565b600082019050919050565b600061147182611443565b9150819050919050565b61148481610d58565b82525050565b600060208201905061149f600083018461147b565b9291505056fea2646970667358221220a101c6f6a864348546bbd2f3be0d8ebb58f2ff6b56ad6f32fb71a8d4d10be44e64736f6c634300080d0033",
  "immutableReferences": {},
  "source": "// SPDX-License-Identifier: MIT\npragma solidity >=0.4.22 <0.9.0;\n\ncontract HealthCare {\n\n    mapping(address => uint) authCaller;\n    mapping(address => string) userType;\n    mapping(address => Doctor) docData;\n    mapping(address => MedicalForm) mediData;\n\n    constructor() public {\n        authCaller[msg.sender] = 1;\n    }\n\n    struct Doctor {\n        address docAddr;\n        string hospital;\n    }\n\n    struct MedicalForm {\n        address patientAddr;\n        string patientName;\n        string patientAge;\n        string patientWeight;\n        string patientHeight;\n        string symptom;\n        string description;\n    }\n\n    // event\n    event DoctorAdd(address doctorAddr);\n    \n    // * Doctor *\n    function addDoctor(address doctorAddr, string memory _hospital) public returns(bool) {\n        require(keccak256(abi.encodePacked(userType[msg.sender]))\n        == keccak256(abi.encodePacked(\"\")));\n\n        userType[msg.sender] = 'doctor';\n        docData[msg.sender].docAddr = doctorAddr;\n        docData[msg.sender].hospital = _hospital;\n        emit DoctorAdd(msg.sender);\n        return true;\n    }\n\n    function addPatientData(address _patientAddr, string memory _patientName, string memory _patientAge,\n    string memory _patientWeight, string memory _patientHeight, string memory _symptom, string memory _description) \n    public returns(string memory) {\n        require(keccak256(abi.encodePacked(userType[msg.sender]))\n        == keccak256(abi.encodePacked(\"doctor\")));\n\n        mediData[_patientAddr].patientAddr = _patientAddr;\n        mediData[_patientAddr].patientName = _patientName;\n        mediData[_patientAddr].patientAge = _patientAge;\n        mediData[_patientAddr].patientWeight = _patientWeight;\n        mediData[_patientAddr].patientHeight = _patientHeight;\n        mediData[_patientAddr].symptom = _symptom;\n        mediData[_patientAddr].description = _description;\n    \n        return mediData[_patientAddr].patientName;\n    }\n\n    function readPatientData(address _patientAddr) public view returns(MedicalForm memory) {\n        return mediData[_patientAddr];\n    }\n\n    // get User\n    function getUser(address userAddr) view public returns(string memory) {\n        return userType[userAddr];\n    }\n}",
  "sourcePath": "/home/inlab/Desktop/wotjr/health-care-DApp/contract/contracts/HealthCare.sol",
  "compiler": {
    "name": "solc",
    "version": "0.8.13+commit.abaa5c0e.Emscripten.clang"
  },
  "schemaVersion": "3.4.7",
  "updatedAt": "2022-05-16T07:46:43.632Z",
  "networkType": "ethereum",
  "devdoc": {
    "kind": "dev",
    "methods": {},
    "version": 1
  },
  "userdoc": {
    "kind": "user",
    "methods": {},
    "version": 1
  }
}