{
  "contractName": "HealthCare",
  "abi": [
    {
      "inputs": [],
      "stateMutability": "nonpayable",
      "type": "constructor"
    },
    {
      "anonymous": false,
      "inputs": [
        {
          "indexed": false,
          "internalType": "address",
          "name": "doctorAddr",
          "type": "address"
        }
      ],
      "name": "DoctorAdd",
      "type": "event"
    },
    {
      "inputs": [
        {
          "internalType": "address",
          "name": "doctorAddr",
          "type": "address"
        },
        {
          "internalType": "string",
          "name": "_hospital",
          "type": "string"
        }
      ],
      "name": "addDoctor",
      "outputs": [
        {
          "internalType": "bool",
          "name": "",
          "type": "bool"
        }
      ],
      "stateMutability": "nonpayable",
      "type": "function"
    },
    {
      "inputs": [
        {
          "internalType": "address",
          "name": "_patientAddr",
          "type": "address"
        },
        {
          "internalType": "string",
          "name": "_patientName",
          "type": "string"
        },
        {
          "internalType": "string",
          "name": "_patientAge",
          "type": "string"
        },
        {
          "internalType": "string",
          "name": "_patientWeight",
          "type": "string"
        },
        {
          "internalType": "string",
          "name": "_patientHeight",
          "type": "string"
        },
        {
          "internalType": "string",
          "name": "_symptom",
          "type": "string"
        },
        {
          "internalType": "string",
          "name": "_description",
          "type": "string"
        }
      ],
      "name": "addPatientData",
      "outputs": [
        {
          "internalType": "bool",
          "name": "",
          "type": "bool"
        }
      ],
      "stateMutability": "nonpayable",
      "type": "function"
    },
    {
      "inputs": [
        {
          "internalType": "address",
          "name": "_patientAddr",
          "type": "address"
        }
      ],
      "name": "readPatientData",
      "outputs": [
        {
          "components": [
            {
              "internalType": "address",
              "name": "patientAddr",
              "type": "address"
            },
            {
              "internalType": "string",
              "name": "patientName",
              "type": "string"
            },
            {
              "internalType": "string",
              "name": "patientAge",
              "type": "string"
            },
            {
              "internalType": "string",
              "name": "patientWeight",
              "type": "string"
            },
            {
              "internalType": "string",
              "name": "patientHeight",
              "type": "string"
            },
            {
              "internalType": "string",
              "name": "symptom",
              "type": "string"
            },
            {
              "internalType": "string",
              "name": "description",
              "type": "string"
            },
            {
              "internalType": "uint256",
              "name": "state",
              "type": "uint256"
            }
          ],
          "internalType": "struct HealthCare.MedicalForm",
          "name": "",
          "type": "tuple"
        }
      ],
      "stateMutability": "view",
      "type": "function",
      "constant": true
    },
    {
      "inputs": [
        {
          "internalType": "address",
          "name": "_patientAddr",
          "type": "address"
        },
        {
          "internalType": "string",
          "name": "_patientName",
          "type": "string"
        },
        {
          "internalType": "string",
          "name": "_patientAge",
          "type": "string"
        },
        {
          "internalType": "string",
          "name": "_patientWeight",
          "type": "string"
        },
        {
          "internalType": "string",
          "name": "_patientHeight",
          "type": "string"
        },
        {
          "internalType": "string",
          "name": "_symptom",
          "type": "string"
        },
        {
          "internalType": "string",
          "name": "_description",
          "type": "string"
        }
      ],
      "name": "updatePatientData",
      "outputs": [
        {
          "internalType": "bool",
          "name": "",
          "type": "bool"
        }
      ],
      "stateMutability": "nonpayable",
      "type": "function"
    },
    {
      "inputs": [
        {
          "internalType": "address",
          "name": "_patientAddr",
          "type": "address"
        }
      ],
      "name": "deletePatientData",
      "outputs": [
        {
          "internalType": "bool",
          "name": "",
          "type": "bool"
        }
      ],
      "stateMutability": "nonpayable",
      "type": "function"
    },
    {
      "inputs": [
        {
          "internalType": "address",
          "name": "_doctorAddr",
          "type": "address"
        }
      ],
      "name": "getPatientList",
      "outputs": [
        {
          "components": [
            {
              "internalType": "address",
              "name": "patAddr",
              "type": "address"
            },
            {
              "internalType": "string",
              "name": "name",
              "type": "string"
            },
            {
              "internalType": "string",
              "name": "age",
              "type": "string"
            }
          ],
          "internalType": "struct HealthCare.Patient[]",
          "name": "",
          "type": "tuple[]"
        }
      ],
      "stateMutability": "view",
      "type": "function",
      "constant": true
    },
    {
      "inputs": [
        {
          "internalType": "address",
          "name": "_patAddr",
          "type": "address"
        },
        {
          "internalType": "string",
          "name": "_name",
          "type": "string"
        },
        {
          "internalType": "string",
          "name": "_age",
          "type": "string"
        }
      ],
      "name": "addPatient",
      "outputs": [
        {
          "internalType": "bool",
          "name": "",
          "type": "bool"
        }
      ],
      "stateMutability": "nonpayable",
      "type": "function"
    },
    {
      "inputs": [
        {
          "internalType": "address",
          "name": "_patientAddr",
          "type": "address"
        }
      ],
      "name": "readPatientTreats",
      "outputs": [
        {
          "components": [
            {
              "internalType": "address",
              "name": "patientAddr",
              "type": "address"
            },
            {
              "internalType": "string",
              "name": "patientName",
              "type": "string"
            },
            {
              "internalType": "string",
              "name": "patientAge",
              "type": "string"
            },
            {
              "internalType": "string",
              "name": "patientWeight",
              "type": "string"
            },
            {
              "internalType": "string",
              "name": "patientHeight",
              "type": "string"
            },
            {
              "internalType": "string",
              "name": "symptom",
              "type": "string"
            },
            {
              "internalType": "string",
              "name": "description",
              "type": "string"
            },
            {
              "internalType": "uint256",
              "name": "state",
              "type": "uint256"
            }
          ],
          "internalType": "struct HealthCare.MedicalForm[]",
          "name": "",
          "type": "tuple[]"
        }
      ],
      "stateMutability": "view",
      "type": "function",
      "constant": true
    },
    {
      "inputs": [
        {
          "internalType": "address",
          "name": "userAddr",
          "type": "address"
        }
      ],
      "name": "getUser",
      "outputs": [
        {
          "internalType": "string",
          "name": "",
          "type": "string"
        }
      ],
      "stateMutability": "view",
      "type": "function",
      "constant": true
    }
  ],
  "bytecode": "0x608060405234801561001057600080fd5b5060016000803373ffffffffffffffffffffffffffffffffffffffff1673ffffffffffffffffffffffffffffffffffffffff16815260200190815260200160002081905550612d73806100646000396000f3fe608060405234801561001057600080fd5b50600436106100935760003560e01c80636f77926b116100665780636f77926b146101585780637cf1e445146101885780639c911309146101b8578063b7cca9e8146101e8578063f48f4ce51461021857610093565b806330004a711461009857806337b16b50146100c85780633a25ab1d146100f857806346a2518914610128575b600080fd5b6100b260048036038101906100ad919061226b565b610248565b6040516100bf91906123d0565b60405180910390f35b6100e260048036038101906100dd91906123eb565b6105c3565b6040516100ef91906123d0565b60405180910390f35b610112600480360381019061010d9190612476565b61081c565b60405161011f9190612626565b60405180910390f35b610142600480360381019061013d9190612476565b610c63565b60405161014f91906123d0565b60405180910390f35b610172600480360381019061016d9190612476565b611198565b60405161017f9190612692565b60405180910390f35b6101a2600480360381019061019d91906126b4565b611269565b6040516101af91906123d0565b60405180910390f35b6101d260048036038101906101cd9190612476565b6114a1565b6040516101df9190612829565b60405180910390f35b61020260048036038101906101fd919061226b565b61174d565b60405161020f91906123d0565b60405180910390f35b610232600480360381019061022d9190612476565b611a7d565b60405161023f91906129e0565b60405180910390f35b600060405160200161025990612a59565b60405160208183030381529060405280519060200120600160003373ffffffffffffffffffffffffffffffffffffffff1673ffffffffffffffffffffffffffffffffffffffff1681526020019081526020016000206040516020016102be9190612b62565b60405160208183030381529060405280519060200120146102de57600080fd5b600560008973ffffffffffffffffffffffffffffffffffffffff1673ffffffffffffffffffffffffffffffffffffffff1681526020019081526020016000206040518061010001604052808a73ffffffffffffffffffffffffffffffffffffffff1681526020018981526020018881526020018781526020018681526020018581526020018481526020016000815250908060018154018082558091505060019003906000526020600020906008020160009091909190915060008201518160000160006101000a81548173ffffffffffffffffffffffffffffffffffffffff021916908373ffffffffffffffffffffffffffffffffffffffff16021790555060208201518160010190805190602001906103fa929190611ee8565b506040820151816002019080519060200190610417929190611ee8565b506060820151816003019080519060200190610434929190611ee8565b506080820151816004019080519060200190610451929190611ee8565b5060a082015181600501908051906020019061046e929190611ee8565b5060c082015181600601908051906020019061048b929190611ee8565b5060e082015181600701555050600660003373ffffffffffffffffffffffffffffffffffffffff1673ffffffffffffffffffffffffffffffffffffffff16815260200190815260200160002060405180606001604052808a73ffffffffffffffffffffffffffffffffffffffff16815260200189815260200188815250908060018154018082558091505060019003906000526020600020906003020160009091909190915060008201518160000160006101000a81548173ffffffffffffffffffffffffffffffffffffffff021916908373ffffffffffffffffffffffffffffffffffffffff1602179055506020820151816001019080519060200190610594929190611ee8565b5060408201518160020190805190602001906105b1929190611ee8565b50505060019050979650505050505050565b60006040516020016105d490612b9f565b60405160208183030381529060405280519060200120600160003373ffffffffffffffffffffffffffffffffffffffff1673ffffffffffffffffffffffffffffffffffffffff1681526020019081526020016000206040516020016106399190612b62565b604051602081830303815290604052805190602001201461065957600080fd5b6040518060400160405280600781526020017f70617469656e7400000000000000000000000000000000000000000000000000815250600160003373ffffffffffffffffffffffffffffffffffffffff1673ffffffffffffffffffffffffffffffffffffffff16815260200190815260200160002090805190602001906106e1929190611ee8565b5083600460003373ffffffffffffffffffffffffffffffffffffffff1673ffffffffffffffffffffffffffffffffffffffff16815260200190815260200160002060000160006101000a81548173ffffffffffffffffffffffffffffffffffffffff021916908373ffffffffffffffffffffffffffffffffffffffff16021790555082600460003373ffffffffffffffffffffffffffffffffffffffff1673ffffffffffffffffffffffffffffffffffffffff16815260200190815260200160002060010190805190602001906107b9929190611ee8565b5081600460003373ffffffffffffffffffffffffffffffffffffffff1673ffffffffffffffffffffffffffffffffffffffff1681526020019081526020016000206002019080519060200190610810929190611ee8565b50600190509392505050565b610824611f6e565b600560008373ffffffffffffffffffffffffffffffffffffffff1673ffffffffffffffffffffffffffffffffffffffff16815260200190815260200160002060008154811061087657610875612bb4565b5b9060005260206000209060080201604051806101000160405290816000820160009054906101000a900473ffffffffffffffffffffffffffffffffffffffff1673ffffffffffffffffffffffffffffffffffffffff1673ffffffffffffffffffffffffffffffffffffffff1681526020016001820180546108f690612a9d565b80601f016020809104026020016040519081016040528092919081815260200182805461092290612a9d565b801561096f5780601f106109445761010080835404028352916020019161096f565b820191906000526020600020905b81548152906001019060200180831161095257829003601f168201915b5050505050815260200160028201805461098890612a9d565b80601f01602080910402602001604051908101604052809291908181526020018280546109b490612a9d565b8015610a015780601f106109d657610100808354040283529160200191610a01565b820191906000526020600020905b8154815290600101906020018083116109e457829003601f168201915b50505050508152602001600382018054610a1a90612a9d565b80601f0160208091040260200160405190810160405280929190818152602001828054610a4690612a9d565b8015610a935780601f10610a6857610100808354040283529160200191610a93565b820191906000526020600020905b815481529060010190602001808311610a7657829003601f168201915b50505050508152602001600482018054610aac90612a9d565b80601f0160208091040260200160405190810160405280929190818152602001828054610ad890612a9d565b8015610b255780601f10610afa57610100808354040283529160200191610b25565b820191906000526020600020905b815481529060010190602001808311610b0857829003601f168201915b50505050508152602001600582018054610b3e90612a9d565b80601f0160208091040260200160405190810160405280929190818152602001828054610b6a90612a9d565b8015610bb75780601f10610b8c57610100808354040283529160200191610bb7565b820191906000526020600020905b815481529060010190602001808311610b9a57829003601f168201915b50505050508152602001600682018054610bd090612a9d565b80601f0160208091040260200160405190810160405280929190818152602001828054610bfc90612a9d565b8015610c495780601f10610c1e57610100808354040283529160200191610c49565b820191906000526020600020905b815481529060010190602001808311610c2c57829003601f168201915b505050505081526020016007820154815250509050919050565b6000604051602001610c7490612a59565b60405160208183030381529060405280519060200120600160003373ffffffffffffffffffffffffffffffffffffffff1673ffffffffffffffffffffffffffffffffffffffff168152602001908152602001600020604051602001610cd99190612b62565b6040516020818303038152906040528051906020012014610cf957600080fd5b600080600090505b600260003373ffffffffffffffffffffffffffffffffffffffff1673ffffffffffffffffffffffffffffffffffffffff16815260200190815260200160002060020180549050811015610e1d578373ffffffffffffffffffffffffffffffffffffffff16600260003373ffffffffffffffffffffffffffffffffffffffff1673ffffffffffffffffffffffffffffffffffffffff1681526020019081526020016000206002018281548110610db957610db8612bb4565b5b906000526020600020906003020160000160009054906101000a900473ffffffffffffffffffffffffffffffffffffffff1673ffffffffffffffffffffffffffffffffffffffff1603610e0a578091505b8080610e1590612c12565b915050610d01565b5060008190505b6001600260003373ffffffffffffffffffffffffffffffffffffffff1673ffffffffffffffffffffffffffffffffffffffff16815260200190815260200160002060020180549050610e769190612c5a565b81101561100a57600260003373ffffffffffffffffffffffffffffffffffffffff1673ffffffffffffffffffffffffffffffffffffffff168152602001908152602001600020600201600182610ecc9190612c8e565b81548110610edd57610edc612bb4565b5b9060005260206000209060030201600260003373ffffffffffffffffffffffffffffffffffffffff1673ffffffffffffffffffffffffffffffffffffffff1681526020019081526020016000206002018281548110610f3f57610f3e612bb4565b5b90600052602060002090600302016000820160009054906101000a900473ffffffffffffffffffffffffffffffffffffffff168160000160006101000a81548173ffffffffffffffffffffffffffffffffffffffff021916908373ffffffffffffffffffffffffffffffffffffffff1602179055506001820181600101908054610fc890612a9d565b610fd3929190611fc9565b506002820181600201908054610fe890612a9d565b610ff3929190611fc9565b50905050808061100290612c12565b915050610e24565b50600260003373ffffffffffffffffffffffffffffffffffffffff1673ffffffffffffffffffffffffffffffffffffffff16815260200190815260200160002060020180548061105d5761105c612ce4565b5b6001900381819060005260206000209060030201600080820160006101000a81549073ffffffffffffffffffffffffffffffffffffffff02191690556001820160006110a99190612056565b6002820160006110b99190612056565b50509055600360008473ffffffffffffffffffffffffffffffffffffffff1673ffffffffffffffffffffffffffffffffffffffff168152602001908152602001600020600080820160006101000a81549073ffffffffffffffffffffffffffffffffffffffff02191690556001820160006111349190612056565b6002820160006111449190612056565b6003820160006111549190612056565b6004820160006111649190612056565b6005820160006111749190612056565b6006820160006111849190612056565b600782016000905550506001915050919050565b6060600160008373ffffffffffffffffffffffffffffffffffffffff1673ffffffffffffffffffffffffffffffffffffffff16815260200190815260200160002080546111e490612a9d565b80601f016020809104026020016040519081016040528092919081815260200182805461121090612a9d565b801561125d5780601f106112325761010080835404028352916020019161125d565b820191906000526020600020905b81548152906001019060200180831161124057829003601f168201915b50505050509050919050565b600060405160200161127a90612b9f565b60405160208183030381529060405280519060200120600160003373ffffffffffffffffffffffffffffffffffffffff1673ffffffffffffffffffffffffffffffffffffffff1681526020019081526020016000206040516020016112df9190612b62565b60405160208183030381529060405280519060200120146112ff57600080fd5b6040518060400160405280600681526020017f646f63746f720000000000000000000000000000000000000000000000000000815250600160003373ffffffffffffffffffffffffffffffffffffffff1673ffffffffffffffffffffffffffffffffffffffff1681526020019081526020016000209080519060200190611387929190611ee8565b5082600260003373ffffffffffffffffffffffffffffffffffffffff1673ffffffffffffffffffffffffffffffffffffffff16815260200190815260200160002060000160006101000a81548173ffffffffffffffffffffffffffffffffffffffff021916908373ffffffffffffffffffffffffffffffffffffffff16021790555081600260003373ffffffffffffffffffffffffffffffffffffffff1673ffffffffffffffffffffffffffffffffffffffff168152602001908152602001600020600101908051906020019061145f929190611ee8565b507fe7251797390b3bf67da13c0ee0dd7d9ef534eee527bb92b1c849c4ea152ef5503360405161148f9190612d22565b60405180910390a16001905092915050565b60606040516020016114b290612a59565b60405160208183030381529060405280519060200120600160003373ffffffffffffffffffffffffffffffffffffffff1673ffffffffffffffffffffffffffffffffffffffff1681526020019081526020016000206040516020016115179190612b62565b604051602081830303815290604052805190602001201461153757600080fd5b600660008373ffffffffffffffffffffffffffffffffffffffff1673ffffffffffffffffffffffffffffffffffffffff168152602001908152602001600020805480602002602001604051908101604052809291908181526020016000905b8282101561174257838290600052602060002090600302016040518060600160405290816000820160009054906101000a900473ffffffffffffffffffffffffffffffffffffffff1673ffffffffffffffffffffffffffffffffffffffff1673ffffffffffffffffffffffffffffffffffffffff16815260200160018201805461161f90612a9d565b80601f016020809104026020016040519081016040528092919081815260200182805461164b90612a9d565b80156116985780601f1061166d57610100808354040283529160200191611698565b820191906000526020600020905b81548152906001019060200180831161167b57829003601f168201915b505050505081526020016002820180546116b190612a9d565b80601f01602080910402602001604051908101604052809291908181526020018280546116dd90612a9d565b801561172a5780601f106116ff5761010080835404028352916020019161172a565b820191906000526020600020905b81548152906001019060200180831161170d57829003601f168201915b50505050508152505081526020019060010190611596565b505050509050919050565b600060405160200161175e90612a59565b60405160208183030381529060405280519060200120600160003373ffffffffffffffffffffffffffffffffffffffff1673ffffffffffffffffffffffffffffffffffffffff1681526020019081526020016000206040516020016117c39190612b62565b60405160208183030381529060405280519060200120146117e357600080fd5b87600360008a73ffffffffffffffffffffffffffffffffffffffff1673ffffffffffffffffffffffffffffffffffffffff16815260200190815260200160002060000160006101000a81548173ffffffffffffffffffffffffffffffffffffffff021916908373ffffffffffffffffffffffffffffffffffffffff16021790555086600360008a73ffffffffffffffffffffffffffffffffffffffff1673ffffffffffffffffffffffffffffffffffffffff16815260200190815260200160002060010190805190602001906118ba929190611ee8565b5085600360008a73ffffffffffffffffffffffffffffffffffffffff1673ffffffffffffffffffffffffffffffffffffffff1681526020019081526020016000206002019080519060200190611911929190611ee8565b5084600360008a73ffffffffffffffffffffffffffffffffffffffff1673ffffffffffffffffffffffffffffffffffffffff1681526020019081526020016000206003019080519060200190611968929190611ee8565b5083600360008a73ffffffffffffffffffffffffffffffffffffffff1673ffffffffffffffffffffffffffffffffffffffff16815260200190815260200160002060040190805190602001906119bf929190611ee8565b5082600360008a73ffffffffffffffffffffffffffffffffffffffff1673ffffffffffffffffffffffffffffffffffffffff1681526020019081526020016000206005019080519060200190611a16929190611ee8565b5081600360008a73ffffffffffffffffffffffffffffffffffffffff1673ffffffffffffffffffffffffffffffffffffffff1681526020019081526020016000206006019080519060200190611a6d929190611ee8565b5060019050979650505050505050565b6060600560008373ffffffffffffffffffffffffffffffffffffffff1673ffffffffffffffffffffffffffffffffffffffff168152602001908152602001600020805480602002602001604051908101604052809291908181526020016000905b82821015611edd5783829060005260206000209060080201604051806101000160405290816000820160009054906101000a900473ffffffffffffffffffffffffffffffffffffffff1673ffffffffffffffffffffffffffffffffffffffff1673ffffffffffffffffffffffffffffffffffffffff168152602001600182018054611b6890612a9d565b80601f0160208091040260200160405190810160405280929190818152602001828054611b9490612a9d565b8015611be15780601f10611bb657610100808354040283529160200191611be1565b820191906000526020600020905b815481529060010190602001808311611bc457829003601f168201915b50505050508152602001600282018054611bfa90612a9d565b80601f0160208091040260200160405190810160405280929190818152602001828054611c2690612a9d565b8015611c735780601f10611c4857610100808354040283529160200191611c73565b820191906000526020600020905b815481529060010190602001808311611c5657829003601f168201915b50505050508152602001600382018054611c8c90612a9d565b80601f0160208091040260200160405190810160405280929190818152602001828054611cb890612a9d565b8015611d055780601f10611cda57610100808354040283529160200191611d05565b820191906000526020600020905b815481529060010190602001808311611ce857829003601f168201915b50505050508152602001600482018054611d1e90612a9d565b80601f0160208091040260200160405190810160405280929190818152602001828054611d4a90612a9d565b8015611d975780601f10611d6c57610100808354040283529160200191611d97565b820191906000526020600020905b815481529060010190602001808311611d7a57829003601f168201915b50505050508152602001600582018054611db090612a9d565b80601f0160208091040260200160405190810160405280929190818152602001828054611ddc90612a9d565b8015611e295780601f10611dfe57610100808354040283529160200191611e29565b820191906000526020600020905b815481529060010190602001808311611e0c57829003601f168201915b50505050508152602001600682018054611e4290612a9d565b80601f0160208091040260200160405190810160405280929190818152602001828054611e6e90612a9d565b8015611ebb5780601f10611e9057610100808354040283529160200191611ebb565b820191906000526020600020905b815481529060010190602001808311611e9e57829003601f168201915b5050505050815260200160078201548152505081526020019060010190611ade565b505050509050919050565b828054611ef490612a9d565b90600052602060002090601f016020900481019282611f165760008555611f5d565b82601f10611f2f57805160ff1916838001178555611f5d565b82800160010185558215611f5d579182015b82811115611f5c578251825591602001919060010190611f41565b5b509050611f6a9190612096565b5090565b604051806101000160405280600073ffffffffffffffffffffffffffffffffffffffff168152602001606081526020016060815260200160608152602001606081526020016060815260200160608152602001600081525090565b828054611fd590612a9d565b90600052602060002090601f016020900481019282611ff75760008555612045565b82601f106120085780548555612045565b8280016001018555821561204557600052602060002091601f016020900482015b82811115612044578254825591600101919060010190612029565b5b5090506120529190612096565b5090565b50805461206290612a9d565b6000825580601f106120745750612093565b601f0160209004906000526020600020908101906120929190612096565b5b50565b5b808211156120af576000816000905550600101612097565b5090565b6000604051905090565b600080fd5b600080fd5b600073ffffffffffffffffffffffffffffffffffffffff82169050919050565b60006120f2826120c7565b9050919050565b612102816120e7565b811461210d57600080fd5b50565b60008135905061211f816120f9565b92915050565b600080fd5b600080fd5b6000601f19601f8301169050919050565b7f4e487b7100000000000000000000000000000000000000000000000000000000600052604160045260246000fd5b6121788261212f565b810181811067ffffffffffffffff8211171561219757612196612140565b5b80604052505050565b60006121aa6120b3565b90506121b6828261216f565b919050565b600067ffffffffffffffff8211156121d6576121d5612140565b5b6121df8261212f565b9050602081019050919050565b82818337600083830152505050565b600061220e612209846121bb565b6121a0565b90508281526020810184848401111561222a5761222961212a565b5b6122358482856121ec565b509392505050565b600082601f83011261225257612251612125565b5b81356122628482602086016121fb565b91505092915050565b600080600080600080600060e0888a03121561228a576122896120bd565b5b60006122988a828b01612110565b975050602088013567ffffffffffffffff8111156122b9576122b86120c2565b5b6122c58a828b0161223d565b965050604088013567ffffffffffffffff8111156122e6576122e56120c2565b5b6122f28a828b0161223d565b955050606088013567ffffffffffffffff811115612313576123126120c2565b5b61231f8a828b0161223d565b945050608088013567ffffffffffffffff8111156123405761233f6120c2565b5b61234c8a828b0161223d565b93505060a088013567ffffffffffffffff81111561236d5761236c6120c2565b5b6123798a828b0161223d565b92505060c088013567ffffffffffffffff81111561239a576123996120c2565b5b6123a68a828b0161223d565b91505092959891949750929550565b60008115159050919050565b6123ca816123b5565b82525050565b60006020820190506123e560008301846123c1565b92915050565b600080600060608486031215612404576124036120bd565b5b600061241286828701612110565b935050602084013567ffffffffffffffff811115612433576124326120c2565b5b61243f8682870161223d565b925050604084013567ffffffffffffffff8111156124605761245f6120c2565b5b61246c8682870161223d565b9150509250925092565b60006020828403121561248c5761248b6120bd565b5b600061249a84828501612110565b91505092915050565b6124ac816120e7565b82525050565b600081519050919050565b600082825260208201905092915050565b60005b838110156124ec5780820151818401526020810190506124d1565b838111156124fb576000848401525b50505050565b600061250c826124b2565b61251681856124bd565b93506125268185602086016124ce565b61252f8161212f565b840191505092915050565b6000819050919050565b61254d8161253a565b82525050565b60006101008301600083015161256c60008601826124a3565b50602083015184820360208601526125848282612501565b9150506040830151848203604086015261259e8282612501565b915050606083015184820360608601526125b88282612501565b915050608083015184820360808601526125d28282612501565b91505060a083015184820360a08601526125ec8282612501565b91505060c083015184820360c08601526126068282612501565b91505060e083015161261b60e0860182612544565b508091505092915050565b600060208201905081810360008301526126408184612553565b905092915050565b600082825260208201905092915050565b6000612664826124b2565b61266e8185612648565b935061267e8185602086016124ce565b6126878161212f565b840191505092915050565b600060208201905081810360008301526126ac8184612659565b905092915050565b600080604083850312156126cb576126ca6120bd565b5b60006126d985828601612110565b925050602083013567ffffffffffffffff8111156126fa576126f96120c2565b5b6127068582860161223d565b9150509250929050565b600081519050919050565b600082825260208201905092915050565b6000819050602082019050919050565b600060608301600083015161275460008601826124a3565b506020830151848203602086015261276c8282612501565b915050604083015184820360408601526127868282612501565b9150508091505092915050565b600061279f838361273c565b905092915050565b6000602082019050919050565b60006127bf82612710565b6127c9818561271b565b9350836020820285016127db8561272c565b8060005b8581101561281757848403895281516127f88582612793565b9450612803836127a7565b925060208a019950506001810190506127df565b50829750879550505050505092915050565b6000602082019050818103600083015261284381846127b4565b905092915050565b600081519050919050565b600082825260208201905092915050565b6000819050602082019050919050565b60006101008301600083015161289060008601826124a3565b50602083015184820360208601526128a88282612501565b915050604083015184820360408601526128c28282612501565b915050606083015184820360608601526128dc8282612501565b915050608083015184820360808601526128f68282612501565b91505060a083015184820360a08601526129108282612501565b91505060c083015184820360c086015261292a8282612501565b91505060e083015161293f60e0860182612544565b508091505092915050565b60006129568383612877565b905092915050565b6000602082019050919050565b60006129768261284b565b6129808185612856565b93508360208202850161299285612867565b8060005b858110156129ce57848403895281516129af858261294a565b94506129ba8361295e565b925060208a01995050600181019050612996565b50829750879550505050505092915050565b600060208201905081810360008301526129fa818461296b565b905092915050565b600081905092915050565b7f646f63746f720000000000000000000000000000000000000000000000000000600082015250565b6000612a43600683612a02565b9150612a4e82612a0d565b600682019050919050565b6000612a6482612a36565b9150819050919050565b7f4e487b7100000000000000000000000000000000000000000000000000000000600052602260045260246000fd5b60006002820490506001821680612ab557607f821691505b602082108103612ac857612ac7612a6e565b5b50919050565b60008190508160005260206000209050919050565b60008154612af081612a9d565b612afa8186612a02565b94506001821660008114612b155760018114612b2657612b59565b60ff19831686528186019350612b59565b612b2f85612ace565b60005b83811015612b5157815481890152600182019150602081019050612b32565b838801955050505b50505092915050565b6000612b6e8284612ae3565b915081905092915050565b50565b6000612b89600083612a02565b9150612b9482612b79565b600082019050919050565b6000612baa82612b7c565b9150819050919050565b7f4e487b7100000000000000000000000000000000000000000000000000000000600052603260045260246000fd5b7f4e487b7100000000000000000000000000000000000000000000000000000000600052601160045260246000fd5b6000612c1d8261253a565b91507fffffffffffffffffffffffffffffffffffffffffffffffffffffffffffffffff8203612c4f57612c4e612be3565b5b600182019050919050565b6000612c658261253a565b9150612c708361253a565b925082821015612c8357612c82612be3565b5b828203905092915050565b6000612c998261253a565b9150612ca48361253a565b9250827fffffffffffffffffffffffffffffffffffffffffffffffffffffffffffffffff03821115612cd957612cd8612be3565b5b828201905092915050565b7f4e487b7100000000000000000000000000000000000000000000000000000000600052603160045260246000fd5b612d1c816120e7565b82525050565b6000602082019050612d376000830184612d13565b9291505056fea2646970667358221220e742e346c2415f64a2eaa578995937e34f0185d7c66d6b079e633b697e658f3d64736f6c634300080d0033",
  "immutableReferences": {},
  "source": "// SPDX-License-Identifier: MIT\npragma solidity >=0.4.22 <0.9.0;\n\ncontract HealthCare {\n\n    mapping(address => uint) authCaller;\n    mapping(address => string) userType;\n    mapping(address => Doctor) docData;\n    mapping(address => MedicalForm) mediData;\n    mapping(address => Patient) patData;\n    mapping(address => MedicalForm[]) treatments;\n    mapping(address => Patient[]) patientList;\n\n    constructor() public {\n        authCaller[msg.sender] = 1;\n    }\n\n    struct Doctor {\n        address docAddr;\n        string hospital;\n        Patient[] patients;\n    }\n\n    struct Patient {\n        address patAddr;\n        string name;\n        string age;\n    }\n\n    struct MedicalForm {\n        address patientAddr;\n        string patientName;\n        string patientAge;\n        string patientWeight;\n        string patientHeight;\n        string symptom;\n        string description;\n        uint state;\n    }\n\n    // event\n    event DoctorAdd(address doctorAddr);\n    \n    // * Doctor *\n    function addDoctor(address doctorAddr, string memory _hospital) public returns(bool) {\n        require(keccak256(abi.encodePacked(userType[msg.sender]))\n        == keccak256(abi.encodePacked(\"\")));\n\n        userType[msg.sender] = 'doctor';\n        docData[msg.sender].docAddr = doctorAddr;\n        docData[msg.sender].hospital = _hospital;\n        emit DoctorAdd(msg.sender);\n        return true;\n    }\n\n    // CRUD Patient Data\n\n    // Create\n    function addPatientData(address _patientAddr, string memory _patientName, string memory _patientAge,\n    string memory _patientWeight, string memory _patientHeight, string memory _symptom, string memory _description) \n    public returns(bool) {\n        require(keccak256(abi.encodePacked(userType[msg.sender])) == keccak256(abi.encodePacked(\"doctor\")));\n\n        treatments[_patientAddr].push(MedicalForm(_patientAddr, _patientName, _patientAge, _patientWeight, _patientHeight,\n        _symptom, _description, 0));\n\n        \n        patientList[msg.sender].push(Patient(_patientAddr, _patientName, _patientAge));\n        return true;\n    }\n\n    // Read\n    function readPatientData(address _patientAddr) public view returns(MedicalForm memory) {\n        return treatments[_patientAddr][0];\n    }\n\n    // Update\n    function updatePatientData(address _patientAddr, string memory _patientName, string memory _patientAge,\n    string memory _patientWeight, string memory _patientHeight, string memory _symptom, string memory _description)\n    public returns(bool) {\n        require(keccak256(abi.encodePacked(userType[msg.sender])) == keccak256(abi.encodePacked(\"doctor\")));\n\n        mediData[_patientAddr].patientAddr = _patientAddr;\n        mediData[_patientAddr].patientName = _patientName;\n        mediData[_patientAddr].patientAge = _patientAge;\n        mediData[_patientAddr].patientWeight = _patientWeight;\n        mediData[_patientAddr].patientHeight = _patientHeight;\n        mediData[_patientAddr].symptom = _symptom;\n        mediData[_patientAddr].description = _description;\n\n        return true;\n    }\n\n    // Delete\n    function deletePatientData(address _patientAddr) public returns(bool) {\n        require(keccak256(abi.encodePacked(userType[msg.sender])) == keccak256(abi.encodePacked(\"doctor\")));\n\n        uint index;\n\n        for(uint i = 0; i < docData[msg.sender].patients.length; i++) {\n            if(docData[msg.sender].patients[i].patAddr == _patientAddr) {\n                index = i;\n            }\n        }\n\n        for(uint i = index; i < docData[msg.sender].patients.length - 1; i++) {\n            docData[msg.sender].patients[i] = docData[msg.sender].patients[i + 1];\n        }\n\n        docData[msg.sender].patients.pop();\n        delete mediData[_patientAddr];\n\n        return true;\n    }\n\n    // get patient list\n    function getPatientList(address _doctorAddr) view public returns (Patient[] memory){\n        require(keccak256(abi.encodePacked(userType[msg.sender])) == keccak256(abi.encodePacked(\"doctor\")));\n        return patientList[_doctorAddr];\n    }\n\n    // paitent\n    function addPatient(address _patAddr, string memory _name, string memory _age) public returns (bool) {\n        require(keccak256(abi.encodePacked(userType[msg.sender])) == keccak256(abi.encodePacked(\"\")));\n\n        userType[msg.sender] = \"patient\";\n        patData[msg.sender].patAddr = _patAddr;\n        patData[msg.sender].name = _name;\n        patData[msg.sender].age = _age;\n\n        return true;\n    }\n\n    // Read Test \n    function readPatientTreats(address _patientAddr) public view returns(MedicalForm[] memory) {\n        return treatments[_patientAddr];\n    }\n\n    // get user\n    function getUser(address userAddr) view public returns(string memory) {\n        return userType[userAddr];\n    }\n}",
  "sourcePath": "/home/inlab/Desktop/wotjr/health-care-DApp/contract/contracts/HealthCare.sol",
  "compiler": {
    "name": "solc",
    "version": "0.8.13+commit.abaa5c0e.Emscripten.clang"
  },
  "schemaVersion": "3.4.7",
  "updatedAt": "2022-05-23T08:33:12.204Z",
  "networkType": "ethereum",
  "devdoc": {
    "kind": "dev",
    "methods": {},
    "version": 1
  },
  "userdoc": {
    "kind": "user",
    "methods": {},
    "version": 1
  }
}