{
  "contractName": "HealthCare",
  "abi": [
    {
      "inputs": [],
      "stateMutability": "nonpayable",
      "type": "constructor"
    },
    {
      "anonymous": false,
      "inputs": [
        {
          "indexed": false,
          "internalType": "address",
          "name": "doctorAddr",
          "type": "address"
        }
      ],
      "name": "DoctorAdd",
      "type": "event"
    },
    {
      "inputs": [
        {
          "internalType": "address",
          "name": "doctorAddr",
          "type": "address"
        },
        {
          "internalType": "string",
          "name": "_hospital",
          "type": "string"
        }
      ],
      "name": "addDoctor",
      "outputs": [
        {
          "internalType": "bool",
          "name": "",
          "type": "bool"
        }
      ],
      "stateMutability": "nonpayable",
      "type": "function"
    }
  ],
  "bytecode": "0x608060405234801561001057600080fd5b5060016000803373ffffffffffffffffffffffffffffffffffffffff1673ffffffffffffffffffffffffffffffffffffffff16815260200190815260200160002081905550610736806100646000396000f3fe608060405234801561001057600080fd5b506004361061002b5760003560e01c80637cf1e44514610030575b600080fd5b61004a600480360381019061004591906104f3565b610060565b604051610057919061056a565b60405180910390f35b6000604051602001610071906105b6565b60405160208183030381529060405280519060200120600160003373ffffffffffffffffffffffffffffffffffffffff1673ffffffffffffffffffffffffffffffffffffffff1681526020019081526020016000206040516020016100d691906106bf565b60405160208183030381529060405280519060200120146100f657600080fd5b6040518060400160405280600681526020017f646f63746f720000000000000000000000000000000000000000000000000000815250600160003373ffffffffffffffffffffffffffffffffffffffff1673ffffffffffffffffffffffffffffffffffffffff168152602001908152602001600020908051906020019061017e929190610298565b5082600260003373ffffffffffffffffffffffffffffffffffffffff1673ffffffffffffffffffffffffffffffffffffffff16815260200190815260200160002060000160006101000a81548173ffffffffffffffffffffffffffffffffffffffff021916908373ffffffffffffffffffffffffffffffffffffffff16021790555081600260003373ffffffffffffffffffffffffffffffffffffffff1673ffffffffffffffffffffffffffffffffffffffff1681526020019081526020016000206001019080519060200190610256929190610298565b507fe7251797390b3bf67da13c0ee0dd7d9ef534eee527bb92b1c849c4ea152ef5503360405161028691906106e5565b60405180910390a16001905092915050565b8280546102a4906105fa565b90600052602060002090601f0160209004810192826102c6576000855561030d565b82601f106102df57805160ff191683800117855561030d565b8280016001018555821561030d579182015b8281111561030c5782518255916020019190600101906102f1565b5b50905061031a919061031e565b5090565b5b8082111561033757600081600090555060010161031f565b5090565b6000604051905090565b600080fd5b600080fd5b600073ffffffffffffffffffffffffffffffffffffffff82169050919050565b600061037a8261034f565b9050919050565b61038a8161036f565b811461039557600080fd5b50565b6000813590506103a781610381565b92915050565b600080fd5b600080fd5b6000601f19601f8301169050919050565b7f4e487b7100000000000000000000000000000000000000000000000000000000600052604160045260246000fd5b610400826103b7565b810181811067ffffffffffffffff8211171561041f5761041e6103c8565b5b80604052505050565b600061043261033b565b905061043e82826103f7565b919050565b600067ffffffffffffffff82111561045e5761045d6103c8565b5b610467826103b7565b9050602081019050919050565b82818337600083830152505050565b600061049661049184610443565b610428565b9050828152602081018484840111156104b2576104b16103b2565b5b6104bd848285610474565b509392505050565b600082601f8301126104da576104d96103ad565b5b81356104ea848260208601610483565b91505092915050565b6000806040838503121561050a57610509610345565b5b600061051885828601610398565b925050602083013567ffffffffffffffff8111156105395761053861034a565b5b610545858286016104c5565b9150509250929050565b60008115159050919050565b6105648161054f565b82525050565b600060208201905061057f600083018461055b565b92915050565b600081905092915050565b50565b60006105a0600083610585565b91506105ab82610590565b600082019050919050565b60006105c182610593565b9150819050919050565b7f4e487b7100000000000000000000000000000000000000000000000000000000600052602260045260246000fd5b6000600282049050600182168061061257607f821691505b602082108103610625576106246105cb565b5b50919050565b60008190508160005260206000209050919050565b6000815461064d816105fa565b6106578186610585565b945060018216600081146106725760018114610683576106b6565b60ff198316865281860193506106b6565b61068c8561062b565b60005b838110156106ae5781548189015260018201915060208101905061068f565b838801955050505b50505092915050565b60006106cb8284610640565b915081905092915050565b6106df8161036f565b82525050565b60006020820190506106fa60008301846106d6565b9291505056fea264697066735822122021ce6057f3674c9de053a25a1823de73efa23ace8141152945394f864d2cfbf264736f6c634300080d0033",
  "immutableReferences": {},
  "source": "// SPDX-License-Identifier: MIT\npragma solidity >=0.4.22 <0.9.0;\n\ncontract HealthCare {\n    struct Doctor {\n        address docAddr;\n        string hospital;\n    }\n\n    struct MedicalForm {\n        string patient;\n        string symptom;\n        string description;\n    }\n\n    mapping(address => uint) authCaller;\n    mapping(address => string) userType;\n    mapping(address => Doctor) docData;\n\n    constructor() public {\n        authCaller[msg.sender] = 1;\n    }\n\n    // event\n    event DoctorAdd(address doctorAddr);\n\n    function addDoctor(address doctorAddr, string memory _hospital) public returns(bool) {\n        require(keccak256(abi.encodePacked(userType[msg.sender]))\n        == keccak256(abi.encodePacked(\"\")));\n\n        userType[msg.sender] = 'doctor';\n        docData[msg.sender].docAddr = doctorAddr;\n        docData[msg.sender].hospital = _hospital;\n        emit DoctorAdd(msg.sender);\n        return true;\n    }\n}",
  "sourcePath": "/home/inlab/Desktop/wotjr/health-care-DApp/contract/contracts/HealthCare.sol",
  "compiler": {
    "name": "solc",
    "version": "0.8.13+commit.abaa5c0e.Emscripten.clang"
  },
  "schemaVersion": "3.4.7",
  "updatedAt": "2022-05-13T05:53:22.809Z",
  "networkType": "ethereum",
  "devdoc": {
    "kind": "dev",
    "methods": {},
    "version": 1
  },
  "userdoc": {
    "kind": "user",
    "methods": {},
    "version": 1
  }
}