{
  "contractName": "HealthCare",
  "abi": [
    {
      "inputs": [],
      "stateMutability": "nonpayable",
      "type": "constructor"
    },
    {
      "anonymous": false,
      "inputs": [
        {
          "indexed": false,
          "internalType": "address",
          "name": "doctorAddr",
          "type": "address"
        }
      ],
      "name": "DoctorAdd",
      "type": "event"
    },
    {
      "inputs": [
        {
          "internalType": "address",
          "name": "doctorAddr",
          "type": "address"
        },
        {
          "internalType": "string",
          "name": "_name",
          "type": "string"
        },
        {
          "internalType": "string",
          "name": "_hospital",
          "type": "string"
        }
      ],
      "name": "addDoctor",
      "outputs": [
        {
          "internalType": "bool",
          "name": "",
          "type": "bool"
        }
      ],
      "stateMutability": "nonpayable",
      "type": "function"
    },
    {
      "inputs": [
        {
          "internalType": "address",
          "name": "_patientAddr",
          "type": "address"
        },
        {
          "internalType": "string",
          "name": "_patientName",
          "type": "string"
        },
        {
          "internalType": "string",
          "name": "_patientAge",
          "type": "string"
        },
        {
          "internalType": "string",
          "name": "_patientWeight",
          "type": "string"
        },
        {
          "internalType": "string",
          "name": "_patientHeight",
          "type": "string"
        },
        {
          "internalType": "string",
          "name": "_symptom",
          "type": "string"
        },
        {
          "internalType": "string",
          "name": "_description",
          "type": "string"
        },
        {
          "internalType": "address",
          "name": "_doctorAddr",
          "type": "address"
        },
        {
          "internalType": "string",
          "name": "_doctorName",
          "type": "string"
        },
        {
          "internalType": "string",
          "name": "_hospital",
          "type": "string"
        },
        {
          "internalType": "string",
          "name": "_createdAt",
          "type": "string"
        }
      ],
      "name": "addPatientData",
      "outputs": [
        {
          "components": [
            {
              "internalType": "address",
              "name": "patAddr",
              "type": "address"
            },
            {
              "internalType": "string",
              "name": "name",
              "type": "string"
            },
            {
              "internalType": "string",
              "name": "age",
              "type": "string"
            }
          ],
          "internalType": "struct HealthCare.Patient[]",
          "name": "",
          "type": "tuple[]"
        }
      ],
      "stateMutability": "nonpayable",
      "type": "function"
    },
    {
      "inputs": [
        {
          "internalType": "address",
          "name": "_patientAddr",
          "type": "address"
        },
        {
          "internalType": "string",
          "name": "_patientName",
          "type": "string"
        },
        {
          "internalType": "string",
          "name": "_patientAge",
          "type": "string"
        },
        {
          "internalType": "string",
          "name": "_patientWeight",
          "type": "string"
        },
        {
          "internalType": "string",
          "name": "_patientHeight",
          "type": "string"
        },
        {
          "internalType": "string",
          "name": "_symptom",
          "type": "string"
        },
        {
          "internalType": "string",
          "name": "_description",
          "type": "string"
        },
        {
          "internalType": "string",
          "name": "_updateAt",
          "type": "string"
        },
        {
          "internalType": "uint256",
          "name": "index",
          "type": "uint256"
        }
      ],
      "name": "updatePatientData",
      "outputs": [
        {
          "internalType": "bool",
          "name": "",
          "type": "bool"
        }
      ],
      "stateMutability": "nonpayable",
      "type": "function"
    },
    {
      "inputs": [
        {
          "internalType": "address",
          "name": "_doctorAddr",
          "type": "address"
        },
        {
          "internalType": "address",
          "name": "_patientAddr",
          "type": "address"
        },
        {
          "internalType": "uint256",
          "name": "index",
          "type": "uint256"
        }
      ],
      "name": "deletePatientData",
      "outputs": [
        {
          "internalType": "bool",
          "name": "",
          "type": "bool"
        }
      ],
      "stateMutability": "nonpayable",
      "type": "function"
    },
    {
      "inputs": [
        {
          "internalType": "address",
          "name": "_doctorAddr",
          "type": "address"
        }
      ],
      "name": "getPatientList",
      "outputs": [
        {
          "components": [
            {
              "internalType": "address",
              "name": "patAddr",
              "type": "address"
            },
            {
              "internalType": "string",
              "name": "name",
              "type": "string"
            },
            {
              "internalType": "string",
              "name": "age",
              "type": "string"
            }
          ],
          "internalType": "struct HealthCare.Patient[]",
          "name": "",
          "type": "tuple[]"
        }
      ],
      "stateMutability": "view",
      "type": "function",
      "constant": true
    },
    {
      "inputs": [
        {
          "internalType": "address",
          "name": "_patAddr",
          "type": "address"
        },
        {
          "internalType": "string",
          "name": "_name",
          "type": "string"
        },
        {
          "internalType": "string",
          "name": "_age",
          "type": "string"
        }
      ],
      "name": "addPatient",
      "outputs": [
        {
          "internalType": "bool",
          "name": "",
          "type": "bool"
        }
      ],
      "stateMutability": "nonpayable",
      "type": "function"
    },
    {
      "inputs": [
        {
          "internalType": "address",
          "name": "_patientAddr",
          "type": "address"
        }
      ],
      "name": "readPatientTreats",
      "outputs": [
        {
          "components": [
            {
              "internalType": "address",
              "name": "patientAddr",
              "type": "address"
            },
            {
              "internalType": "string",
              "name": "patientName",
              "type": "string"
            },
            {
              "internalType": "string",
              "name": "patientAge",
              "type": "string"
            },
            {
              "internalType": "string",
              "name": "patientWeight",
              "type": "string"
            },
            {
              "internalType": "string",
              "name": "patientHeight",
              "type": "string"
            },
            {
              "internalType": "string",
              "name": "symptom",
              "type": "string"
            },
            {
              "internalType": "string",
              "name": "description",
              "type": "string"
            },
            {
              "internalType": "string",
              "name": "doctorName",
              "type": "string"
            },
            {
              "internalType": "string",
              "name": "hospital",
              "type": "string"
            },
            {
              "internalType": "address",
              "name": "doctorAddr",
              "type": "address"
            },
            {
              "internalType": "string",
              "name": "createdAt",
              "type": "string"
            },
            {
              "internalType": "string",
              "name": "updatedAt",
              "type": "string"
            }
          ],
          "internalType": "struct HealthCare.MedicalForm[]",
          "name": "",
          "type": "tuple[]"
        }
      ],
      "stateMutability": "view",
      "type": "function",
      "constant": true
    },
    {
      "inputs": [
        {
          "internalType": "address",
          "name": "_patientAddr",
          "type": "address"
        }
      ],
      "name": "getDoctorList",
      "outputs": [
        {
          "components": [
            {
              "internalType": "address",
              "name": "docAddr",
              "type": "address"
            },
            {
              "internalType": "string",
              "name": "name",
              "type": "string"
            },
            {
              "internalType": "string",
              "name": "hospital",
              "type": "string"
            }
          ],
          "internalType": "struct HealthCare.Doctor[]",
          "name": "",
          "type": "tuple[]"
        }
      ],
      "stateMutability": "view",
      "type": "function",
      "constant": true
    },
    {
      "inputs": [
        {
          "internalType": "address",
          "name": "userAddr",
          "type": "address"
        }
      ],
      "name": "getUser",
      "outputs": [
        {
          "internalType": "string",
          "name": "",
          "type": "string"
        }
      ],
      "stateMutability": "view",
      "type": "function",
      "constant": true
    }
  ],
  "bytecode": "0x608060405234801561001057600080fd5b5060016000803373ffffffffffffffffffffffffffffffffffffffff1673ffffffffffffffffffffffffffffffffffffffff16815260200190815260200160002081905550614152806100646000396000f3fe608060405234801561001057600080fd5b50600436106100935760003560e01c8063849a88af11610066578063849a88af146101585780639c91130914610188578063a3a1715f146101b8578063f48f4ce5146101e8578063fc23fcff1461021857610093565b806334b789981461009857806337b16b50146100c85780635951d862146100f85780636f77926b14610128575b600080fd5b6100b260048036038101906100ad919061334c565b610248565b6040516100bf91906133f2565b60405180910390f35b6100e260048036038101906100dd919061334c565b6104d8565b6040516100ef91906133f2565b60405180910390f35b610112600480360381019061010d9190613443565b610731565b60405161011f91906133f2565b60405180910390f35b610142600480360381019061013d91906135d1565b610bba565b60405161014f9190613686565b60405180910390f35b610172600480360381019061016d91906136a8565b610c8b565b60405161017f91906133f2565b60405180910390f35b6101a2600480360381019061019d91906135d1565b611cc8565b6040516101af919061386d565b60405180910390f35b6101d260048036038101906101cd919061388f565b611f74565b6040516101df919061386d565b60405180910390f35b61020260048036038101906101fd91906135d1565b61270d565b60405161020f9190613c84565b60405180910390f35b610232600480360381019061022d91906135d1565b612e0c565b60405161023f9190613dbf565b60405180910390f35b600060405160200161025990613e12565b60405160208183030381529060405280519060200120600160003373ffffffffffffffffffffffffffffffffffffffff1673ffffffffffffffffffffffffffffffffffffffff1681526020019081526020016000206040516020016102be9190613f1b565b60405160208183030381529060405280519060200120146102de57600080fd5b6040518060400160405280600681526020017f646f63746f720000000000000000000000000000000000000000000000000000815250600160003373ffffffffffffffffffffffffffffffffffffffff1673ffffffffffffffffffffffffffffffffffffffff1681526020019081526020016000209080519060200190610366929190613024565b5083600260003373ffffffffffffffffffffffffffffffffffffffff1673ffffffffffffffffffffffffffffffffffffffff16815260200190815260200160002060000160006101000a81548173ffffffffffffffffffffffffffffffffffffffff021916908373ffffffffffffffffffffffffffffffffffffffff16021790555082600260003373ffffffffffffffffffffffffffffffffffffffff1673ffffffffffffffffffffffffffffffffffffffff168152602001908152602001600020600101908051906020019061043e929190613024565b5081600260003373ffffffffffffffffffffffffffffffffffffffff1673ffffffffffffffffffffffffffffffffffffffff1681526020019081526020016000206002019080519060200190610495929190613024565b507fe7251797390b3bf67da13c0ee0dd7d9ef534eee527bb92b1c849c4ea152ef550336040516104c59190613f41565b60405180910390a1600190509392505050565b60006040516020016104e990613e12565b60405160208183030381529060405280519060200120600160003373ffffffffffffffffffffffffffffffffffffffff1673ffffffffffffffffffffffffffffffffffffffff16815260200190815260200160002060405160200161054e9190613f1b565b604051602081830303815290604052805190602001201461056e57600080fd5b6040518060400160405280600781526020017f70617469656e7400000000000000000000000000000000000000000000000000815250600160003373ffffffffffffffffffffffffffffffffffffffff1673ffffffffffffffffffffffffffffffffffffffff16815260200190815260200160002090805190602001906105f6929190613024565b5083600460003373ffffffffffffffffffffffffffffffffffffffff1673ffffffffffffffffffffffffffffffffffffffff16815260200190815260200160002060000160006101000a81548173ffffffffffffffffffffffffffffffffffffffff021916908373ffffffffffffffffffffffffffffffffffffffff16021790555082600460003373ffffffffffffffffffffffffffffffffffffffff1673ffffffffffffffffffffffffffffffffffffffff16815260200190815260200160002060010190805190602001906106ce929190613024565b5081600460003373ffffffffffffffffffffffffffffffffffffffff1673ffffffffffffffffffffffffffffffffffffffff1681526020019081526020016000206002019080519060200190610725929190613024565b50600190509392505050565b600060405160200161074290613fa8565b60405160208183030381529060405280519060200120600160003373ffffffffffffffffffffffffffffffffffffffff1673ffffffffffffffffffffffffffffffffffffffff1681526020019081526020016000206040516020016107a79190613f1b565b60405160208183030381529060405280519060200120146107c757600080fd5b89600560008c73ffffffffffffffffffffffffffffffffffffffff1673ffffffffffffffffffffffffffffffffffffffff168152602001908152602001600020838154811061081957610818613fbd565b5b90600052602060002090600c020160000160006101000a81548173ffffffffffffffffffffffffffffffffffffffff021916908373ffffffffffffffffffffffffffffffffffffffff16021790555088600560008c73ffffffffffffffffffffffffffffffffffffffff1673ffffffffffffffffffffffffffffffffffffffff16815260200190815260200160002083815481106108ba576108b9613fbd565b5b90600052602060002090600c020160010190805190602001906108de929190613024565b5087600560008c73ffffffffffffffffffffffffffffffffffffffff1673ffffffffffffffffffffffffffffffffffffffff168152602001908152602001600020838154811061093157610930613fbd565b5b90600052602060002090600c02016002019080519060200190610955929190613024565b5086600560008c73ffffffffffffffffffffffffffffffffffffffff1673ffffffffffffffffffffffffffffffffffffffff16815260200190815260200160002083815481106109a8576109a7613fbd565b5b90600052602060002090600c020160030190805190602001906109cc929190613024565b5085600560008c73ffffffffffffffffffffffffffffffffffffffff1673ffffffffffffffffffffffffffffffffffffffff1681526020019081526020016000208381548110610a1f57610a1e613fbd565b5b90600052602060002090600c02016004019080519060200190610a43929190613024565b5084600560008c73ffffffffffffffffffffffffffffffffffffffff1673ffffffffffffffffffffffffffffffffffffffff1681526020019081526020016000208381548110610a9657610a95613fbd565b5b90600052602060002090600c02016005019080519060200190610aba929190613024565b5083600560008c73ffffffffffffffffffffffffffffffffffffffff1673ffffffffffffffffffffffffffffffffffffffff1681526020019081526020016000208381548110610b0d57610b0c613fbd565b5b90600052602060002090600c02016006019080519060200190610b31929190613024565b5082600560008c73ffffffffffffffffffffffffffffffffffffffff1673ffffffffffffffffffffffffffffffffffffffff1681526020019081526020016000208381548110610b8457610b83613fbd565b5b90600052602060002090600c0201600b019080519060200190610ba8929190613024565b50600190509998505050505050505050565b6060600160008373ffffffffffffffffffffffffffffffffffffffff1673ffffffffffffffffffffffffffffffffffffffff1681526020019081526020016000208054610c0690613e56565b80601f0160208091040260200160405190810160405280929190818152602001828054610c3290613e56565b8015610c7f5780601f10610c5457610100808354040283529160200191610c7f565b820191906000526020600020905b815481529060010190602001808311610c6257829003601f168201915b50505050509050919050565b6000604051602001610c9c90613fa8565b60405160208183030381529060405280519060200120600160003373ffffffffffffffffffffffffffffffffffffffff1673ffffffffffffffffffffffffffffffffffffffff168152602001908152602001600020604051602001610d019190613f1b565b6040516020818303038152906040528051906020012014610d2157600080fd5b6000600660008673ffffffffffffffffffffffffffffffffffffffff1673ffffffffffffffffffffffffffffffffffffffff168152602001908152602001600020805490509050600660008673ffffffffffffffffffffffffffffffffffffffff1673ffffffffffffffffffffffffffffffffffffffff168152602001908152602001600020600182610db4919061401b565b81548110610dc557610dc4613fbd565b5b9060005260206000209060030201600660008773ffffffffffffffffffffffffffffffffffffffff1673ffffffffffffffffffffffffffffffffffffffff1681526020019081526020016000208481548110610e2457610e23613fbd565b5b90600052602060002090600302016000820160009054906101000a900473ffffffffffffffffffffffffffffffffffffffff168160000160006101000a81548173ffffffffffffffffffffffffffffffffffffffff021916908373ffffffffffffffffffffffffffffffffffffffff1602179055506001820181600101908054610ead90613e56565b610eb89291906130aa565b506002820181600201908054610ecd90613e56565b610ed89291906130aa565b5090505060008390505b600182610eef919061401b565b81101561107d57600660008773ffffffffffffffffffffffffffffffffffffffff1673ffffffffffffffffffffffffffffffffffffffff168152602001908152602001600020600182610f42919061404f565b81548110610f5357610f52613fbd565b5b9060005260206000209060030201600660008873ffffffffffffffffffffffffffffffffffffffff1673ffffffffffffffffffffffffffffffffffffffff1681526020019081526020016000208281548110610fb257610fb1613fbd565b5b90600052602060002090600302016000820160009054906101000a900473ffffffffffffffffffffffffffffffffffffffff168160000160006101000a81548173ffffffffffffffffffffffffffffffffffffffff021916908373ffffffffffffffffffffffffffffffffffffffff160217905550600182018160010190805461103b90613e56565b6110469291906130aa565b50600282018160020190805461105b90613e56565b6110669291906130aa565b509050508080611075906140a5565b915050610ee2565b50600660008673ffffffffffffffffffffffffffffffffffffffff1673ffffffffffffffffffffffffffffffffffffffff1681526020019081526020016000208054806110cd576110cc6140ed565b5b6001900381819060005260206000209060030201600080820160006101000a81549073ffffffffffffffffffffffffffffffffffffffff02191690556001820160006111199190613137565b6002820160006111299190613137565b505090556000600560008673ffffffffffffffffffffffffffffffffffffffff1673ffffffffffffffffffffffffffffffffffffffff168152602001908152602001600020805490509050600560008673ffffffffffffffffffffffffffffffffffffffff1673ffffffffffffffffffffffffffffffffffffffff1681526020019081526020016000206001826111c0919061401b565b815481106111d1576111d0613fbd565b5b90600052602060002090600c0201600560008773ffffffffffffffffffffffffffffffffffffffff1673ffffffffffffffffffffffffffffffffffffffff16815260200190815260200160002085815481106112305761122f613fbd565b5b90600052602060002090600c02016000820160009054906101000a900473ffffffffffffffffffffffffffffffffffffffff168160000160006101000a81548173ffffffffffffffffffffffffffffffffffffffff021916908373ffffffffffffffffffffffffffffffffffffffff16021790555060018201816001019080546112b990613e56565b6112c49291906130aa565b5060028201816002019080546112d990613e56565b6112e49291906130aa565b5060038201816003019080546112f990613e56565b6113049291906130aa565b50600482018160040190805461131990613e56565b6113249291906130aa565b50600582018160050190805461133990613e56565b6113449291906130aa565b50600682018160060190805461135990613e56565b6113649291906130aa565b50600782018160070190805461137990613e56565b6113849291906130aa565b50600882018160080190805461139990613e56565b6113a49291906130aa565b506009820160009054906101000a900473ffffffffffffffffffffffffffffffffffffffff168160090160006101000a81548173ffffffffffffffffffffffffffffffffffffffff021916908373ffffffffffffffffffffffffffffffffffffffff160217905550600a820181600a0190805461142090613e56565b61142b9291906130aa565b50600b820181600b0190805461144090613e56565b61144b9291906130aa565b5090505060008490505b600182611462919061401b565b81101561175757600560008773ffffffffffffffffffffffffffffffffffffffff1673ffffffffffffffffffffffffffffffffffffffff1681526020019081526020016000206001826114b5919061404f565b815481106114c6576114c5613fbd565b5b90600052602060002090600c0201600560008873ffffffffffffffffffffffffffffffffffffffff1673ffffffffffffffffffffffffffffffffffffffff168152602001908152602001600020828154811061152557611524613fbd565b5b90600052602060002090600c02016000820160009054906101000a900473ffffffffffffffffffffffffffffffffffffffff168160000160006101000a81548173ffffffffffffffffffffffffffffffffffffffff021916908373ffffffffffffffffffffffffffffffffffffffff16021790555060018201816001019080546115ae90613e56565b6115b99291906130aa565b5060028201816002019080546115ce90613e56565b6115d99291906130aa565b5060038201816003019080546115ee90613e56565b6115f99291906130aa565b50600482018160040190805461160e90613e56565b6116199291906130aa565b50600582018160050190805461162e90613e56565b6116399291906130aa565b50600682018160060190805461164e90613e56565b6116599291906130aa565b50600782018160070190805461166e90613e56565b6116799291906130aa565b50600882018160080190805461168e90613e56565b6116999291906130aa565b506009820160009054906101000a900473ffffffffffffffffffffffffffffffffffffffff168160090160006101000a81548173ffffffffffffffffffffffffffffffffffffffff021916908373ffffffffffffffffffffffffffffffffffffffff160217905550600a820181600a0190805461171590613e56565b6117209291906130aa565b50600b820181600b0190805461173590613e56565b6117409291906130aa565b50905050808061174f906140a5565b915050611455565b50600560008673ffffffffffffffffffffffffffffffffffffffff1673ffffffffffffffffffffffffffffffffffffffff1681526020019081526020016000208054806117a7576117a66140ed565b5b60019003818190600052602060002090600c0201600080820160006101000a81549073ffffffffffffffffffffffffffffffffffffffff02191690556001820160006117f39190613137565b6002820160006118039190613137565b6003820160006118139190613137565b6004820160006118239190613137565b6005820160006118339190613137565b6006820160006118439190613137565b6007820160006118539190613137565b6008820160006118639190613137565b6009820160006101000a81549073ffffffffffffffffffffffffffffffffffffffff0219169055600a8201600061189a9190613137565b600b820160006118aa9190613137565b505090556000600760008773ffffffffffffffffffffffffffffffffffffffff1673ffffffffffffffffffffffffffffffffffffffff168152602001908152602001600020805490509050600760008773ffffffffffffffffffffffffffffffffffffffff1673ffffffffffffffffffffffffffffffffffffffff168152602001908152602001600020600182611941919061401b565b8154811061195257611951613fbd565b5b9060005260206000209060030201600760008873ffffffffffffffffffffffffffffffffffffffff1673ffffffffffffffffffffffffffffffffffffffff16815260200190815260200160002086815481106119b1576119b0613fbd565b5b90600052602060002090600302016000820160009054906101000a900473ffffffffffffffffffffffffffffffffffffffff168160000160006101000a81548173ffffffffffffffffffffffffffffffffffffffff021916908373ffffffffffffffffffffffffffffffffffffffff1602179055506001820181600101908054611a3a90613e56565b611a459291906130aa565b506002820181600201908054611a5a90613e56565b611a659291906130aa565b5090505060008590505b600182611a7c919061401b565b811015611c0a57600760008873ffffffffffffffffffffffffffffffffffffffff1673ffffffffffffffffffffffffffffffffffffffff168152602001908152602001600020600182611acf919061404f565b81548110611ae057611adf613fbd565b5b9060005260206000209060030201600760008973ffffffffffffffffffffffffffffffffffffffff1673ffffffffffffffffffffffffffffffffffffffff1681526020019081526020016000208281548110611b3f57611b3e613fbd565b5b90600052602060002090600302016000820160009054906101000a900473ffffffffffffffffffffffffffffffffffffffff168160000160006101000a81548173ffffffffffffffffffffffffffffffffffffffff021916908373ffffffffffffffffffffffffffffffffffffffff1602179055506001820181600101908054611bc890613e56565b611bd39291906130aa565b506002820181600201908054611be890613e56565b611bf39291906130aa565b509050508080611c02906140a5565b915050611a6f565b50600760008773ffffffffffffffffffffffffffffffffffffffff1673ffffffffffffffffffffffffffffffffffffffff168152602001908152602001600020805480611c5a57611c596140ed565b5b6001900381819060005260206000209060030201600080820160006101000a81549073ffffffffffffffffffffffffffffffffffffffff0219169055600182016000611ca69190613137565b600282016000611cb69190613137565b50509055600193505050509392505050565b6060604051602001611cd990613fa8565b60405160208183030381529060405280519060200120600160003373ffffffffffffffffffffffffffffffffffffffff1673ffffffffffffffffffffffffffffffffffffffff168152602001908152602001600020604051602001611d3e9190613f1b565b6040516020818303038152906040528051906020012014611d5e57600080fd5b600660008373ffffffffffffffffffffffffffffffffffffffff1673ffffffffffffffffffffffffffffffffffffffff168152602001908152602001600020805480602002602001604051908101604052809291908181526020016000905b82821015611f6957838290600052602060002090600302016040518060600160405290816000820160009054906101000a900473ffffffffffffffffffffffffffffffffffffffff1673ffffffffffffffffffffffffffffffffffffffff1673ffffffffffffffffffffffffffffffffffffffff168152602001600182018054611e4690613e56565b80601f0160208091040260200160405190810160405280929190818152602001828054611e7290613e56565b8015611ebf5780601f10611e9457610100808354040283529160200191611ebf565b820191906000526020600020905b815481529060010190602001808311611ea257829003601f168201915b50505050508152602001600282018054611ed890613e56565b80601f0160208091040260200160405190810160405280929190818152602001828054611f0490613e56565b8015611f515780601f10611f2657610100808354040283529160200191611f51565b820191906000526020600020905b815481529060010190602001808311611f3457829003601f168201915b50505050508152505081526020019060010190611dbd565b505050509050919050565b6060604051602001611f8590613fa8565b60405160208183030381529060405280519060200120600160003373ffffffffffffffffffffffffffffffffffffffff1673ffffffffffffffffffffffffffffffffffffffff168152602001908152602001600020604051602001611fea9190613f1b565b604051602081830303815290604052805190602001201461200a57600080fd5b600560008d73ffffffffffffffffffffffffffffffffffffffff1673ffffffffffffffffffffffffffffffffffffffff1681526020019081526020016000206040518061018001604052808e73ffffffffffffffffffffffffffffffffffffffff1681526020018d81526020018c81526020018b81526020018a81526020018981526020018881526020018681526020018581526020018773ffffffffffffffffffffffffffffffffffffffff1681526020018481526020016040518060200160405280600081525081525090806001815401808255809150506001900390600052602060002090600c020160009091909190915060008201518160000160006101000a81548173ffffffffffffffffffffffffffffffffffffffff021916908373ffffffffffffffffffffffffffffffffffffffff1602179055506020820151816001019080519060200190612162929190613024565b50604082015181600201908051906020019061217f929190613024565b50606082015181600301908051906020019061219c929190613024565b5060808201518160040190805190602001906121b9929190613024565b5060a08201518160050190805190602001906121d6929190613024565b5060c08201518160060190805190602001906121f3929190613024565b5060e0820151816007019080519060200190612210929190613024565b5061010082015181600801908051906020019061222e929190613024565b506101208201518160090160006101000a81548173ffffffffffffffffffffffffffffffffffffffff021916908373ffffffffffffffffffffffffffffffffffffffff16021790555061014082015181600a019080519060200190612294929190613024565b5061016082015181600b0190805190602001906122b2929190613024565b505050600760008d73ffffffffffffffffffffffffffffffffffffffff1673ffffffffffffffffffffffffffffffffffffffff16815260200190815260200160002060405180606001604052808773ffffffffffffffffffffffffffffffffffffffff16815260200186815260200185815250908060018154018082558091505060019003906000526020600020906003020160009091909190915060008201518160000160006101000a81548173ffffffffffffffffffffffffffffffffffffffff021916908373ffffffffffffffffffffffffffffffffffffffff16021790555060208201518160010190805190602001906123b1929190613024565b5060408201518160020190805190602001906123ce929190613024565b505050600660008673ffffffffffffffffffffffffffffffffffffffff1673ffffffffffffffffffffffffffffffffffffffff16815260200190815260200160002060405180606001604052808e73ffffffffffffffffffffffffffffffffffffffff1681526020018d81526020018c815250908060018154018082558091505060019003906000526020600020906003020160009091909190915060008201518160000160006101000a81548173ffffffffffffffffffffffffffffffffffffffff021916908373ffffffffffffffffffffffffffffffffffffffff16021790555060208201518160010190805190602001906124cd929190613024565b5060408201518160020190805190602001906124ea929190613024565b505050600660008673ffffffffffffffffffffffffffffffffffffffff1673ffffffffffffffffffffffffffffffffffffffff168152602001908152602001600020805480602002602001604051908101604052809291908181526020016000905b828210156126f857838290600052602060002090600302016040518060600160405290816000820160009054906101000a900473ffffffffffffffffffffffffffffffffffffffff1673ffffffffffffffffffffffffffffffffffffffff1673ffffffffffffffffffffffffffffffffffffffff1681526020016001820180546125d590613e56565b80601f016020809104026020016040519081016040528092919081815260200182805461260190613e56565b801561264e5780601f106126235761010080835404028352916020019161264e565b820191906000526020600020905b81548152906001019060200180831161263157829003601f168201915b5050505050815260200160028201805461266790613e56565b80601f016020809104026020016040519081016040528092919081815260200182805461269390613e56565b80156126e05780601f106126b5576101008083540402835291602001916126e0565b820191906000526020600020905b8154815290600101906020018083116126c357829003601f168201915b5050505050815250508152602001906001019061254c565b5050505090509b9a5050505050505050505050565b6060600560008373ffffffffffffffffffffffffffffffffffffffff1673ffffffffffffffffffffffffffffffffffffffff168152602001908152602001600020805480602002602001604051908101604052809291908181526020016000905b82821015612e0157838290600052602060002090600c0201604051806101800160405290816000820160009054906101000a900473ffffffffffffffffffffffffffffffffffffffff1673ffffffffffffffffffffffffffffffffffffffff1673ffffffffffffffffffffffffffffffffffffffff1681526020016001820180546127f890613e56565b80601f016020809104026020016040519081016040528092919081815260200182805461282490613e56565b80156128715780601f1061284657610100808354040283529160200191612871565b820191906000526020600020905b81548152906001019060200180831161285457829003601f168201915b5050505050815260200160028201805461288a90613e56565b80601f01602080910402602001604051908101604052809291908181526020018280546128b690613e56565b80156129035780601f106128d857610100808354040283529160200191612903565b820191906000526020600020905b8154815290600101906020018083116128e657829003601f168201915b5050505050815260200160038201805461291c90613e56565b80601f016020809104026020016040519081016040528092919081815260200182805461294890613e56565b80156129955780601f1061296a57610100808354040283529160200191612995565b820191906000526020600020905b81548152906001019060200180831161297857829003601f168201915b505050505081526020016004820180546129ae90613e56565b80601f01602080910402602001604051908101604052809291908181526020018280546129da90613e56565b8015612a275780601f106129fc57610100808354040283529160200191612a27565b820191906000526020600020905b815481529060010190602001808311612a0a57829003601f168201915b50505050508152602001600582018054612a4090613e56565b80601f0160208091040260200160405190810160405280929190818152602001828054612a6c90613e56565b8015612ab95780601f10612a8e57610100808354040283529160200191612ab9565b820191906000526020600020905b815481529060010190602001808311612a9c57829003601f168201915b50505050508152602001600682018054612ad290613e56565b80601f0160208091040260200160405190810160405280929190818152602001828054612afe90613e56565b8015612b4b5780601f10612b2057610100808354040283529160200191612b4b565b820191906000526020600020905b815481529060010190602001808311612b2e57829003601f168201915b50505050508152602001600782018054612b6490613e56565b80601f0160208091040260200160405190810160405280929190818152602001828054612b9090613e56565b8015612bdd5780601f10612bb257610100808354040283529160200191612bdd565b820191906000526020600020905b815481529060010190602001808311612bc057829003601f168201915b50505050508152602001600882018054612bf690613e56565b80601f0160208091040260200160405190810160405280929190818152602001828054612c2290613e56565b8015612c6f5780601f10612c4457610100808354040283529160200191612c6f565b820191906000526020600020905b815481529060010190602001808311612c5257829003601f168201915b505050505081526020016009820160009054906101000a900473ffffffffffffffffffffffffffffffffffffffff1673ffffffffffffffffffffffffffffffffffffffff1673ffffffffffffffffffffffffffffffffffffffff168152602001600a82018054612cde90613e56565b80601f0160208091040260200160405190810160405280929190818152602001828054612d0a90613e56565b8015612d575780601f10612d2c57610100808354040283529160200191612d57565b820191906000526020600020905b815481529060010190602001808311612d3a57829003601f168201915b50505050508152602001600b82018054612d7090613e56565b80601f0160208091040260200160405190810160405280929190818152602001828054612d9c90613e56565b8015612de95780601f10612dbe57610100808354040283529160200191612de9565b820191906000526020600020905b815481529060010190602001808311612dcc57829003601f168201915b5050505050815250508152602001906001019061276e565b505050509050919050565b6060600760008373ffffffffffffffffffffffffffffffffffffffff1673ffffffffffffffffffffffffffffffffffffffff168152602001908152602001600020805480602002602001604051908101604052809291908181526020016000905b8282101561301957838290600052602060002090600302016040518060600160405290816000820160009054906101000a900473ffffffffffffffffffffffffffffffffffffffff1673ffffffffffffffffffffffffffffffffffffffff1673ffffffffffffffffffffffffffffffffffffffff168152602001600182018054612ef690613e56565b80601f0160208091040260200160405190810160405280929190818152602001828054612f2290613e56565b8015612f6f5780601f10612f4457610100808354040283529160200191612f6f565b820191906000526020600020905b815481529060010190602001808311612f5257829003601f168201915b50505050508152602001600282018054612f8890613e56565b80601f0160208091040260200160405190810160405280929190818152602001828054612fb490613e56565b80156130015780601f10612fd657610100808354040283529160200191613001565b820191906000526020600020905b815481529060010190602001808311612fe457829003601f168201915b50505050508152505081526020019060010190612e6d565b505050509050919050565b82805461303090613e56565b90600052602060002090601f0160209004810192826130525760008555613099565b82601f1061306b57805160ff1916838001178555613099565b82800160010185558215613099579182015b8281111561309857825182559160200191906001019061307d565b5b5090506130a69190613177565b5090565b8280546130b690613e56565b90600052602060002090601f0160209004810192826130d85760008555613126565b82601f106130e95780548555613126565b8280016001018555821561312657600052602060002091601f016020900482015b8281111561312557825482559160010191906001019061310a565b5b5090506131339190613177565b5090565b50805461314390613e56565b6000825580601f106131555750613174565b601f0160209004906000526020600020908101906131739190613177565b5b50565b5b80821115613190576000816000905550600101613178565b5090565b6000604051905090565b600080fd5b600080fd5b600073ffffffffffffffffffffffffffffffffffffffff82169050919050565b60006131d3826131a8565b9050919050565b6131e3816131c8565b81146131ee57600080fd5b50565b600081359050613200816131da565b92915050565b600080fd5b600080fd5b6000601f19601f8301169050919050565b7f4e487b7100000000000000000000000000000000000000000000000000000000600052604160045260246000fd5b61325982613210565b810181811067ffffffffffffffff8211171561327857613277613221565b5b80604052505050565b600061328b613194565b90506132978282613250565b919050565b600067ffffffffffffffff8211156132b7576132b6613221565b5b6132c082613210565b9050602081019050919050565b82818337600083830152505050565b60006132ef6132ea8461329c565b613281565b90508281526020810184848401111561330b5761330a61320b565b5b6133168482856132cd565b509392505050565b600082601f83011261333357613332613206565b5b81356133438482602086016132dc565b91505092915050565b6000806000606084860312156133655761336461319e565b5b6000613373868287016131f1565b935050602084013567ffffffffffffffff811115613394576133936131a3565b5b6133a08682870161331e565b925050604084013567ffffffffffffffff8111156133c1576133c06131a3565b5b6133cd8682870161331e565b9150509250925092565b60008115159050919050565b6133ec816133d7565b82525050565b600060208201905061340760008301846133e3565b92915050565b6000819050919050565b6134208161340d565b811461342b57600080fd5b50565b60008135905061343d81613417565b92915050565b60008060008060008060008060006101208a8c0312156134665761346561319e565b5b60006134748c828d016131f1565b99505060208a013567ffffffffffffffff811115613495576134946131a3565b5b6134a18c828d0161331e565b98505060408a013567ffffffffffffffff8111156134c2576134c16131a3565b5b6134ce8c828d0161331e565b97505060608a013567ffffffffffffffff8111156134ef576134ee6131a3565b5b6134fb8c828d0161331e565b96505060808a013567ffffffffffffffff81111561351c5761351b6131a3565b5b6135288c828d0161331e565b95505060a08a013567ffffffffffffffff811115613549576135486131a3565b5b6135558c828d0161331e565b94505060c08a013567ffffffffffffffff811115613576576135756131a3565b5b6135828c828d0161331e565b93505060e08a013567ffffffffffffffff8111156135a3576135a26131a3565b5b6135af8c828d0161331e565b9250506101006135c18c828d0161342e565b9150509295985092959850929598565b6000602082840312156135e7576135e661319e565b5b60006135f5848285016131f1565b91505092915050565b600081519050919050565b600082825260208201905092915050565b60005b8381101561363857808201518184015260208101905061361d565b83811115613647576000848401525b50505050565b6000613658826135fe565b6136628185613609565b935061367281856020860161361a565b61367b81613210565b840191505092915050565b600060208201905081810360008301526136a0818461364d565b905092915050565b6000806000606084860312156136c1576136c061319e565b5b60006136cf868287016131f1565b93505060206136e0868287016131f1565b92505060406136f18682870161342e565b9150509250925092565b600081519050919050565b600082825260208201905092915050565b6000819050602082019050919050565b613730816131c8565b82525050565b600082825260208201905092915050565b6000613752826135fe565b61375c8185613736565b935061376c81856020860161361a565b61377581613210565b840191505092915050565b60006060830160008301516137986000860182613727565b50602083015184820360208601526137b08282613747565b915050604083015184820360408601526137ca8282613747565b9150508091505092915050565b60006137e38383613780565b905092915050565b6000602082019050919050565b6000613803826136fb565b61380d8185613706565b93508360208202850161381f85613717565b8060005b8581101561385b578484038952815161383c85826137d7565b9450613847836137eb565b925060208a01995050600181019050613823565b50829750879550505050505092915050565b6000602082019050818103600083015261388781846137f8565b905092915050565b60008060008060008060008060008060006101608c8e0312156138b5576138b461319e565b5b60006138c38e828f016131f1565b9b505060208c013567ffffffffffffffff8111156138e4576138e36131a3565b5b6138f08e828f0161331e565b9a505060408c013567ffffffffffffffff811115613911576139106131a3565b5b61391d8e828f0161331e565b99505060608c013567ffffffffffffffff81111561393e5761393d6131a3565b5b61394a8e828f0161331e565b98505060808c013567ffffffffffffffff81111561396b5761396a6131a3565b5b6139778e828f0161331e565b97505060a08c013567ffffffffffffffff811115613998576139976131a3565b5b6139a48e828f0161331e565b96505060c08c013567ffffffffffffffff8111156139c5576139c46131a3565b5b6139d18e828f0161331e565b95505060e06139e28e828f016131f1565b9450506101008c013567ffffffffffffffff811115613a0457613a036131a3565b5b613a108e828f0161331e565b9350506101208c013567ffffffffffffffff811115613a3257613a316131a3565b5b613a3e8e828f0161331e565b9250506101408c013567ffffffffffffffff811115613a6057613a5f6131a3565b5b613a6c8e828f0161331e565b9150509295989b509295989b9093969950565b600081519050919050565b600082825260208201905092915050565b6000819050602082019050919050565b600061018083016000830151613ac46000860182613727565b5060208301518482036020860152613adc8282613747565b91505060408301518482036040860152613af68282613747565b91505060608301518482036060860152613b108282613747565b91505060808301518482036080860152613b2a8282613747565b91505060a083015184820360a0860152613b448282613747565b91505060c083015184820360c0860152613b5e8282613747565b91505060e083015184820360e0860152613b788282613747565b915050610100830151848203610100860152613b948282613747565b915050610120830151613bab610120860182613727565b50610140830151848203610140860152613bc58282613747565b915050610160830151848203610160860152613be18282613747565b9150508091505092915050565b6000613bfa8383613aab565b905092915050565b6000602082019050919050565b6000613c1a82613a7f565b613c248185613a8a565b935083602082028501613c3685613a9b565b8060005b85811015613c725784840389528151613c538582613bee565b9450613c5e83613c02565b925060208a01995050600181019050613c3a565b50829750879550505050505092915050565b60006020820190508181036000830152613c9e8184613c0f565b905092915050565b600081519050919050565b600082825260208201905092915050565b6000819050602082019050919050565b6000606083016000830151613cea6000860182613727565b5060208301518482036020860152613d028282613747565b91505060408301518482036040860152613d1c8282613747565b9150508091505092915050565b6000613d358383613cd2565b905092915050565b6000602082019050919050565b6000613d5582613ca6565b613d5f8185613cb1565b935083602082028501613d7185613cc2565b8060005b85811015613dad5784840389528151613d8e8582613d29565b9450613d9983613d3d565b925060208a01995050600181019050613d75565b50829750879550505050505092915050565b60006020820190508181036000830152613dd98184613d4a565b905092915050565b600081905092915050565b50565b6000613dfc600083613de1565b9150613e0782613dec565b600082019050919050565b6000613e1d82613def565b9150819050919050565b7f4e487b7100000000000000000000000000000000000000000000000000000000600052602260045260246000fd5b60006002820490506001821680613e6e57607f821691505b602082108103613e8157613e80613e27565b5b50919050565b60008190508160005260206000209050919050565b60008154613ea981613e56565b613eb38186613de1565b94506001821660008114613ece5760018114613edf57613f12565b60ff19831686528186019350613f12565b613ee885613e87565b60005b83811015613f0a57815481890152600182019150602081019050613eeb565b838801955050505b50505092915050565b6000613f278284613e9c565b915081905092915050565b613f3b816131c8565b82525050565b6000602082019050613f566000830184613f32565b92915050565b7f646f63746f720000000000000000000000000000000000000000000000000000600082015250565b6000613f92600683613de1565b9150613f9d82613f5c565b600682019050919050565b6000613fb382613f85565b9150819050919050565b7f4e487b7100000000000000000000000000000000000000000000000000000000600052603260045260246000fd5b7f4e487b7100000000000000000000000000000000000000000000000000000000600052601160045260246000fd5b60006140268261340d565b91506140318361340d565b92508282101561404457614043613fec565b5b828203905092915050565b600061405a8261340d565b91506140658361340d565b9250827fffffffffffffffffffffffffffffffffffffffffffffffffffffffffffffffff0382111561409a57614099613fec565b5b828201905092915050565b60006140b08261340d565b91507fffffffffffffffffffffffffffffffffffffffffffffffffffffffffffffffff82036140e2576140e1613fec565b5b600182019050919050565b7f4e487b7100000000000000000000000000000000000000000000000000000000600052603160045260246000fdfea26469706673582212200e80970571dde6faae9639350495c6ae232918e8f4712aad95aa6595fc894e9a64736f6c634300080d0033",
  "immutableReferences": {},
  "source": "// SPDX-License-Identifier: MIT\npragma solidity >=0.4.22 <0.9.0;\n\ncontract HealthCare {\n\n    mapping(address => uint) authCaller;\n    mapping(address => string) userType;\n    mapping(address => Doctor) docData;\n    mapping(address => MedicalForm) mediData;\n    mapping(address => Patient) patData;\n    mapping(address => MedicalForm[]) treatments;\n    mapping(address => Patient[]) patientList;\n    mapping(address => Doctor[]) doctorList;\n\n    constructor() public {\n        authCaller[msg.sender] = 1;\n    }\n\n    struct Doctor {\n        address docAddr;\n        string name;\n        string hospital;\n    }\n\n    struct Patient {\n        address patAddr;\n        string name;\n        string age;\n    }\n\n    struct MedicalForm {\n        address patientAddr;\n        string patientName;\n        string patientAge;\n        string patientWeight;\n        string patientHeight;\n        string symptom;\n        string description;\n        string doctorName;\n        string hospital;\n        address doctorAddr;\n        string createdAt;\n        string updatedAt;\n    }\n\n    // event\n    event DoctorAdd(address doctorAddr);\n    \n    // * Doctor *\n    function addDoctor(address doctorAddr,string memory _name, string memory _hospital) public returns(bool) {\n        require(keccak256(abi.encodePacked(userType[msg.sender]))\n        == keccak256(abi.encodePacked(\"\")));\n\n        userType[msg.sender] = 'doctor';\n        docData[msg.sender].docAddr = doctorAddr;\n        docData[msg.sender].name = _name;\n        docData[msg.sender].hospital = _hospital;\n        emit DoctorAdd(msg.sender);\n        return true;\n    }\n\n    // CRUD Patient Data\n\n    // Create\n    function addPatientData(address _patientAddr, string memory _patientName, string memory _patientAge,\n    string memory _patientWeight, string memory _patientHeight, string memory _symptom, string memory _description,\n    address _doctorAddr, string memory _doctorName, string memory _hospital, string memory _createdAt) \n    public returns(Patient[] memory) {\n        require(keccak256(abi.encodePacked(userType[msg.sender])) == keccak256(abi.encodePacked(\"doctor\")));\n\n        treatments[_patientAddr].push(MedicalForm(_patientAddr, _patientName, _patientAge, _patientWeight, _patientHeight,\n        _symptom, _description, _doctorName, _hospital, _doctorAddr, _createdAt, ''));\n\n        doctorList[_patientAddr].push(Doctor(_doctorAddr, _doctorName, _hospital));\n\n        patientList[_doctorAddr].push(Patient(_patientAddr, _patientName, _patientAge));\n        return patientList[_doctorAddr];\n    }\n\n\n    // Update\n    function updatePatientData(address _patientAddr, string memory _patientName, string memory _patientAge,\n    string memory _patientWeight, string memory _patientHeight, string memory _symptom, string memory _description, \n    string memory _updateAt, uint index)\n    public returns(bool) {\n        require(keccak256(abi.encodePacked(userType[msg.sender])) == keccak256(abi.encodePacked(\"doctor\")));\n\n        treatments[_patientAddr][index].patientAddr = _patientAddr;\n        treatments[_patientAddr][index].patientName = _patientName;\n        treatments[_patientAddr][index].patientAge = _patientAge;\n        treatments[_patientAddr][index].patientWeight = _patientWeight;\n        treatments[_patientAddr][index].patientHeight = _patientHeight;\n        treatments[_patientAddr][index].symptom = _symptom;\n        treatments[_patientAddr][index].description = _description;\n        treatments[_patientAddr][index].updatedAt = _updateAt;\n\n        return true;\n    }\n\n    // Delete\n    function deletePatientData(address _doctorAddr, address _patientAddr, uint index) public returns(bool) {\n        require(keccak256(abi.encodePacked(userType[msg.sender])) == keccak256(abi.encodePacked(\"doctor\")));\n\n        uint patSize = patientList[_doctorAddr].length;\n\n        patientList[_doctorAddr][index] = patientList[_doctorAddr][patSize - 1];\n\n        for(uint i = index; i < patSize - 1; i++) {\n            patientList[_doctorAddr][i] = patientList[_doctorAddr][i + 1];\n        }\n\n        patientList[_doctorAddr].pop();\n\n        uint treatSize = treatments[_patientAddr].length;\n\n        treatments[_patientAddr][index] = treatments[_patientAddr][treatSize - 1];\n        \n        for(uint i = index; i < treatSize - 1; i++) {\n            treatments[_patientAddr][i] = treatments[_patientAddr][i + 1];\n        }\n\n        treatments[_patientAddr].pop();\n\n        uint docSize = doctorList[_patientAddr].length;\n\n        doctorList[_patientAddr][index] = doctorList[_patientAddr][docSize - 1];\n\n        for(uint i = index; i < docSize - 1; i++) {\n            doctorList[_patientAddr][i] = doctorList[_patientAddr][i + 1];\n        }\n\n        doctorList[_patientAddr].pop();\n\n        return true;\n    }\n\n    // get patient list\n    function getPatientList(address _doctorAddr) view public returns (Patient[] memory){\n        require(keccak256(abi.encodePacked(userType[msg.sender])) == keccak256(abi.encodePacked(\"doctor\")));\n        return patientList[_doctorAddr];\n    }\n\n    // paitent\n    function addPatient(address _patAddr, string memory _name, string memory _age) public returns (bool) {\n        require(keccak256(abi.encodePacked(userType[msg.sender])) == keccak256(abi.encodePacked(\"\")));\n\n        userType[msg.sender] = \"patient\";\n        patData[msg.sender].patAddr = _patAddr;\n        patData[msg.sender].name = _name;\n        patData[msg.sender].age = _age;\n\n        return true;\n    }\n\n    // Read Treatments\n    function readPatientTreats(address _patientAddr) public view returns(MedicalForm[] memory) {\n        return treatments[_patientAddr];\n    }\n\n    // Get DoctorList\n    function getDoctorList(address _patientAddr) public view returns(Doctor[] memory) {\n        return doctorList[_patientAddr];\n    }\n\n    // get user\n    function getUser(address userAddr) view public returns(string memory) {\n        return userType[userAddr];\n    }\n}",
  "sourcePath": "/home/inlab/Desktop/wotjr/health-care-DApp/contract/contracts/HealthCare.sol",
  "compiler": {
    "name": "solc",
    "version": "0.8.13+commit.abaa5c0e.Emscripten.clang"
  },
  "schemaVersion": "3.4.7",
  "updatedAt": "2022-05-30T02:58:09.574Z",
  "networkType": "ethereum",
  "devdoc": {
    "kind": "dev",
    "methods": {},
    "version": 1
  },
  "userdoc": {
    "kind": "user",
    "methods": {},
    "version": 1
  }
}