{
  "contractName": "HealthCare",
  "abi": [
    {
      "inputs": [],
      "stateMutability": "nonpayable",
      "type": "constructor"
    },
    {
      "anonymous": false,
      "inputs": [
        {
          "indexed": false,
          "internalType": "address",
          "name": "doctorAddr",
          "type": "address"
        }
      ],
      "name": "DoctorAdd",
      "type": "event"
    },
    {
      "inputs": [
        {
          "internalType": "address",
          "name": "doctorAddr",
          "type": "address"
        },
        {
          "internalType": "string",
          "name": "_hospital",
          "type": "string"
        }
      ],
      "name": "addDoctor",
      "outputs": [
        {
          "internalType": "bool",
          "name": "",
          "type": "bool"
        }
      ],
      "stateMutability": "nonpayable",
      "type": "function"
    },
    {
      "inputs": [
        {
          "internalType": "address",
          "name": "_patientAddr",
          "type": "address"
        },
        {
          "internalType": "string",
          "name": "_patientName",
          "type": "string"
        },
        {
          "internalType": "string",
          "name": "_patientAge",
          "type": "string"
        },
        {
          "internalType": "string",
          "name": "_patientWeight",
          "type": "string"
        },
        {
          "internalType": "string",
          "name": "_patientHeight",
          "type": "string"
        },
        {
          "internalType": "string",
          "name": "_symptom",
          "type": "string"
        },
        {
          "internalType": "string",
          "name": "_description",
          "type": "string"
        }
      ],
      "name": "addPatientData",
      "outputs": [
        {
          "internalType": "string",
          "name": "",
          "type": "string"
        }
      ],
      "stateMutability": "nonpayable",
      "type": "function"
    },
    {
      "inputs": [
        {
          "internalType": "address",
          "name": "_patientAddr",
          "type": "address"
        }
      ],
      "name": "readPatientData",
      "outputs": [
        {
          "components": [
            {
              "internalType": "address",
              "name": "patientAddr",
              "type": "address"
            },
            {
              "internalType": "string",
              "name": "patientName",
              "type": "string"
            },
            {
              "internalType": "string",
              "name": "patientAge",
              "type": "string"
            },
            {
              "internalType": "string",
              "name": "patientWeight",
              "type": "string"
            },
            {
              "internalType": "string",
              "name": "patientHeight",
              "type": "string"
            },
            {
              "internalType": "string",
              "name": "symptom",
              "type": "string"
            },
            {
              "internalType": "string",
              "name": "description",
              "type": "string"
            },
            {
              "internalType": "uint256",
              "name": "state",
              "type": "uint256"
            }
          ],
          "internalType": "struct HealthCare.MedicalForm",
          "name": "",
          "type": "tuple"
        }
      ],
      "stateMutability": "view",
      "type": "function",
      "constant": true
    },
    {
      "inputs": [
        {
          "internalType": "address",
          "name": "_patientAddr",
          "type": "address"
        },
        {
          "internalType": "string",
          "name": "_patientName",
          "type": "string"
        },
        {
          "internalType": "string",
          "name": "_patientAge",
          "type": "string"
        },
        {
          "internalType": "string",
          "name": "_patientWeight",
          "type": "string"
        },
        {
          "internalType": "string",
          "name": "_patientHeight",
          "type": "string"
        },
        {
          "internalType": "string",
          "name": "_symptom",
          "type": "string"
        },
        {
          "internalType": "string",
          "name": "_description",
          "type": "string"
        }
      ],
      "name": "updatePatientData",
      "outputs": [
        {
          "internalType": "bool",
          "name": "",
          "type": "bool"
        }
      ],
      "stateMutability": "nonpayable",
      "type": "function"
    },
    {
      "inputs": [
        {
          "internalType": "address",
          "name": "_patientAddr",
          "type": "address"
        }
      ],
      "name": "deletePatientData",
      "outputs": [
        {
          "internalType": "bool",
          "name": "",
          "type": "bool"
        }
      ],
      "stateMutability": "nonpayable",
      "type": "function"
    },
    {
      "inputs": [
        {
          "internalType": "address",
          "name": "_patAddr",
          "type": "address"
        },
        {
          "internalType": "string",
          "name": "_name",
          "type": "string"
        },
        {
          "internalType": "string",
          "name": "_age",
          "type": "string"
        }
      ],
      "name": "addPatient",
      "outputs": [
        {
          "internalType": "bool",
          "name": "",
          "type": "bool"
        }
      ],
      "stateMutability": "nonpayable",
      "type": "function"
    },
    {
      "inputs": [
        {
          "internalType": "address",
          "name": "_doctorAddr",
          "type": "address"
        }
      ],
      "name": "getPatientList",
      "outputs": [
        {
          "internalType": "address[]",
          "name": "",
          "type": "address[]"
        }
      ],
      "stateMutability": "view",
      "type": "function",
      "constant": true
    },
    {
      "inputs": [
        {
          "internalType": "address",
          "name": "userAddr",
          "type": "address"
        }
      ],
      "name": "getUser",
      "outputs": [
        {
          "internalType": "string",
          "name": "",
          "type": "string"
        }
      ],
      "stateMutability": "view",
      "type": "function",
      "constant": true
    }
  ],
  "bytecode": "0x608060405234801561001057600080fd5b5060016000803373ffffffffffffffffffffffffffffffffffffffff1673ffffffffffffffffffffffffffffffffffffffff1681526020019081526020016000208190555061259a806100646000396000f3fe608060405234801561001057600080fd5b50600436106100885760003560e01c80636f77926b1161005b5780636f77926b1461014d5780637cf1e4451461017d5780639c911309146101ad578063b7cca9e8146101dd57610088565b806330004a711461008d57806337b16b50146100bd5780633a25ab1d146100ed57806346a251891461011d575b600080fd5b6100a760048036038101906100a29190611cb3565b61020d565b6040516100b49190611e85565b60405180910390f35b6100d760048036038101906100d29190611ea7565b6106f1565b6040516100e49190611f4d565b60405180910390f35b61010760048036038101906101029190611f68565b61094a565b60405161011491906120da565b60405180910390f35b61013760048036038101906101329190611f68565b610d70565b6040516101449190611f4d565b60405180910390f35b61016760048036038101906101629190611f68565b611220565b6040516101749190611e85565b60405180910390f35b610197600480360381019061019291906120fc565b6112f1565b6040516101a49190611f4d565b60405180910390f35b6101c760048036038101906101c29190611f68565b611529565b6040516101d49190612207565b60405180910390f35b6101f760048036038101906101f29190611cb3565b61168d565b6040516102049190611f4d565b60405180910390f35b606060405160200161021e90612280565b60405160208183030381529060405280519060200120600160003373ffffffffffffffffffffffffffffffffffffffff1673ffffffffffffffffffffffffffffffffffffffff1681526020019081526020016000206040516020016102839190612389565b60405160208183030381529060405280519060200120146102a357600080fd5b87600360008a73ffffffffffffffffffffffffffffffffffffffff1673ffffffffffffffffffffffffffffffffffffffff16815260200190815260200160002060000160006101000a81548173ffffffffffffffffffffffffffffffffffffffff021916908373ffffffffffffffffffffffffffffffffffffffff16021790555086600360008a73ffffffffffffffffffffffffffffffffffffffff1673ffffffffffffffffffffffffffffffffffffffff168152602001908152602001600020600101908051906020019061037a9291906119bd565b5085600360008a73ffffffffffffffffffffffffffffffffffffffff1673ffffffffffffffffffffffffffffffffffffffff16815260200190815260200160002060020190805190602001906103d19291906119bd565b5084600360008a73ffffffffffffffffffffffffffffffffffffffff1673ffffffffffffffffffffffffffffffffffffffff16815260200190815260200160002060030190805190602001906104289291906119bd565b5083600360008a73ffffffffffffffffffffffffffffffffffffffff1673ffffffffffffffffffffffffffffffffffffffff168152602001908152602001600020600401908051906020019061047f9291906119bd565b5082600360008a73ffffffffffffffffffffffffffffffffffffffff1673ffffffffffffffffffffffffffffffffffffffff16815260200190815260200160002060050190805190602001906104d69291906119bd565b5081600360008a73ffffffffffffffffffffffffffffffffffffffff1673ffffffffffffffffffffffffffffffffffffffff168152602001908152602001600020600601908051906020019061052d9291906119bd565b506000600360008a73ffffffffffffffffffffffffffffffffffffffff1673ffffffffffffffffffffffffffffffffffffffff16815260200190815260200160002060070181905550600260003373ffffffffffffffffffffffffffffffffffffffff1673ffffffffffffffffffffffffffffffffffffffff168152602001908152602001600020600201889080600181540180825580915050600190039060005260206000200160009091909190916101000a81548173ffffffffffffffffffffffffffffffffffffffff021916908373ffffffffffffffffffffffffffffffffffffffff160217905550600360008973ffffffffffffffffffffffffffffffffffffffff1673ffffffffffffffffffffffffffffffffffffffff1681526020019081526020016000206001018054610666906122c4565b80601f0160208091040260200160405190810160405280929190818152602001828054610692906122c4565b80156106df5780601f106106b4576101008083540402835291602001916106df565b820191906000526020600020905b8154815290600101906020018083116106c257829003601f168201915b50505050509050979650505050505050565b6000604051602001610702906123c6565b60405160208183030381529060405280519060200120600160003373ffffffffffffffffffffffffffffffffffffffff1673ffffffffffffffffffffffffffffffffffffffff1681526020019081526020016000206040516020016107679190612389565b604051602081830303815290604052805190602001201461078757600080fd5b6040518060400160405280600781526020017f70617469656e7400000000000000000000000000000000000000000000000000815250600160003373ffffffffffffffffffffffffffffffffffffffff1673ffffffffffffffffffffffffffffffffffffffff168152602001908152602001600020908051906020019061080f9291906119bd565b5083600460003373ffffffffffffffffffffffffffffffffffffffff1673ffffffffffffffffffffffffffffffffffffffff16815260200190815260200160002060000160006101000a81548173ffffffffffffffffffffffffffffffffffffffff021916908373ffffffffffffffffffffffffffffffffffffffff16021790555082600460003373ffffffffffffffffffffffffffffffffffffffff1673ffffffffffffffffffffffffffffffffffffffff16815260200190815260200160002060010190805190602001906108e79291906119bd565b5081600460003373ffffffffffffffffffffffffffffffffffffffff1673ffffffffffffffffffffffffffffffffffffffff168152602001908152602001600020600201908051906020019061093e9291906119bd565b50600190509392505050565b610952611a43565b600360008373ffffffffffffffffffffffffffffffffffffffff1673ffffffffffffffffffffffffffffffffffffffff168152602001908152602001600020604051806101000160405290816000820160009054906101000a900473ffffffffffffffffffffffffffffffffffffffff1673ffffffffffffffffffffffffffffffffffffffff1673ffffffffffffffffffffffffffffffffffffffff168152602001600182018054610a03906122c4565b80601f0160208091040260200160405190810160405280929190818152602001828054610a2f906122c4565b8015610a7c5780601f10610a5157610100808354040283529160200191610a7c565b820191906000526020600020905b815481529060010190602001808311610a5f57829003601f168201915b50505050508152602001600282018054610a95906122c4565b80601f0160208091040260200160405190810160405280929190818152602001828054610ac1906122c4565b8015610b0e5780601f10610ae357610100808354040283529160200191610b0e565b820191906000526020600020905b815481529060010190602001808311610af157829003601f168201915b50505050508152602001600382018054610b27906122c4565b80601f0160208091040260200160405190810160405280929190818152602001828054610b53906122c4565b8015610ba05780601f10610b7557610100808354040283529160200191610ba0565b820191906000526020600020905b815481529060010190602001808311610b8357829003601f168201915b50505050508152602001600482018054610bb9906122c4565b80601f0160208091040260200160405190810160405280929190818152602001828054610be5906122c4565b8015610c325780601f10610c0757610100808354040283529160200191610c32565b820191906000526020600020905b815481529060010190602001808311610c1557829003601f168201915b50505050508152602001600582018054610c4b906122c4565b80601f0160208091040260200160405190810160405280929190818152602001828054610c77906122c4565b8015610cc45780601f10610c9957610100808354040283529160200191610cc4565b820191906000526020600020905b815481529060010190602001808311610ca757829003601f168201915b50505050508152602001600682018054610cdd906122c4565b80601f0160208091040260200160405190810160405280929190818152602001828054610d09906122c4565b8015610d565780601f10610d2b57610100808354040283529160200191610d56565b820191906000526020600020905b815481529060010190602001808311610d3957829003601f168201915b505050505081526020016007820154815250509050919050565b6000604051602001610d8190612280565b60405160208183030381529060405280519060200120600160003373ffffffffffffffffffffffffffffffffffffffff1673ffffffffffffffffffffffffffffffffffffffff168152602001908152602001600020604051602001610de69190612389565b6040516020818303038152906040528051906020012014610e0657600080fd5b600080600090505b600260003373ffffffffffffffffffffffffffffffffffffffff1673ffffffffffffffffffffffffffffffffffffffff16815260200190815260200160002060020180549050811015610f23578373ffffffffffffffffffffffffffffffffffffffff16600260003373ffffffffffffffffffffffffffffffffffffffff1673ffffffffffffffffffffffffffffffffffffffff1681526020019081526020016000206002018281548110610ec657610ec56123db565b5b9060005260206000200160009054906101000a900473ffffffffffffffffffffffffffffffffffffffff1673ffffffffffffffffffffffffffffffffffffffff1603610f10578091505b8080610f1b90612439565b915050610e0e565b5060008190505b6001600260003373ffffffffffffffffffffffffffffffffffffffff1673ffffffffffffffffffffffffffffffffffffffff16815260200190815260200160002060020180549050610f7c9190612481565b8110156110bd57600260003373ffffffffffffffffffffffffffffffffffffffff1673ffffffffffffffffffffffffffffffffffffffff168152602001908152602001600020600201600182610fd291906124b5565b81548110610fe357610fe26123db565b5b9060005260206000200160009054906101000a900473ffffffffffffffffffffffffffffffffffffffff16600260003373ffffffffffffffffffffffffffffffffffffffff1673ffffffffffffffffffffffffffffffffffffffff1681526020019081526020016000206002018281548110611062576110616123db565b5b9060005260206000200160006101000a81548173ffffffffffffffffffffffffffffffffffffffff021916908373ffffffffffffffffffffffffffffffffffffffff16021790555080806110b590612439565b915050610f2a565b50600260003373ffffffffffffffffffffffffffffffffffffffff1673ffffffffffffffffffffffffffffffffffffffff1681526020019081526020016000206002018054806111105761110f61250b565b5b6001900381819060005260206000200160006101000a81549073ffffffffffffffffffffffffffffffffffffffff02191690559055600360008473ffffffffffffffffffffffffffffffffffffffff1673ffffffffffffffffffffffffffffffffffffffff168152602001908152602001600020600080820160006101000a81549073ffffffffffffffffffffffffffffffffffffffff02191690556001820160006111bc9190611a9e565b6002820160006111cc9190611a9e565b6003820160006111dc9190611a9e565b6004820160006111ec9190611a9e565b6005820160006111fc9190611a9e565b60068201600061120c9190611a9e565b600782016000905550506001915050919050565b6060600160008373ffffffffffffffffffffffffffffffffffffffff1673ffffffffffffffffffffffffffffffffffffffff168152602001908152602001600020805461126c906122c4565b80601f0160208091040260200160405190810160405280929190818152602001828054611298906122c4565b80156112e55780601f106112ba576101008083540402835291602001916112e5565b820191906000526020600020905b8154815290600101906020018083116112c857829003601f168201915b50505050509050919050565b6000604051602001611302906123c6565b60405160208183030381529060405280519060200120600160003373ffffffffffffffffffffffffffffffffffffffff1673ffffffffffffffffffffffffffffffffffffffff1681526020019081526020016000206040516020016113679190612389565b604051602081830303815290604052805190602001201461138757600080fd5b6040518060400160405280600681526020017f646f63746f720000000000000000000000000000000000000000000000000000815250600160003373ffffffffffffffffffffffffffffffffffffffff1673ffffffffffffffffffffffffffffffffffffffff168152602001908152602001600020908051906020019061140f9291906119bd565b5082600260003373ffffffffffffffffffffffffffffffffffffffff1673ffffffffffffffffffffffffffffffffffffffff16815260200190815260200160002060000160006101000a81548173ffffffffffffffffffffffffffffffffffffffff021916908373ffffffffffffffffffffffffffffffffffffffff16021790555081600260003373ffffffffffffffffffffffffffffffffffffffff1673ffffffffffffffffffffffffffffffffffffffff16815260200190815260200160002060010190805190602001906114e79291906119bd565b507fe7251797390b3bf67da13c0ee0dd7d9ef534eee527bb92b1c849c4ea152ef550336040516115179190612549565b60405180910390a16001905092915050565b606060405160200161153a90612280565b60405160208183030381529060405280519060200120600160003373ffffffffffffffffffffffffffffffffffffffff1673ffffffffffffffffffffffffffffffffffffffff16815260200190815260200160002060405160200161159f9190612389565b60405160208183030381529060405280519060200120146115bf57600080fd5b600260008373ffffffffffffffffffffffffffffffffffffffff1673ffffffffffffffffffffffffffffffffffffffff16815260200190815260200160002060020180548060200260200160405190810160405280929190818152602001828054801561168157602002820191906000526020600020905b8160009054906101000a900473ffffffffffffffffffffffffffffffffffffffff1673ffffffffffffffffffffffffffffffffffffffff1681526020019060010190808311611637575b50505050509050919050565b600060405160200161169e90612280565b60405160208183030381529060405280519060200120600160003373ffffffffffffffffffffffffffffffffffffffff1673ffffffffffffffffffffffffffffffffffffffff1681526020019081526020016000206040516020016117039190612389565b604051602081830303815290604052805190602001201461172357600080fd5b87600360008a73ffffffffffffffffffffffffffffffffffffffff1673ffffffffffffffffffffffffffffffffffffffff16815260200190815260200160002060000160006101000a81548173ffffffffffffffffffffffffffffffffffffffff021916908373ffffffffffffffffffffffffffffffffffffffff16021790555086600360008a73ffffffffffffffffffffffffffffffffffffffff1673ffffffffffffffffffffffffffffffffffffffff16815260200190815260200160002060010190805190602001906117fa9291906119bd565b5085600360008a73ffffffffffffffffffffffffffffffffffffffff1673ffffffffffffffffffffffffffffffffffffffff16815260200190815260200160002060020190805190602001906118519291906119bd565b5084600360008a73ffffffffffffffffffffffffffffffffffffffff1673ffffffffffffffffffffffffffffffffffffffff16815260200190815260200160002060030190805190602001906118a89291906119bd565b5083600360008a73ffffffffffffffffffffffffffffffffffffffff1673ffffffffffffffffffffffffffffffffffffffff16815260200190815260200160002060040190805190602001906118ff9291906119bd565b5082600360008a73ffffffffffffffffffffffffffffffffffffffff1673ffffffffffffffffffffffffffffffffffffffff16815260200190815260200160002060050190805190602001906119569291906119bd565b5081600360008a73ffffffffffffffffffffffffffffffffffffffff1673ffffffffffffffffffffffffffffffffffffffff16815260200190815260200160002060060190805190602001906119ad9291906119bd565b5060019050979650505050505050565b8280546119c9906122c4565b90600052602060002090601f0160209004810192826119eb5760008555611a32565b82601f10611a0457805160ff1916838001178555611a32565b82800160010185558215611a32579182015b82811115611a31578251825591602001919060010190611a16565b5b509050611a3f9190611ade565b5090565b604051806101000160405280600073ffffffffffffffffffffffffffffffffffffffff168152602001606081526020016060815260200160608152602001606081526020016060815260200160608152602001600081525090565b508054611aaa906122c4565b6000825580601f10611abc5750611adb565b601f016020900490600052602060002090810190611ada9190611ade565b5b50565b5b80821115611af7576000816000905550600101611adf565b5090565b6000604051905090565b600080fd5b600080fd5b600073ffffffffffffffffffffffffffffffffffffffff82169050919050565b6000611b3a82611b0f565b9050919050565b611b4a81611b2f565b8114611b5557600080fd5b50565b600081359050611b6781611b41565b92915050565b600080fd5b600080fd5b6000601f19601f8301169050919050565b7f4e487b7100000000000000000000000000000000000000000000000000000000600052604160045260246000fd5b611bc082611b77565b810181811067ffffffffffffffff82111715611bdf57611bde611b88565b5b80604052505050565b6000611bf2611afb565b9050611bfe8282611bb7565b919050565b600067ffffffffffffffff821115611c1e57611c1d611b88565b5b611c2782611b77565b9050602081019050919050565b82818337600083830152505050565b6000611c56611c5184611c03565b611be8565b905082815260208101848484011115611c7257611c71611b72565b5b611c7d848285611c34565b509392505050565b600082601f830112611c9a57611c99611b6d565b5b8135611caa848260208601611c43565b91505092915050565b600080600080600080600060e0888a031215611cd257611cd1611b05565b5b6000611ce08a828b01611b58565b975050602088013567ffffffffffffffff811115611d0157611d00611b0a565b5b611d0d8a828b01611c85565b965050604088013567ffffffffffffffff811115611d2e57611d2d611b0a565b5b611d3a8a828b01611c85565b955050606088013567ffffffffffffffff811115611d5b57611d5a611b0a565b5b611d678a828b01611c85565b945050608088013567ffffffffffffffff811115611d8857611d87611b0a565b5b611d948a828b01611c85565b93505060a088013567ffffffffffffffff811115611db557611db4611b0a565b5b611dc18a828b01611c85565b92505060c088013567ffffffffffffffff811115611de257611de1611b0a565b5b611dee8a828b01611c85565b91505092959891949750929550565b600081519050919050565b600082825260208201905092915050565b60005b83811015611e37578082015181840152602081019050611e1c565b83811115611e46576000848401525b50505050565b6000611e5782611dfd565b611e618185611e08565b9350611e71818560208601611e19565b611e7a81611b77565b840191505092915050565b60006020820190508181036000830152611e9f8184611e4c565b905092915050565b600080600060608486031215611ec057611ebf611b05565b5b6000611ece86828701611b58565b935050602084013567ffffffffffffffff811115611eef57611eee611b0a565b5b611efb86828701611c85565b925050604084013567ffffffffffffffff811115611f1c57611f1b611b0a565b5b611f2886828701611c85565b9150509250925092565b60008115159050919050565b611f4781611f32565b82525050565b6000602082019050611f626000830184611f3e565b92915050565b600060208284031215611f7e57611f7d611b05565b5b6000611f8c84828501611b58565b91505092915050565b611f9e81611b2f565b82525050565b600082825260208201905092915050565b6000611fc082611dfd565b611fca8185611fa4565b9350611fda818560208601611e19565b611fe381611b77565b840191505092915050565b6000819050919050565b61200181611fee565b82525050565b6000610100830160008301516120206000860182611f95565b50602083015184820360208601526120388282611fb5565b915050604083015184820360408601526120528282611fb5565b9150506060830151848203606086015261206c8282611fb5565b915050608083015184820360808601526120868282611fb5565b91505060a083015184820360a08601526120a08282611fb5565b91505060c083015184820360c08601526120ba8282611fb5565b91505060e08301516120cf60e0860182611ff8565b508091505092915050565b600060208201905081810360008301526120f48184612007565b905092915050565b6000806040838503121561211357612112611b05565b5b600061212185828601611b58565b925050602083013567ffffffffffffffff81111561214257612141611b0a565b5b61214e85828601611c85565b9150509250929050565b600081519050919050565b600082825260208201905092915050565b6000819050602082019050919050565b60006121908383611f95565b60208301905092915050565b6000602082019050919050565b60006121b482612158565b6121be8185612163565b93506121c983612174565b8060005b838110156121fa5781516121e18882612184565b97506121ec8361219c565b9250506001810190506121cd565b5085935050505092915050565b6000602082019050818103600083015261222181846121a9565b905092915050565b600081905092915050565b7f646f63746f720000000000000000000000000000000000000000000000000000600082015250565b600061226a600683612229565b915061227582612234565b600682019050919050565b600061228b8261225d565b9150819050919050565b7f4e487b7100000000000000000000000000000000000000000000000000000000600052602260045260246000fd5b600060028204905060018216806122dc57607f821691505b6020821081036122ef576122ee612295565b5b50919050565b60008190508160005260206000209050919050565b60008154612317816122c4565b6123218186612229565b9450600182166000811461233c576001811461234d57612380565b60ff19831686528186019350612380565b612356856122f5565b60005b8381101561237857815481890152600182019150602081019050612359565b838801955050505b50505092915050565b6000612395828461230a565b915081905092915050565b50565b60006123b0600083612229565b91506123bb826123a0565b600082019050919050565b60006123d1826123a3565b9150819050919050565b7f4e487b7100000000000000000000000000000000000000000000000000000000600052603260045260246000fd5b7f4e487b7100000000000000000000000000000000000000000000000000000000600052601160045260246000fd5b600061244482611fee565b91507fffffffffffffffffffffffffffffffffffffffffffffffffffffffffffffffff82036124765761247561240a565b5b600182019050919050565b600061248c82611fee565b915061249783611fee565b9250828210156124aa576124a961240a565b5b828203905092915050565b60006124c082611fee565b91506124cb83611fee565b9250827fffffffffffffffffffffffffffffffffffffffffffffffffffffffffffffffff03821115612500576124ff61240a565b5b828201905092915050565b7f4e487b7100000000000000000000000000000000000000000000000000000000600052603160045260246000fd5b61254381611b2f565b82525050565b600060208201905061255e600083018461253a565b9291505056fea2646970667358221220bc24044b76951754e635041ac1b8cbee6b0dbc8f3d0da2f1b606d4972a7950f064736f6c634300080d0033",
  "immutableReferences": {},
  "source": "// SPDX-License-Identifier: MIT\npragma solidity >=0.4.22 <0.9.0;\n\ncontract HealthCare {\n\n    mapping(address => uint) authCaller;\n    mapping(address => string) userType;\n    mapping(address => Doctor) docData;\n    mapping(address => MedicalForm) mediData;\n    mapping(address => Patient) patData;\n\n    constructor() public {\n        authCaller[msg.sender] = 1;\n    }\n\n    struct Doctor {\n        address docAddr;\n        string hospital;\n        address[] patient;\n    }\n\n    struct Patient {\n        address patAddr;\n        string name;\n        string age;\n    }\n\n    struct MedicalForm {\n        address patientAddr;\n        string patientName;\n        string patientAge;\n        string patientWeight;\n        string patientHeight;\n        string symptom;\n        string description;\n        uint state;\n    }\n\n    // event\n    event DoctorAdd(address doctorAddr);\n    \n    // * Doctor *\n    function addDoctor(address doctorAddr, string memory _hospital) public returns(bool) {\n        require(keccak256(abi.encodePacked(userType[msg.sender]))\n        == keccak256(abi.encodePacked(\"\")));\n\n        userType[msg.sender] = 'doctor';\n        docData[msg.sender].docAddr = doctorAddr;\n        docData[msg.sender].hospital = _hospital;\n        emit DoctorAdd(msg.sender);\n        return true;\n    }\n\n    // CRUD Patient Data\n\n    // Create\n    function addPatientData(address _patientAddr, string memory _patientName, string memory _patientAge,\n    string memory _patientWeight, string memory _patientHeight, string memory _symptom, string memory _description) \n    public returns(string memory) {\n        require(keccak256(abi.encodePacked(userType[msg.sender])) == keccak256(abi.encodePacked(\"doctor\")));\n\n        mediData[_patientAddr].patientAddr = _patientAddr;\n        mediData[_patientAddr].patientName = _patientName;\n        mediData[_patientAddr].patientAge = _patientAge;\n        mediData[_patientAddr].patientWeight = _patientWeight;\n        mediData[_patientAddr].patientHeight = _patientHeight;\n        mediData[_patientAddr].symptom = _symptom;\n        mediData[_patientAddr].description = _description;\n        // CRUD state\n        mediData[_patientAddr].state = 0; \n        \n        docData[msg.sender].patient.push(_patientAddr);\n        return mediData[_patientAddr].patientName;\n    }\n\n    // Read\n    function readPatientData(address _patientAddr) public view returns(MedicalForm memory) {\n        return mediData[_patientAddr];\n    }\n\n    // Update\n    function updatePatientData(address _patientAddr, string memory _patientName, string memory _patientAge,\n    string memory _patientWeight, string memory _patientHeight, string memory _symptom, string memory _description)\n    public returns(bool) {\n        require(keccak256(abi.encodePacked(userType[msg.sender])) == keccak256(abi.encodePacked(\"doctor\")));\n\n        mediData[_patientAddr].patientAddr = _patientAddr;\n        mediData[_patientAddr].patientName = _patientName;\n        mediData[_patientAddr].patientAge = _patientAge;\n        mediData[_patientAddr].patientWeight = _patientWeight;\n        mediData[_patientAddr].patientHeight = _patientHeight;\n        mediData[_patientAddr].symptom = _symptom;\n        mediData[_patientAddr].description = _description;\n\n        return true;\n    }\n\n    // Delete\n    function deletePatientData(address _patientAddr) public returns(bool) {\n        require(keccak256(abi.encodePacked(userType[msg.sender])) == keccak256(abi.encodePacked(\"doctor\")));\n\n        uint index;\n\n        for(uint i = 0; i < docData[msg.sender].patient.length; i++) {\n            if(docData[msg.sender].patient[i] == _patientAddr) {\n                index = i;\n            }\n        }\n\n        for(uint i = index; i < docData[msg.sender].patient.length - 1; i++) {\n            docData[msg.sender].patient[i] = docData[msg.sender].patient[i + 1];\n        }\n\n        docData[msg.sender].patient.pop();\n        delete mediData[_patientAddr];\n\n        return true;\n    }\n\n    // paitent\n    function addPatient(address _patAddr, string memory _name, string memory _age) public returns (bool) {\n        require(keccak256(abi.encodePacked(userType[msg.sender])) == keccak256(abi.encodePacked(\"\")));\n\n        userType[msg.sender] = \"patient\";\n        patData[msg.sender].patAddr = _patAddr;\n        patData[msg.sender].name = _name;\n        patData[msg.sender].age = _age;\n\n        return true;\n    }\n\n    // get patient list\n    function getPatientList(address _doctorAddr) view public returns (address[] memory){\n        require(keccak256(abi.encodePacked(userType[msg.sender])) == keccak256(abi.encodePacked(\"doctor\")));\n        return docData[_doctorAddr].patient;\n    }\n\n    // get user\n    function getUser(address userAddr) view public returns(string memory) {\n        return userType[userAddr];\n    }\n}",
  "sourcePath": "/home/inlab/Desktop/wotjr/health-care-DApp/contract/contracts/HealthCare.sol",
  "compiler": {
    "name": "solc",
    "version": "0.8.13+commit.abaa5c0e.Emscripten.clang"
  },
  "schemaVersion": "3.4.7",
  "updatedAt": "2022-05-20T04:44:57.461Z",
  "networkType": "ethereum",
  "devdoc": {
    "kind": "dev",
    "methods": {},
    "version": 1
  },
  "userdoc": {
    "kind": "user",
    "methods": {},
    "version": 1
  }
}